:100000000C94AD000C94D5000C94D5000C94D50044
:100010000C94D5000C94D5000C94D5000C94D5000C
:100020000C94D5000C94D5000C94D5000C944D0183
:100030000C94D5000C94D5000C94D5000C94D500EC
:100040000C948D130C94D5000C9480160C94B2165D
:100050000C94D5000C94D5000C94D5000C94D500CC
:100060000C9460120C94D500036EDB363D9A99997E
:10007000993DABAAAA2A3E000000803F084AD73B20
:100080003BCE016E84BCBFFDC12F3D6C74319ABD67
:1000900056833DDA3D00C77F11BED9E4BB4C3E918B
:1000A0006BAAAABE000000803F072C7AA5BA6CC5D7
:1000B00090DA3B9365FC8BBC53F810FD3C56928361
:1000C0004DBD879D3AB63DCBC9BF5BBE73DA0FC944
:1000D0003F05A84CCDB2D44EB93836A9020C50B960
:1000E000918688083CA6AAAA2ABE000000803F008C
:1000F000496E636F7272656374000000000800024D
:1001000001000003040700000000000000000102DD
:100110000408102040800102040810200102040895
:100120001020040404040404040402020202020273
:10013000030303030303000000002300260029003B
:1001400000000000250028002B0000000000240013
:1001500027002A0070111512E21611241FBECFEFDE
:10016000D8E0DEBFCDBF11E0A0E0B1E0EEE9F7E3FB
:1001700002C005900D92A633B107D9F722E0A6E39D
:10018000B1E001C01D92AF3FB207E1F711E0CAE54F
:10019000D1E004C02297FE010E94B21BC435D107F2
:1001A000C9F70E9426170C94CD1B0C9400008F9267
:1001B0009F92AF92BF92CF92DF92EF92FF920F93F6
:1001C0001F931F921F92E0E4EF931F921F921F92C2
:1001D000E2E0EF93812C912C54010E942B0D8DB7FE
:1001E0009EB707960FB6F8949EBF0FBE8DBF1F91A6
:1001F0000F91FF90EF90DF90CF90BF90AF909F90C6
:100200008F9008958CE591E00C945F11CF92DF926E
:10021000EF92FF920F931F93C12CD12C80EAE82E0E
:1002200081E4F82E00E010E028EA31EC40E050E0F4
:1002300060E87FE38CE591E00E94D7008CE591E0D7
:100240000E94E6108CE591E00E94591100E010E058
:1002500028EA31EC40E050E060E87FE38CE591E093
:100260000E94D700C12CD12C98ECE92E91E4F92EF4
:1002700000E010E0980140E050E068E971EC8CE5A6
:1002800091E00E94D7008CE591E01F910F91FF90C3
:10029000EF90DF90CF900C94F6101F920F920FB654
:1002A0000F9211242F933F934F935F936F937F93FC
:1002B0008F939F93AF93BF93EF93FF9380913701F9
:1002C00087FF05C010928500109284001AC020910B
:1002D0003701332727FD30958091360190E02817AC
:1002E00039077CF480913701992787FD9095FC01AF
:1002F000EE0FFF1FE80FF91FE85CFE4F808186FDBF
:1003000015C0809137018F5F8093370120913701AD
:10031000332727FD30958091360190E02817390763
:10032000BCF4809137018C305CF112C080913701B0
:10033000992787FD9095FC01EE0FFF1FE80FF91F2D
:10034000E85CFE4F808160E08F730E94DC14D9CF9F
:100350008091840090918500049680349C4918F423
:1003600080E49CE905C0809184009091850004960A
:1003700090938900809388008FEF8093370138C075
:10038000209184003091850080913701992787FD65
:100390009095FC01EE0FFF1FE80FF91FE85CFE4F80
:1003A00081819281820F931F9093890080938800AE
:1003B00080913701992787FD9095FC01EE0FFF1F73
:1003C000E80FF91FE85CFE4F808186FF11C0809125
:1003D0003701992787FD9095FC01EE0FFF1FE80F6D
:1003E000F91FE85CFE4F808161E08F730E94DC148E
:1003F000FF91EF91BF91AF919F918F917F916F91FD
:100400005F914F913F912F910F900FBE0F901F90D2
:100410001895209136012C30A0F431E0320F309342
:100420003601FC012083822F90E0FC01EE0FFF1FBC
:10043000E80FF91FE85CFE4F88EB9BE09283818315
:1004400008952FEFFC0120830895DF92EF92FF9231
:100450000F931F93CF93DF93EC01D62E7A0189017E
:1004600088818C3008F066C061E08D2D0E94A31455
:100470008881A82FB0E0FD01EE0FFF1FEA0FFB1FE0
:10048000E85CFE4F2D2D2F739081907C922B9083F2
:1004900060E272E06E197F0977FF02C06D5F7F4FE7
:1004A0007595679575956795698340E659E0401B9A
:1004B000510B57FF02C04D5F5F4F559547955595BE
:1004C00047954A836CE00E94581B9CE0899FB001CD
:1004D000112420E030E0A901460F571FFA01EE0F6A
:1004E000FF1FE40FF51FE85CFE4F908196FD16C0DC
:1004F0002F5F3F4F2C30310571F781110FC01092E3
:10050000800082E080938100109285001092840028
:10051000B19A80916F00826080936F00888190E033
:10052000FC01EE0FFF1FE80FF91FE85CFE4F808112
:10053000806480838881DF91CF911F910F91FF901C
:10054000EF90DF90089520E639E040E252E00C940D
:100550002502FC0180818C3070F5918128E830E023
:10056000291B310997FD3395220F331F220F331FAB
:10057000621773077CF0928128E532E0291B31096C
:1005800097FD3395220F331F220F331F6217730716
:100590000CF49B0122503109220F331F4FB7F894FE
:1005A00090E0FC01EE0FFF1FE80FF91FE85CFE4F23
:1005B000328321834FBF08954F925F926F927F9253
:1005C000AF92BF92CF92DF92EF92FF920F931F9361
:1005D000CF93DF93EC01603282E078070CF040C0EB
:1005E00077FD06C0653B71052CF064EB70E002C03E
:1005F00060E070E0898128E830E0281B310987FD40
:100600003395220F331F220F331F5901CC24B7FC1F
:10061000C094DC2C882777FD8095982F2A8148E5A7
:1006200052E0421B510927FD5395440F551F440FBB
:10063000551F2A01662457FC6094762C7F926F9296
:100640005F924F9214EBE12EF12C00E010E020E0DD
:1006500030E0A9010E94AE170F900F900F900F90FD
:10066000CE01DF91CF911F910F91FF90EF90DF901E
:10067000CF90BF90AF907F906F905F904F900C9411
:10068000A902FC01808190E0FC01EE0FFF1FE80F42
:10069000F91FE85CFE4F808186FB882780F908956A
:1006A0000C94C51BCF93DF93EC018B960E9409023B
:1006B000CE018E960E940902CE01C1960E940902C7
:1006C000CE01C4960E940902CE01C7960E9409027B
:1006D0001AAE1BAE1CAE1DAEDF91CF910895CF9226
:1006E000DF92EF92FF920F931F93CF93DF93EC0172
:1006F0008FEF860F833070F5062F10E0045D1F4FDB
:10070000000F111FC80101960E945003682F70E06E
:1007100080E090E00E943C1920E030E040E251E4AB
:100720000E94A1186B017C016AAF7BAF8CAF9DAFBB
:10073000C8010E945003811108C0F7FAF094F7F83D
:10074000F094CAAEDBAEECAEFDAE5AAD4BAD3CADF7
:100750002DAD0CC0643031F060EF70E082E692E0C5
:100760000E949C1750E040E030E020E0652F742F9D
:10077000832F922FDF91CF911F910F91FF90EF90D8
:10078000DF90CF900895CF92DF92EF92FF921F9368
:10079000CF93DF93EC01162F69017A010E946F035A
:1007A0009B01AC01C701B6010E94F71720E030E0C1
:1007B000A9010E949A1887FF12C0612FCE010E94E2
:1007C0006F039B01AC01C701B6010E94F71720E03F
:1007D00030E0A9010E949A1887FF37C034C0612F0A
:1007E000CE010E946F039B01AC01C701B6010E94BC
:1007F000F71720E030E044E353E40E94761A18161D
:10080000E4F2612FCE010E946F039B01AC01C7018E
:10081000B6010E94F71720E030E0A9010E94761A85
:1008200087FFCBCF612FCE010E946F039B01AC01EC
:10083000C701B6010E94F71720E030E0A9010E942D
:100840009A1887FF25C060E04BC0612FCE010E943F
:100850006F039B01AC01C701B6010E94F71720E0AE
:1008600030E044E353E40E94761A1816B4F1612F85
:10087000CE010E946F039B01AC01C701B6010E942B
:10088000F71720E030E040E05FE30E94F71722C056
:10089000612FCE010E946F039B01AC01C701B6011D
:1008A0000E94F71720E030E044E353E40E94761AF8
:1008B0001816ACF0612FCE010E946F039B01AC01B2
:1008C000C701B6010E94F71720E030E040E05FE387
:1008D0000E94F6170E94091903C064EB01C063EB84
:1008E000862FDF91CF911F91FF90EF90DF90CF90F7
:1008F00008952F923F924F925F926F927F928F92C4
:100900009F92AF92BF92CF92DF92EF92FF920F939E
:100910001F93CF93DF931C012A013B01122F822FDB
:1009200090E0019726E0289FE001299FD00D112437
:10093000CE01CD960E945003F82ECE01CE960E9495
:100940005003682F70E0762F66276F0D711D882782
:1009500077FD8095982F0E943C1920E030E040E21E
:1009600051E40E94A1186B017C01CE01CC960E943B
:100970005003811104C0F7FAF094F7F8F094CE0117
:10098000805C9F4F0E945003982ECE018F5B9F4F3B
:100990000E945003682F70E0762F6627690D711D45
:1009A000882777FD8095982F0E943C1920E030E041
:1009B00048EC52E40E94A1184B015C01CE01CF9695
:1009C0000E945003811104C0B7FAB094B7F8B094F4
:1009D000011119C0A3019201C501B4010E94811A3D
:1009E0009B01AC01C701B6010E94F7176B017C01A6
:1009F000612FC1010E946F039B01AC01C701B601C9
:100A00000E94F6170EC0013081F4A3019201C501C6
:100A1000B4010E94811A9B01AC01C701B6010E947A
:100A2000F717562F472F382F292F652F742F832F15
:100A3000922FDF91CF911F910F91FF90EF90DF9058
:100A4000CF90BF90AF909F908F907F906F905F906E
:100A50004F903F902F9008950F93CF93DF93EC0129
:100A6000042F623021F188F4613009F042C082E045
:100A70000E945D14BC01882777FD8095982F0E9405
:100A80003C19AB01BC0121E02DC06330F1F06430B2
:100A900081F583E00E945D14BC01882777FD809575
:100AA000982F0E943C19AB01BC0124E01BC080E0E0
:100AB0000E945D14BC01882777FD8095982F0E94C5
:100AC0003C19AB01BC0122E00DC081E00E945D1425
:100AD000BC01882777FD8095982F0E943C19AB01B7
:100AE000BC0123E0CE010E947904562F472F382FF6
:100AF000292F652F742F832F922FDF91CF910F9184
:100B0000089540E00C942C050F931F93CF93DF932F
:100B1000EC018C01055D1F4FC8010E94410381114A
:100B20000DC06BE070E0C8010E94A30261E0CE013D
:100B30000E948105688379838A839B838E01025D8D
:100B40001F4FC8010E94410381110DC06DE070E08C
:100B5000C8010E94A30262E0CE010E9481056C835D
:100B60007D838E839F838E010F5C1F4FC8010E947F
:100B7000410381110DC06CE070E0C8010E94A30226
:100B800063E0CE010E948105688779878A879B8709
:100B90008E010C5C1F4FC8010E94410381110DC0E2
:100BA0006AE070E0C8010E94A30264E0CE010E94E6
:100BB00081056C877D878E879F87DF91CF911F91FD
:100BC0000F9108952F923F924F925F926F927F9272
:100BD0008F929F92AF92BF92CF92DF92EF92FF924D
:100BE0000F931F93CF93DF9300D000D01F92CDB708
:100BF000DEB71C0149835A836B837C83280139014A
:100C00000E94840520E030E040E251E4C301B201DB
:100C10000E949A1887FD11C020E030E040EF52E4B6
:100C2000C301B2010E94761A18166CF4412C512CA3
:100C300050EF652E52E4752E06C0412C512C60E217
:100C4000662E61E4762E20E030E040E251E4C701F8
:100C5000B6010E949A1887FD11C020E030E04CEDEB
:100C600052E4C701B6010E94761A18166CF4C12C22
:100C7000D12C3CEDE32E32E4F32E06C0C12CD12C56
:100C800040E2E42E41E4F42EA7019601C301B20133
:100C90000E94F71720E030E040E253E40E94761A09
:100CA00018160CF44FC029813A814B815C8161E0B8
:100CB000C1010E94C303782FA301920162E0C10128
:100CC0007D830E94C303182FA701960163E0C10131
:100CD0000E94C303082FA501940164E0C1010E9492
:100CE000C303282F7D81672F70E0C1018B962D8370
:100CF0000E94DC02612F70E0C1018E960E94DC022E
:100D0000602F70E0C101C1960E94DC022D81622F2C
:100D100070E0C101C4960E94DC0289819A81AB8196
:100D2000BC81F10180839183A283B3834482558285
:100D300066827782C086D186E286F386848695862F
:100D4000A686B7860F900F900F900F900F90DF91AF
:100D5000CF911F910F91FF90EF90DF90CF90BF90B8
:100D6000AF909F908F907F906F905F904F903F904B
:100D70002F9008952F923F924F925F926F927F92A1
:100D80008F929F92AF92BF92CF92DF92EF92FF929B
:100D90000F931F93CF93DF93CDB7DEB728970FB68E
:100DA000F894DEBF0FBECDBF1C014D835E836F8301
:100DB0007887C901B80126EE3EE245E652E40E947A
:100DC000A1184B015C010E949E182B013C0126EEEC
:100DD0003EE245E652E4C701B6010E94A1186B014C
:100DE0007C010E949E1869837A838B839C8323E312
:100DF00033E34DE651E4C301B2010E94811A2EEEA5
:100E00003CE747E050E40E94F7172B013C0126EF36
:100E100038E240E851E469817A818B819C810E94AB
:100E2000811A9B01AC01C301B2010E94F7176983CB
:100E30007A838B839C8326EE3EE245E652E46D8105
:100E40007E818F8198850E94A1182B013C010E9410
:100E50009E18905829813A814B815C810E94811AA9
:100E6000F101648F758F868F978F20E030E0A901A4
:100E7000C301B2010E94761A181624F0C301B20110
:100E8000905802C0C301B2010E94E41A905829810F
:100E90003A814B815C810E94811AF10160A371A3A8
:100EA00082A393A320E030E0A901C501B4010E9410
:100EB000761A181624F0C501B401905802C0C50175
:100EC000B4010E94E41A23E333E34DE651E40E94A7
:100ED000811A26E83BEE43E351E40E94F7174B01E9
:100EE0005C0120E030E0A901C701B6010E94761A3A
:100EF000181624F0C701B601905802C0C701B60108
:100F00000E94E41A26EF38E240E851E40E94811A78
:100F10009B01AC01C501B4010E94F617F10164A365
:100F200075A386A397A328960FB6F894DEBF0FBECD
:100F3000CDBFDF91CF911F910F91FF90EF90DF9088
:100F4000CF90BF90AF909F908F907F906F905F9069
:100F50004F903F902F9008952F923F924F925F9223
:100F60006F927F928F929F92AF92BF92CF92DF92B9
:100F7000EF92FF920F931F93CF93DF93CDB7DEB71E
:100F800062970FB6F894DEBF0FBECDBF4A015B017A
:100F9000C901B8011C2DA50194010E94F6176983AF
:100FA0007A838B839C83E98AFA8A212C312CDC0199
:100FB000CB01B0588D839E83AF83B887622D1230EA
:100FC00009F441C0E0F4112309F4BAC0113009F06A
:100FD0000CC1B101882777FD8095982F0E943C199C
:100FE0009B01AC0169817A818B819C810E94811A6D
:100FF00020E030E048E452E40E94A11895C013308C
:1010000009F46EC0143009F0F0C070E080E090E0A8
:101010000E943A1920E030E048E452E40E94A1180E
:101020002B013C019B01AC016D817E818F819885F4
:101030000E94811A6B017C0120E030E040E050E426
:10104000C301B20169C0B101882777FD8095982F4F
:101050000E943C1920E030E048EC51E40E94A118C5
:101060002B013C0120E030E040E85FE30E949A1849
:1010700087FF0DC020E030E040E05FE369817A81C6
:101080008B819C810E94811AA30192013CC020E0C7
:1010900030E040E85FE3C301B2010E94F6172B0184
:1010A0003C0120E030E040E05FE36D817E818F8194
:1010B00098850E94811A6B017C0120E030E040E0BD
:1010C00050E4C301B2010E94F6179B01AC01C301B9
:1010D000B2010E94811A20E030E040E85FE31CC0CA
:1010E00070E080E090E00E943A1920E030E048E4AF
:1010F00052E40E94A1182B013C019B01AC016981C3
:101100007A818B819C810E94811AA30192010E94A5
:10111000811AA501940161C00E94F6179B01AC01E0
:10112000C701B6010E94811AA50194010E94F71718
:10113000A989BA896D937D938D939C93139755C01C
:1011400070E080E090E00E943A1920E030E048E44E
:1011500052E40E94A1182B013C019B01AC010E94AA
:10116000811A6B017C0120E030E040E450E46981A9
:101170007A818B819C810E94811AA70196010E942D
:10118000811A9B01AC01C501B4010E94F717698760
:101190007A878B879C8720E030E040E050EC6981C3
:1011A0007A818B819C810E94811A6D877E878F87CF
:1011B000988BA3019201C701B6010E94811A9B017D
:1011C000AC016D857E858F8598890E94811A9B016F
:1011D000AC0169857A858B859C850E94F717E98922
:1011E000FA896083718382839383FFEF2F1A3F0A0A
:1011F00089899A8904969A8B898B92E329163104FE
:1012000009F0DCCE62960FB6F894DEBF0FBECDBFFC
:10121000DF91CF911F910F91FF90EF90DF90CF90D2
:10122000BF90AF909F908F907F906F905F904F9006
:101230003F902F9008954F925F926F927F928F927E
:101240009F92AF92BF92CF92DF92EF92FF920F9355
:101250001F93CF93DF9300D000D0CDB7DEB72A0124
:101260003B01C901B80126EE3EE245E652E40E9488
:10127000A1180E949E1869837A838B839C8326EE33
:101280003EE245E652E4C701B6010E94A1180E9461
:101290009E184B015C0123E333E34DE651E4698181
:1012A0007A818B819C810E94811A2EEE3CE747E077
:1012B00050E40E94F7176B017C0126EF38E240E80A
:1012C00051E4C501B4010E94811A9B01AC01C70120
:1012D000B6010E94F7174B015C0126EE3EE245E69F
:1012E00052E4C301B2010E94A1186B017C0120E00D
:1012F00030E0A9010E94761A181624F0C701B60141
:10130000905802C0C701B6010E94E41A9058A50186
:1013100094010E94811A0F900F900F900F90DF910F
:10132000CF911F910F91FF90EF90DF90CF90BF90E2
:10133000AF909F908F907F906F905F904F900895A7
:101340002F923F924F925F926F927F928F929F92D5
:10135000AF92BF92CF92DF92EF92FF920F931F93C3
:10136000CF93DF93CDB7DEB764970FB6F894DEBFA7
:101370000FBECDBF1C0149835A836B837C830D83D1
:101380001E832F8338872CE53FE844EC51E4C701E6
:10139000B6010E94761A18169CF028E939E941E551
:1013A00050ECC701B6010E949A1887FF11C0F8E9F6
:1013B000CF2EF9E9DF2EF1E5EF2EF0ECFF2E08C07D
:1013C000ACE5CA2EAFE8DA2EA4ECEA2EA1E4FA2EA0
:1013D0002EEE3CE747E050E46D817E818F81988559
:1013E00090580E94F61723E333E34DE651E40E9440
:1013F000A1184B015C0126E83BEE43E351E4C70131
:10140000B6010E94F61723E333E34DE651E40E9450
:10141000A1182B013C01A5019401C501B4010E9452
:10142000811A6D877E878F87988BA3019201C301F4
:10143000B2010E94811A69877A878B879C872D85E4
:101440003E854F8558890E94F7170E94EE1A698BD6
:101450007A8B8B8B9C8B20E030E0A90169817A81AB
:101460008B819C810E949A188111A2C080E090E03B
:10147000A4EBB2E4F101808B918BA28BB38B20E0C3
:1014800030E0A901C301B2010E949A188823C9F073
:10149000C501B4019058A30192010E94A1180E94B5
:1014A000721826EE3EE245E652E40E94811A4B0194
:1014B0005C0120E030E0A9010E94761A18168CF435
:1014C00006C0812C912CE4EBAE2EE2E4BE2E20E08F
:1014D00030E044E353E4C501B4010E94F6174B0128
:1014E0005C012D853E854F85588960E070E080E87D
:1014F0009FE30E94F61729853A854B855C850E94FB
:10150000F61724E937E745E95FE30E94F61726E579
:1015100031E54AE050E40E94A11829893A894B89B3
:101520005C890E94A1180E945B1826EE3EE245E607
:1015300052E40E94811AA50194010E94F6174B0102
:101540005C0120E030E0A9010E949A18F10187FDBA
:1015500005C0808E918EA28EB38E04C0108E118E27
:10156000128E138E26EE3EE245E652E4F101608DC6
:10157000718D828D938D0E94A1180E94E41A26EF2E
:1015800038E240E851E40E94811A9B01AC01C70196
:10159000B6010E94F71726E83BEE43E351E40E94B0
:1015A000F61723E333E34DE651E40E94A11825C169
:1015B00029813A814B815C816D817E818F81988503
:1015C0000E94A1184B015C010E94721826EE3EE2B7
:1015D00045E652E40E94811A6B017C0120E030E074
:1015E000A901C501B4010E949A1887FD06C0F10146
:1015F000C08AD18AE28AF38A0DC020E030E044E359
:1016000053E4C701B6010E94F717F101608B718B9B
:10161000828B938B20E030E0A9016D817E818F81E8
:1016200098850E949A1881111AC020E030E0A90123
:1016300069817A818B819C810E94761A181654F4F4
:1016400080E090E0A4E3B3E4F101808B918BA28B66
:10165000B38B05C0F101108A118A128A138A26EE13
:101660003EE245E652E4F1016089718982899389FD
:101670000E94A1180E949E189B01AC0169817A8189
:101680008B819C8190580E94A1182EEE3CE747E088
:1016900050E40E94F61723E333E34DE651E40E9441
:1016A000A1184B015C0120E030E0A901C301B201A7
:1016B0000E949A188823C9F0A3019201C501B401C0
:1016C00090580E94A1180E94721826EE3EE245E64C
:1016D00052E40E94811A6B017C0120E030E0A901F4
:1016E0000E94761A18168CF406C0C12CD12C74EB0B
:1016F000E72E72E4F72E20E030E044E353E4C70124
:10170000B6010E94F6176B017C01A5019401C50189
:10171000B4010E94811A9B01AC0169857A858B8591
:101720009C850E94F7174B015C010E94EE1A6983A9
:101730007A838B839C8324E937E745E95FE3C5011E
:10174000B4010E94F71720E030E040E85FE30E9418
:10175000F617905826E531E54AE050E40E94A118BA
:1017600029813A814B815C810E94A1180E945B18FB
:1017700026EE3EE245E652E40E94811AA701960158
:101780000E94F6176B017C0120E030E0A9010E9465
:101790009A18F10187FD05C0C08ED18EE28EF38EBE
:1017A00004C0108E118E128E138E26EE3EE245E698
:1017B00052E4F101608D718D828D938D0E94A1188C
:1017C0006B017C0120E030E0A9010E94761A181616
:1017D00024F0C701B601905802C0C701B6010E94AB
:1017E000E41A26E531E54AE85FE30E94811A9B018D
:1017F000AC01C301B2010E94F7170E945B1826EEEC
:101800003EE245E652E40E94811AF101648B758B39
:10181000868B978BF101408851886288738820E01D
:1018200030E0A901C301B2010E94761A181624F013
:1018300077FA709477F87094F101408A518A628A3D
:10184000738A84889588A688B78820E030E0A9014B
:10185000C501B4010E94761A181624F0B7FAB094A4
:10186000B7F8B094F101848A958AA68AB78AC08CA9
:10187000D18CE28CF38C20E030E0A901C701B601E5
:101880000E949A1887FD2EC095018401B301A20120
:10189000C1010E941B096B017C012DEC3CEC4CEC5E
:1018A0005DE36D817E818F8198850E94F7179B0192
:1018B000AC01C701B6010E94761A18160CF484C058
:1018C0002DEC3CEC4CEC5DE36D817E818F81988545
:1018D0000E94F6179B01AC01C701B6010E949A183D
:1018E00087FD72C0A3019201C301B2010E942F1BA8
:1018F000811178C0E89477F82FEF3FEF4FE75FE76B
:10190000C301B2010E942F1B81110BC02FEF3FEFCB
:101910004FE75FE7C301B2010E949A1818160CF452
:1019200061C0F101C488D588E688F788A7019601CF
:10193000C701B6010E942F1B81115FC0E894F7F820
:101940002FEF3FEF4FE75FE7C701B6010E942F1B64
:1019500081110BC02FEF3FEF4FE75FE7C701B601E3
:101960000E949A1818160CF448C0F101C08CD18C52
:10197000E28CF38CA7019601C701B6010E942F1BD0
:10198000811146C046015701E894B7F82FEF3FEFA9
:101990004FE75FE7C501B4010E942F1B81110AC008
:1019A0002FEF3FEF4FE75FE7C501B4010E949A18A0
:1019B000181674F120E030E0A901C701B6010E94B9
:1019C0009A1887FF2FC024C0A501940160E070E041
:1019D00084E393E40E94F617F101648B758B868B88
:1019E000978B80CF61E08CE591E00E948105F10149
:1019F000608B718B828B938B94CF62E08CE591E04E
:101A00000E948105F101648B758B868B978BADCF1E
:101A100063E08CE591E00E948105F101608F718F98
:101A2000828F938F64960FB6F894DEBF0FBECDBF42
:101A3000DF91CF911F910F91FF90EF90DF90CF90AA
:101A4000BF90AF909F908F907F906F905F904F90DE
:101A50003F902F9008952F923F924F925F926F92F6
:101A60007F928F929F92AF92BF92CF92DF92EF922E
:101A7000FF920F931F93CF93DF93CDB7DEB7C6547A
:101A8000D3400FB6F894DEBF0FBECDBF1C012A01B4
:101A90003B01CD5CDC4F088319832A833B83C3530E
:101AA000D340C95CDC4FC882D982EA82FB82C7532B
:101AB000D340C95DDC4F88829982AA82BB82C7521B
:101AC000D3400E948405D1011896CD90DD90ED9011
:101AD000FC901B9714960D911D912D913C91179799
:101AE0004D915D916D917C91C1010E94BA06D10129
:101AF0005C968D919D910D90BC91A02DC55CDC4FA5
:101B000088839983AA83BB83CB53D340D10190961A
:101B10008D919D910D90BC91A02DC15CDC4F88836F
:101B20009983AA83BB83CF53D340D10194968D91DF
:101B30009D910D90BC91A02DCD5BDC4F8883998346
:101B4000AA83BB83C354D340C55ADC4FB881CB555D
:101B5000D340B170C55DDC4FB883CB52D340C45D78
:101B6000DC4F1882CC52D340C55DDC4FE881F9814F
:101B7000CB52D340BF01882777FD8095982F0E94D4
:101B80003C194B015C019B01AC01C55CDC4F6881D9
:101B900079818A819B81CB53D3400E94811AA30112
:101BA00092010E94F717C15DDC4F688379838A83B5
:101BB0009B83CF52D340A5019401C15CDC4F688167
:101BC00079818A819B81CF53D3400E94811ACD5C59
:101BD000DC4F288139814A815B81C353D3400E9405
:101BE000F7172B013C01A5019401CD5BDC4F688107
:101BF00079818A819B81C354D3400E94811AC95C38
:101C0000DC4F288139814A815B81C753D3400E94D0
:101C1000F7174B015C016B017C0193018201C15DEF
:101C2000DC4F488159816A817B81CF52D3408CE55A
:101C300091E00E94A00980916C0190916D01A091AA
:101C40006E01B0916F01C55DDC4F88839983AA83D3
:101C5000BB83CB52D3408091700190917101A091D0
:101C60007201B0917301CD5CDC4F88839983AA83A4
:101C7000BB83C353D3408091740190917501A091AF
:101C80007601B0917701C95CDC4F88839983AA8380
:101C9000BB83C753D340C55ADC4F9881CB55D34043
:101CA00091FF10C0D1011C962D913D914D915C91F9
:101CB0001F97C95DDC4F688179818A819B81C752FA
:101CC000D3402BC0C55ADC4FB881CB55D340B2FFAF
:101CD0002EC0F1012485358546855785C95DDC4FC9
:101CE000688179818A819B81C752D3400E94F7170E
:101CF0006B017C01D1012D913D914D915C91C55DB0
:101D0000DC4F688179818A819B81CB52D3400E94CC
:101D1000F6179B01AC01C701B6010E94F717C95D18
:101D2000DC4F688379838A839B83C752D34020E04A
:101D300030E0A901C45ADC4F688179818A819B8196
:101D4000CC55D3400E94761A18160CF0CDC1C05A5B
:101D5000DC4FB881C056D340B13009F0D8C0F10192
:101D60004081518162817381CF59DC4FC880C15657
:101D7000D3409E01275A3D4F7901C55DDC4F088154
:101D800019812A813B81CB52D340C1010E94AC070B
:101D9000D10114964D915D916D917C911797CF591A
:101DA000DC4FC880C156D340FE01EF56FE4F7F0185
:101DB000CD5CDC4F088119812A813B81C353D3401C
:101DC000C1010E94AC073E01F9EC6F0E711CD101FC
:101DD00018964D915D916D917C911B97CF59DC4F79
:101DE000C880C156D3407301C95CDC4F088119819A
:101DF0002A813B81C753D340C1010E94AC07F10146
:101E00004485558566857785CF59DC4FC880C15696
:101E1000D3409E012F5F3F4F7901C95DDC4F0881A0
:101E200019812A813B81C752D340C1010E94AC076E
:101E30002701CD5DDC4F79826882C352D340DE0139
:101E4000AF56BE4FCB5DDC4FB983A883C552D3409C
:101E5000FE01E75AFD4FC15DDC4FF983E883CF52A5
:101E6000D340D2018D909D90AD90BD902D01CD5D60
:101E7000DC4FE881F981C352D340C190D190E19009
:101E8000F190CD5DDC4FF983E883C352D340CB5D45
:101E9000DC4FA881B981C552D3400D911D912D9180
:101EA0003D91CB5DDC4FB983A883C552D340C15D62
:101EB000DC4FE881F981CF52D3404191519161913A
:101EC0007191C15DDC4FF983E883CF52D340C101EA
:101ED0000E94E20520E030E04AE754E4C45ADC4FB7
:101EE000688179818A819B81CC55D3400E94811A77
:101EF00020E030E048E452E40E94A1180E940E194C
:101F00000E94FA134614570409F0ABCFEDC0C05A33
:101F1000DC4FF881C056D340F111E6C0CF59DC4FF9
:101F2000C880C156D3409E01275A3D4F7901C15DFB
:101F3000DC4F088119812A813B81CF52D340C55C97
:101F4000DC4F488159816A817B81CB53D340C101E9
:101F50000E94AC07CE018F569E4FCF5DDC4F998318
:101F60008883C152D340CF59DC4FC880C156D3407B
:101F70007C0193018201C15CDC4F488159816A81F7
:101F80007B81CF53D340C1010E94AC07CF59DC4FB6
:101F9000C880C156D340FE01E753FF4F7F01950132
:101FA0008401CD5BDC4F488159816A817B81C354B8
:101FB000D340C1010E94AC07D1011C964D915D91A7
:101FC0006D917C911F97CF59DC4FC880C156D3408B
:101FD000FE0131967F01C95DDC4F088119812A819C
:101FE0003B81C752D340C1010E94AC079E012753D9
:101FF0003F4F3901CE018F569E4FCD5DDC4F998307
:102000008883C352D340DE01A75ABD4FCB5DDC4F5E
:10201000B983A883C552D3402701D301CD90DD9069
:10202000ED90FD903D01CD5DDC4FE881F981C3521B
:10203000D3400191119121913191CD5DDC4FF98314
:10204000E883C352D340CB5DDC4FA881B981C55230
:10205000D3404D915D916D917D91CB5DDC4FB98306
:10206000A883C552D340C1010E94A009F20181900A
:102070009190A190B1902F01D1015896CD90DD9013
:10208000ED90FC905B9754960D911D912D913C9194
:10209000579750964D915D916D917C915397C101E9
:1020A0000E94E20520E030E04AE754E4C45ADC4FE5
:1020B000688179818A819B81CC55D3400E94811AA5
:1020C00020E030E048E452E40E94A1180E940E197A
:1020D0000E94FA13CF5DDC4FE881F981C152D340F1
:1020E0006E167F0609F099CFC95DDC4F8880998014
:1020F000AA80BB80C752D340C95CDC4FC880D9805E
:10210000EA80FB80C753D340CD5CDC4F0881198146
:102110002A813B81C353D340C55DDC4F488159813F
:102120006A817B81CB52D340C1010E94E205CA5B28
:10213000DC4F0FB6F894DEBF0FBECDBFDF91CF915D
:102140001F910F91FF90EF90DF90CF90BF90AF90D5
:102150009F908F907F906F905F904F903F902F90C7
:1021600008958F929F92AF92BF92CF92DF92EF929B
:10217000FF920F931F93CF93DF93CDB7DEB7FF8509
:10218000A889B9899A88AB2811F0E3E001C0E2E0A0
:102190001F921F929F92BF93AF93FF93EF93812C57
:1021A000912C54010E942B0D0FB6F894DEBF0FBE88
:1021B000CDBFDF91CF911F910F91FF90EF90DF90F6
:1021C000CF90BF90AF909F908F90089561E086E090
:1021D0000E94A31461E085E00E94A31460E085E002
:1021E0000E94DC1461E086E00C94DC1461E086E07F
:1021F0000E94A31461E085E00E94A31461E085E0E1
:102200000E94DC1460E086E00E94DC1462E370E06F
:1022100080E090E00E94FA1360E085E00C94DC140A
:102220004F925F926F927F928F929F92AF92BF92E6
:10223000CF92DF92EF92FF920F931F93CF93DF9392
:102240002A013B0177FA709477F870940CE3802EA2
:1022500083E2982ED7EDCAE082E00E941215892B06
:10226000B9F08F929F92DF93CF93AA24A394B12CBD
:102270007301620100E010E09801B901A8018CE54A
:1022800091E00E94B1100F900F900F900F90E4CF4B
:10229000DF91CF911F910F91FF90EF90DF90CF9042
:1022A000BF90AF909F908F907F906F905F904F9076
:1022B000089540E050E060E87FE30C9410118AE953
:1022C00091E00E940B1226E040E855E260E070E0E9
:1022D00082E692E00E941E1662E082E00C94A31453
:1022E0008CE591E00C9452038091C90190E020911B
:1022F000CA01821B910908952091CA018091C901E8
:10230000281750F4E22FF0E0E553FE4F808190E073
:102310002F5F2093CA0108958FEF9FEF0895E091FA
:10232000CA018091C901E81730F4F0E0E553FE4F8F
:10233000808190E008958FEF9FEF08950895CF92E8
:10234000DF92EF92FF920F931F93CF93DF937C0165
:10235000CB018A012091A601222389F0EB016B01B8
:10236000C40ED51ECC15DD0569F06991D701ED913C
:10237000FC910190F081E02DC7010995F3CF642F06
:102380000E943712C801DF91CF911F910F91FF90EA
:10239000EF90DF90CF900895CF93DF931F92CDB74A
:1023A000DEB769832091A6012223D1F02091A701F5
:1023B000203240F021E030E0FC013383228380E0D2
:1023C00090E015C08091A801E82FF0E0E755FE4F9E
:1023D000998190838F5F8093A8018093A70105C0A6
:1023E00061E0CE0101960E94371281E090E00F90EB
:1023F000DF91CF910895FC011382128248EE53E0E1
:1024000060E070E0448355836683778389E091E0E0
:102410009183808308951092CA011092C90110928D
:10242000A8011092A7010C9419128AE991E00C946A
:10243000FB111092580281E08093560210925502CF
:1024400061E082E10E94DC1461E083E10E94DC141F
:10245000E9EBF0E080818E7F808380818D7F8083B7
:1024600088E48093B80085E48093BC0008956132CD
:1024700098F420915802243089F460930D02FC01F5
:102480008FE092E0DC012A2F281B261718F42191F7
:102490002D93F9CF80E0089581E0089582E00895BA
:1024A00085ED8093BC008091BC0084FDFCCF109230
:1024B0005802089585EC8093BC001092580208954C
:1024C0001F920F920FB60F9211242F933F934F93A9
:1024D0005F936F937F938F939F93AF93BF93EF938C
:1024E000FF938091B900887F803609F49CC068F51D
:1024F000883209F45BC090F4803109F454C038F498
:10250000882309F4F5C0883009F44DC0F5C088313E
:1025100009F44CC0803209F45DC0EEC0803409F487
:1025200068C048F4803309F455C0883309F0E4C02A
:102530008093EB01A8C0803509F44FC0883509F4B9
:102540005DC0883409F0D8C0D5C0883909F4C6C048
:10255000A8F4883709F467C038F4883609F463C0F2
:10256000803709F460C0C8C0883809F4B7C0803922
:1025700009F45FC0803809F0BFC05BC0803B09F43C
:1025800085C038F4803A09F466C0883A09F47EC000
:10259000B3C0803C09F4A6C0883C09F4A3C0883BC2
:1025A00009F489C0A9C08091570210C090913002EF
:1025B00080912F02981770F5E091300281E08E0F24
:1025C00080933002F0E0EF5CFD4F80818093BB0090
:1025D00085EC85C08093EB018DC0E091300281E0F5
:1025E0008E0F809330028091BB00F0E0EF5CFD4FD6
:1025F00080839091300280912F026DC0E091300273
:1026000081E08E0F809330028091BB00F0E0EF5CA0
:10261000FD4F80838091560281116CC081E08093D0
:10262000550284EA60C083E0809358021092EC0166
:10263000CFCF8091EC01803208F050C0E091EC01E6
:1026400081E08E0F8093EC018091BB00F0E0E351BC
:10265000FE4F8083BDCF8091EC01803230F4E09159
:10266000EC01F0E0E351FE4F10820E9450126091A5
:10267000EC0170E0E0915102F09152028DEE91E098
:1026800009951092EC010E945A1236C084E08093A2
:10269000580210920E0210920D02E0915302F09136
:1026A0005402099580910D02811105C081E080934B
:1026B0000D0210920F02E0910E0281E08E0F8093C6
:1026C0000E02F0E0E15FFD4F80818093BB009091AE
:1026D0000E0280910D02981708F47ACF85E8809356
:1026E000BC000AC085EC8093BC001092580204C064
:1026F0001092EB010E945012FF91EF91BF91AF91A8
:102700009F918F917F916F915F914F913F912F9109
:102710000F900FBE0F901F9018951F920F920FB63B
:102720000F9211242F933F938F939F93AF93BF9357
:1027300080915A0290915B02A0915C02B0915D027F
:102740003091590223E0230F2D3720F40196A11D6B
:10275000B11D05C026E8230F0296A11DB11D2093CF
:10276000590280935A0290935B02A0935C02B0934B
:102770005D0280915E0290915F02A0916002B09133
:1027800061020196A11DB11D80935E0290935F02CC
:10279000A0936002B0936102BF91AF919F918F911E
:1027A0003F912F910F900FBE0F901F9018953FB73C
:1027B000F89480915E0290915F02A0916002B091C6
:1027C000610226B5A89B05C02F3F19F00196A11DF7
:1027D000B11D3FBF6627782F892F9A2F620F711D79
:1027E000811D911D42E0660F771F881F991F4A9532
:1027F000D1F70895CF92DF92EF92FF92CF93DF93BC
:102800006B017C010E94D713EB01C114D104E104D8
:10281000F10489F00E94F5170E94D7136C1B7D0B01
:10282000683E734090F381E0C81AD108E108F108CE
:10283000C851DC4FEACFDF91CF91FF90EF90DF904E
:10284000CF900895789484B5826084BD84B581600A
:1028500084BD85B5826085BD85B5816085BDEEE6A8
:10286000F0E0808181608083E1E8F0E01082808187
:1028700082608083808181608083E0E8F0E08081F5
:1028800081608083E1EBF0E0808184608083E0EB15
:10289000F0E0808181608083EAE7F0E080818460FD
:1028A0008083808182608083808181608083808159
:1028B000806880831092C10008958E3008F08E5099
:1028C00087702091040190E4299F90011124822BAC
:1028D00080937C0080917A00806480937A0080915C
:1028E0007A0086FDFCCF809178002091790090E0FD
:1028F000922B0895833081F028F4813099F0823052
:10290000A1F008958730A9F08830B9F08430D1F46F
:10291000809180008F7D03C0809180008F778093AD
:102920008000089584B58F7702C084B58F7D84BD03
:1029300008958091B0008F7703C08091B0008F7DA3
:102940008093B0000895CF93DF9390E0FC01E25FA5
:10295000FE4F2491FC01EE5DFE4F8491882349F1E6
:1029600090E0880F991FFC01E65BFE4FA591B491A2
:10297000805C9E4FFC01C591D4919FB7611108C046
:10298000F8948C91209582238C93888182230AC0AD
:10299000623051F4F8948C91322F309583238C93CC
:1029A0008881822B888304C0F8948C91822B8C932D
:1029B0009FBFDF91CF9108950F931F93CF93DF9324
:1029C0001F92CDB7DEB7282F30E0F901E650FF4F58
:1029D0008491F901E25FFE4F1491F901EE5DFE4F23
:1029E00004910023C9F0882321F069830E947A149E
:1029F0006981E02FF0E0EE0FFF1FE05CFE4FA59134
:102A0000B4919FB7F8948C91611103C01095812304
:102A100001C0812B8C939FBF0F90DF91CF911F91AD
:102A20000F910895CF93DF93282F30E0F901E650FE
:102A3000FF4F8491F901E25FFE4FD491F901EE5D01
:102A4000FE4FC491CC2391F081110E947A14EC2F97
:102A5000F0E0EE0FFF1FEA5CFE4FA591B4912C91C0
:102A60002D2381E090E021F480E002C080E090E03E
:102A7000DF91CF910895FC01818D228D90E0805CE3
:102A80009F4F821B91098F7399270895FC01918DA7
:102A9000828D981731F0828DE80FF11D858D90E0C1
:102AA00008958FEF9FEF0895FC01918D828D981707
:102AB00061F0828DDF01A80FB11D5D968C91928D22
:102AC0009F5F9F73928F90E008958FEF9FEF08951F
:102AD00088ED96E1892B49F080E090E0892B29F080
:102AE0000E94D81681110C9400000895FC01848D79
:102AF000DF01A80FB11DA35ABF4F2C91848D90E028
:102B000001968F739927848FA689B7892C93A08902
:102B1000B1898C9180648C93938D848D981306C0B9
:102B20000288F389E02D80818F7D80830895CF9383
:102B3000DF93EC01888D8823C9F0EA89FB898081C5
:102B400085FD05C0A889B9898C9186FD0FC00FB697
:102B500007FCF5CF808185FFF2CFA889B9898C91D8
:102B600085FFEDCFCE010E947615E7CFDF91CF91A3
:102B70000895CF92DF92FF920F931F93CF93DF932D
:102B80001F92CDB7DEB76C0181E0D60158968C93C9
:102B900058975B969C915B975C968C915C97981389
:102BA00007C05096ED91FC915197808185FD2EC014
:102BB000F601038D10E00F5F1F4F0F731127F02EEA
:102BC000F601848DF81211C00FB607FCF9CFD601BB
:102BD0005096ED91FC915197808185FFF1CFC60110
:102BE00069830E9476156981EBCF838DE80FF11D13
:102BF000E35AFF4F6083D6015B960C935B97529626
:102C0000ED91FC915397808180620CC0D60156965D
:102C1000ED91FC91579760835096ED91FC915197FF
:102C200080818064808381E090E00F90DF91CF917C
:102C30001F910F91FF90DF90CF900895BF92CF9298
:102C4000DF92EF92FF92CF93DF93EC016A017B0159
:102C5000B22EE889F98982E08083411581EE580718
:102C600061057105A1F060E079E08DE390E0A701D6
:102C700096010E94641B2150310941095109569562
:102C8000479537952795211580E1380798F0E88911
:102C9000F989108260E874E88EE190E0A70196015E
:102CA0000E94641B215031094109510956954795ED
:102CB00037952795EC85FD853083EE85FF8520834C
:102CC000188EEC89FD89B082EA89FB898081806158
:102CD0008083EA89FB89808188608083EA89FB8917
:102CE000808180688083EA89FB8980818F7D8083F1
:102CF000DF91CF91FF90EF90DF90CF90BF9008953C
:102D00001F920F920FB60F9211242F938F939F93C0
:102D1000EF93FF93E0917202F09173028081E09152
:102D20007802F091790282FD12C0908180917B023D
:102D30008F5F8F7320917C02821751F0E0917B02AC
:102D4000F0E0EE59FD4F958F80937B0201C08081AA
:102D5000FF91EF919F918F912F910F900FBE0F9048
:102D60001F9018951F920F920FB60F9211242F9358
:102D70003F934F935F936F937F938F939F93AF9303
:102D8000BF93EF93FF9382E692E00E947615FF9146
:102D9000EF91BF91AF919F918F917F916F915F91D3
:102DA0004F913F912F910F900FBE0F901F9018954C
:102DB00082E692E00E943B1521E0892B09F420E095
:102DC000822F0895109265021092640288EE93E0BB
:102DD000A0E0B0E08093660290936702A09368023F
:102DE000B093690289E191E090936302809362025B
:102DF00085EC90E090936F0280936E0284EC90E0FB
:102E0000909371028093700280EC90E09093730233
:102E10008093720281EC90E090937502809374022B
:102E200082EC90E0909377028093760286EC90E0BB
:102E3000909379028093780210927B0210927C0228
:102E400010927D0210927E02089508950E9422142D
:102E50000E9425170E940201C8E6D5E10E940601E2
:102E60002097E1F30E946815F9CFCF92DF92EF929D
:102E7000FF920F931F93CF93DF936C017A01EB01C5
:102E8000E60EF71E00E010E0CE15DF0561F0699157
:102E9000D601ED91FC910190F081E02DC6010995DC
:102EA000080F191FF1CFC801DF91CF911F910F912A
:102EB000FF90EF90DF90CF9008956115710581F03C
:102EC000DB010D900020E9F7AD0141505109461B8F
:102ED000570BDC01ED91FC910280F381E02D099408
:102EE00080E090E00895EF92FF920F931F93CF93AD
:102EF000DF938C01FB01C0E0D0E064917F018FEF94
:102F0000E81AF80A662361F0D801ED91FC9101906E
:102F1000F081E02DC8010995C80FD91FF701EDCF49
:102F2000CE01DF91CF911F910F91FF90EF90089507
:102F300065E271E00C945D170F931F93CF93DF93BD
:102F4000EC010E9473178C01CE010E949817800F2C
:102F5000911FDF91CF911F910F9108954F925F9232
:102F60006F927F92AF92BF92CF92DF92EF92FF92D9
:102F70000F931F93CF93DF93CDB7DEB729013A01AB
:102F8000621B730B840B950B29893A894B895C89E9
:102F90002A193B094C095D09298B3A8B4B8B5C8BB9
:102FA0009B01AC0169897A898B899C890E94481BA5
:102FB000E418F50806091709A80197010E94861B65
:102FC0002A0D3B1D4C1D5D1DCA01B901DF91CF913A
:102FD0001F910F91FF90EF90DF90CF90BF90AF9037
:102FE0007F906F905F904F90089508955058BB2741
:102FF000AA270ED030C2F9D130F0FED120F031F442
:103000009F3F11F41EF4B8C10EF4E095E7FBAEC18A
:10301000E92F43D280F3BA17620773078407950735
:1030200018F071F49EF55BC20EF4E0950B2EBA2FEA
:10303000A02D0B01B90190010C01CA01A0011124BE
:10304000FF27591B99F0593F50F4503E68F11A166A
:10305000F040A22F232F342F4427585FF3CF4695FB
:1030600037952795A795F0405395C9F77EF41F161D
:10307000BA0B620B730B840BBAF09150A1F0FF0FE7
:10308000BB1F661F771F881FC2F70EC0BA0F621FD3
:10309000731F841F48F4879577956795B795F795C3
:1030A0009E3F08F0B3CF9395880F08F09927EE0F55
:1030B0009795879508959F939F77EEE389379E07AD
:1030C00020F4E8E6F0E080D109C011D19058A2EADE
:1030D0002AED3FE049EC5FE39BDFBDD10F9007FC99
:1030E00090580895DF93DD27B92FBF7740E85FE35D
:1030F0001616170648075B0710F4D92FFBD19F93CC
:103100008F937F936F93A8D2ECE7F0E038D1A3D1EF
:103110002F913F914F915F9100D2DD2349F090585C
:10312000A2EA2AED3FE049EC5FE3D0785D2770DF4B
:10313000DF9191C1F7D008F481E0089565D1E3955E
:103140009BC10CD088C158D140F04FD130F021F450
:103150005F3F19F00BC15111C3C10EC19ED198F34D
:103160009923C9F35523B1F3951B550BBB27AA2708
:1031700062177307840738F09F5F5F4F220F331F7A
:10318000441FAA1FA9F333D00E2E3AF0E0E830D046
:1031900091505040E695001CCAF729D0FE2F27D049
:1031A000660F771F881FBB1F261737074807AB0717
:1031B000B0E809F0BB0B802DBF01FF2793585F4F8C
:1031C0002AF09E3F510568F0D1C08AC15F3FECF301
:1031D000983EDCF3869577956795B795F7959F5F51
:1031E000C9F7880F911D9695879597F90895E1E0A5
:1031F000660F771F881FBB1F621773078407BA0704
:1032000020F0621B730B840BBA0BEE1F88F7E0955E
:10321000089504D06894B11163C1089546D188F02F
:103220009F5790F0B92F9927B751A0F0D1F0660FB2
:10323000771F881F991F1AF0BA95C9F712C0B130CD
:1032400081F04DD1B1E008954AC1672F782F8827CA
:10325000B85F39F0B93FCCF3869577956795B3950C
:10326000D9F73EF490958095709561957F4F8F4F7B
:103270009F4F0895E89409C097FB3EF49095809580
:10328000709561957F4F8F4F9F4F9923A9F0F92F2C
:1032900096E9BB279395F695879577956795B795AA
:1032A000F111F8CFFAF4BB0F11F460FF1BC06F5F90
:1032B0007F4F8F4F9F4F16C0882311F096E911C0A2
:1032C000772321F09EE8872F762F05C0662371F0C3
:1032D00096E8862F70E060E02AF09A95660F771FD7
:1032E000881FDAF7880F9695879597F90895DF93E9
:1032F000CF931F930F938B01EC01E9EAF0E03FD0ED
:10330000AAD09801AE018B01EC0160E070E080E88A
:103310009FE36CDE63D19801AE010F911F91CF91B5
:10332000DF91FBC0990F0008550FAA0BE0E8FEEFF4
:1033300016161706E807F907C0F012161306E40779
:10334000F50798F0621B730B840B950B39F40A2672
:1033500061F0232B242B252B21F408950A2609F450
:10336000A140A6958FEF811D811D089597F99F6754
:1033700080E870E060E008959FEF80EC0895DF93AF
:10338000CF931F930F93FF92EF92DF927B018C01FB
:10339000689405C0DA2EEF01C0D0FE01E894A59133
:1033A0002591359145915591AEF3EF0131DEFE0146
:1033B0009701A801DA9479F7DF90EF90FF900F91D1
:1033C0001F91CF91DF9108959F938F937F936F9378
:1033D000FF93EF939B01AC0194D0EF91FF91CFDF6E
:1033E0002F913F914F915F918CC000240A94161643
:1033F000170618060906089500240A9412161306E3
:10340000140605060895B8CF50D0E8F3E894E0E03C
:10341000BB279F57F0F02AED3FE049EC06C0EE0FC6
:10342000BB0F661F771F881F28F0B23A6207730729
:10343000840728F0B25A620B730B840BE3959A95BC
:1034400072F7803830F49A95BB0F661F771F881F7C
:10345000D2F790480AC1092E0394000C11F4882376
:1034600052F0BB0F40F4BF2B11F460FF04C06F5F3C
:103470007F4F8F4F9F4F0895EF93E0FF06C0A2EA62
:103480002AED3FE049EC5FEBC3DDE5DF0F900394ED
:1034900001FC9058E1EDF0E097CF57FD9058440FB4
:1034A000551F59F05F3F71F04795880F97FB991FA3
:1034B00061F09F3F79F08795089512161306140660
:1034C000551FF2CF4695F1DF08C0161617061806ED
:1034D000991FF1CF86957105610508940895E894C8
:1034E000BB2766277727CB0197F908951BDF08F4E0
:1034F0008FEF08959B01AC0160E070E080E89FE3EE
:1035000020CE0BD0A8CF71DF28F076DF18F09523FE
:1035100009F02CCF31CF1124E3CFBFDFA0F3959F6B
:10352000D1F3950F50E0551F629FF001729FBB27AA
:10353000F00DB11D639FAA27F00DB11DAA1F649F56
:103540006627B00DA11D661F829F2227B00DA11D09
:10355000621F739FB00DA11D621F839FA00D611D8F
:10356000221F749F3327A00D611D231F849F600DB0
:10357000211D822F762F6A2F11249F5750408AF0E9
:10358000E1F088234AF0EE0FFF1FBB1F661F771F75
:10359000881F91505040A9F79E3F510570F0E6CE2C
:1035A0009FCF5F3FECF3983EDCF386957795679568
:1035B000B795F795E7959F5FC1F7FE2B880F911D93
:1035C0009695879597F908959F931EDF0F9007FCB6
:1035D000EE5F52CF11F40EF4CFCE45C066DFD0F3CC
:1035E0009923D9F3CEF39F57550B87FF4AD0002478
:1035F000A0E640EA900180585695979528F4805CA3
:10360000660F771F881F20F026173707480730F40A
:10361000621B730B840B202931294A2BA695179422
:103620000794202531254A2758F7660F771F881FF2
:1036300020F026173707480730F4620B730B840B12
:10364000200D311D411DA09581F7B901842F91589E
:10365000880F9695879508959B01AC0152CF62DE45
:10366000880B990B08959F3F31F0915020F4879576
:1036700077956795B795880F911D9695879597F9DA
:10368000089591505040660F771F881FD2F7089514
:10369000DB018F939F930E94A51BBF91AF91A29FC7
:1036A000800D911DA39F900DB29F900D1124089540
:1036B000991B79E004C0991F961708F0961B881F84
:1036C0007A95C9F780950895A1E21A2EAA1BBB1B13
:1036D000FD010DC0AA1FBB1FEE1FFF1FA217B307DE
:1036E000E407F50720F0A21BB30BE40BF50B661FF4
:1036F000771F881F991F1A9469F7609570958095B8
:1037000090959B01AC01BD01CF010895052E97FB5B
:103710001EF400940E949D1B57FD07D00E94641B5D
:1037200007FC03D04EF40C949D1B509540953095AA
:1037300021953F4F4F4F5F4F08959095809570951D
:1037400061957F4F8F4F9F4F08950E94B61BA59F95
:10375000900DB49F900DA49F800D911D112408958C
:10376000EE0FFF1F0590F491E02D0994A29FB00188
:10377000B39FC001A39F700D811D1124911DB29FA5
:10378000700D811D1124911D0895F999FECF92BDF0
:0E37900081BDF89A992780B50895F894FFCF6F
:10379E00010000000100000000CC119F1174117C8B
:1037AE00118F119E1100000000B91535173B1554ED
:1037BE0015461597150D0A006E616E00696E66004E
:0637CE006F7666002E007C
:00000001FF
