:100000000C94CD000C94F5000C94F5000C94F500C4
:100010000C94F5000C94F5000C94F5000C94F5008C
:100020000C94F5000C94F5000C94F5000C944F051D
:100030000C94F5000C94F5000C94F5000C94F5006C
:100040000C9406180C94F5000C94F91A0C942B1BC4
:100050000C94F5000C94F5000C94F5000C94F5004C
:100060000C94D9160C94F500036EDB363D9A9999E1
:10007000993DABAAAA2A3E000000803F084AD73B20
:100080003BCE016E84BCBFFDC12F3D6C74319ABD67
:1000900056833DDA3D00C77F11BED9E4BB4C3E918B
:1000A0006BAAAABE000000803F072C7AA5BA6CC5D7
:1000B00090DA3B9365FC8BBC53F810FD3C56928361
:1000C0004DBD879D3AB63DCBC9BF5BBE73DA0FC944
:1000D0003F05A84CCDB2D44EB93836A9020C50B960
:1000E000918688083CA6AAAA2ABE000000803F008C
:1000F000496E636F7272656374000000000800024D
:1001000001000003040700000000000000000102DD
:100110000408102040800102040810200102040895
:100120001020040404040404040402020202020273
:10013000030303030303000000002300260029003B
:1001400000000000250028002B0000000000240013
:1001500027002A004E414E494E495459494E46CD3A
:10016000CCCC3D0AD7233C17B7D13877CC2B32956E
:1001700095E6241FB14F0A000020410000C842004C
:10018000401C4620BCBE4CCA1B0E5AAEC59D740016
:10019000BB04E9158E165B1BC10411241FBECFEFF3
:1001A000D8E0DEBFCDBF12E0A0E0B1E0E0EFFEE4BA
:1001B00002C005900D92AC37B107D9F724E0ACE747
:1001C000B2E001C01D92A235B207E1F711E0C8E923
:1001D000D1E004C02297FE010E945A23C039D10702
:1001E000C9F70E949F1B0C946B270C94000088EAAF
:1001F00092E00E94D81564E670E08CE792E00C94DF
:10020000D11C2F923F924F925F926F927F928F926A
:100210009F92AF92BF92CF92DF92EF92FF920F9395
:100220001F93CF93DF93CDB7DEB764970FB6F894E3
:10023000DEBF0FBECDBF8C012DB73EB73C8B2B8BE5
:10024000E12CF12C212C312CD80114968D919C910C
:100250001597E816F90678F4B701C8010E94E71D62
:10026000DC018C91883219F4BFEF2B1A3B0AEFEFB7
:10027000EE1AFE0AE9CFC101880F991F880F991F56
:10028000EDB7FEB7E81BF90B0FB6F894FEBF0FBE33
:10029000EDBF2DB73EB72F5F3F4F7901C12CD12C59
:1002A000A12CB12CD80114968D919C911597C8164C
:1002B000D90648F5B601C8010E94E71DDC018C9102
:1002C000883249F4F501EE0FFF1FEE0FFF1FEE0D10
:1002D000FF1DD182C082B601C8010E94E71DFC014A
:1002E0008081893261F4F501EE0FFF1FEE0FFF1FD1
:1002F000EE0DFF1DD382C282FFEFAF1ABF0A2FEFB0
:10030000C21AD20ACFCF86E0829DF001839DF00D04
:100310001124F88BEF872DB73EB72E1B3F0B0FB67E
:10032000F8943EBF0FBE2DBF8DB79EB701969E8736
:100330008D875C01C12CD12CC214D30461F06CE612
:1003400072E0C5010E940E1D96E0A90EB11CAFEF30
:10035000CA1ADA0AF1CFCD84DE84612C712C6214C2
:100360007304DCF5F7012281338140815181B801AA
:10037000CE0101960E945A1EBE016F5F7F4FC601DB
:100380000E94241DCE0101960E94A01C6CE672E022
:10039000CE0101960E940E1D6BE071E0CE01079622
:1003A0000E940E1DAE014F5F5F4FBE01695F7F4F20
:1003B000C6010E949F1ECE0107960E94A01CCE017E
:1003C00001960E94A01CFFEF6F1A7F0A24E0E20E44
:1003D000F11C36E0C30ED11CC2CFC10124E0880F4E
:1003E000991F2A95E1F7ADB7BEB7A81BB90B0FB699
:1003F000F894BEBF0FBEADBFEDB7FEB73196FA8B16
:10040000E98B6D847E842F01812C912C82149304BE
:100410002CF069887A88412C512CBFC1C12CD12C79
:10042000EE24EA94FE2C0FEF1FEFAA24AA94BA2C14
:10043000D30114968D919C911597C816D906B8F4DE
:10044000B601C3010E940A1E8C3269F4FFEFAF1699
:10045000BF0631F00F3F2FEF120721F4860103C0D2
:10046000560101C076013FEFC31AD30AE1CFBFEFB7
:10047000AB16BB0609F4B2C00F3FEFEF1E0709F43D
:1004800049C1FFEFEF16FF0609F04AC0D2011D92E5
:100490001D921D921C921397950140E050E0B3010C
:1004A000CE0101960E945A1ECE0101960E94921F13
:1004B000F2016483758386839783CE0101960E943F
:1004C000A01CA5014F5F5F4F9801B301CE010196BB
:1004D0000E945A1ECE0101960E94921FD2011896C8
:1004E0006D937D938D939C931B97CE0101960E94F3
:1004F000A01CF30124813581A8014F5F5F4FB30138
:10050000CE0101960E945A1ECE0101960E94921FB2
:10051000D2011C966D937D938D939C931F9759C028
:10052000950140E050E0B301CE0101960E945A1EB1
:10053000CE0101960E94921FF20160837183828333
:100540009383CE0101960E94A01CA5014F5F5F4FCF
:100550009801B301CE0101960E945A1ECE01019668
:100560000E94921FD20114966D937D938D939C935C
:100570001797CE0101960E94A01CA8014F5F5F4F04
:100580009701B301CE0101960E945A1ECE01019639
:100590000E94921FF2016087718782879387CE0144
:1005A00001960E94A01CD30114962D913C911597A1
:1005B000A7014F5F5F4FB301CE0101960E945A1E03
:1005C000CE0101960E94921FF2016487758786878B
:1005D0009787CE0101960E94A01C9CC00F3F1F4F21
:1005E00009F098C0EF20E09409F094C06DE071E04C
:1005F000CE0101960E940E1DBE016F5F7F4FC301A9
:100600000E94AE1D182FCE0101960E94A01C11233E
:1006100029F080E090E0A0E0B0E477C06CE171E008
:10062000CE0101960E940E1DBE016F5F7F4FC30178
:100630000E94AE1D182FCE0101960E94A01C11230E
:1006400029F080E090E0A0E4B0E45FC065E271E0F2
:10065000CE0101960E940E1DBE016F5F7F4FC30148
:100660000E94AE1D182FCE0101960E94A01C1123DE
:1006700029F080E090E0A0E8B0E447C06FE071E0CE
:10068000CE0101960E940E1DBE016F5F7F4FC30118
:100690000E94AE1D182FCE0101960E94A01C1123AE
:1006A00029F080E090E0A0EAB0E42FC061E171E0C1
:1006B000CE0101960E940E1DBE016F5F7F4FC301E8
:1006C0000E94AE1D182FCE0101960E94A01C11237E
:1006D00029F080E090E0A0ECB0E417C063EC71E09A
:1006E000CE0101960E940E1DBE016F5F7F4FC301B8
:1006F0000E94AE1D182FCE0101960E94A01C11234E
:1007000049F080E090E0A0EEB0E4F20180839183B4
:10071000A283B383FFEF8F1A9F0A20E1420E511C80
:1007200036E0630E711C72CED301CD90DD90ED905A
:10073000FC9020E030E0A901C701B6010E944220F0
:1007400081112FC0F301C484D584E684F784008529
:1007500011852285338544815581668177811F9279
:100760001F92F0E4FF931F921F921F9282E08F93DB
:10077000812C912C540188EA92E00E948A11ADB735
:10078000BEB717960FB6F894BEBF0FBEADBFBFEF92
:100790004B1A5B0AE0E16E0E711C4214530424F202
:1007A000B9C020E030E040E85FE3C701B6010E9435
:1007B0004220811118C0F301C484D584E684F784F3
:1007C0000085118522853385448155816681778135
:1007D0001F921F92FFE3FF9380E88F931F921F9257
:1007E00093E09F93C5CF20E030E040E050E4C701A4
:1007F000B6010E944220811105C088EA92E00E9461
:10080000D215C5CF20E030E040E450E4C701B60186
:100810000E944220811107C088EA92E00E94571589
:1008200066E171E072C020E030E040E850E4C701CA
:10083000B6010E944220811107C088EA92E00E941E
:1008400067156EE171E061C020E030E040EA50E4FD
:10085000C701B6010E94422081110AC02AE044E18A
:100860006AE088EA92E00E947F0767E271E04DC08B
:1008700020E030E040EC50E4C701B6010E94422085
:10088000811133C06DE271E08EEA93E00E94471C53
:1008900061E571E08EEA93E00E94471C67E771E032
:1008A0008EEA93E00E94471C61EB71E08EEA93E0D0
:1008B0000E94471C65EC71E08EEA93E00E94471CA1
:1008C00067ED71E08EEA93E00E94471C6AEE71E0EA
:1008D0008EEA93E00E94471C6BEF71E08EEA93E092
:1008E0000E94471C63E172E010C020E030E040EE5F
:1008F00050E4C701B6010E944220811148CF88EA26
:1009000092E00E94BA076CE372E08EEA93E00E94E4
:10091000471C3DCF0F8518892D853E85020F131F7B
:100920008D859E850817190731F006501109C801F9
:100930000E94A01CF5CFAB89BC890FB6F894BEBF4E
:100940000FBEADBF64960FB6F894DEBF0FBECDBF2D
:10095000DF91CF911F910F91FF90EF90DF90CF909B
:10096000BF90AF909F908F907F906F905F904F90CF
:100970003F902F9008956CE672E08CE792E00C9423
:100980000E1D8CE792E00C94A01C1F93CF93DF9375
:10099000CDB7DEB72C970FB6F894DEBF0FBECDBF34
:1009A0008EEA93E00E94B419892B61F18EEA93E0FC
:1009B0000E94CD19182F682F8CE792E00E94881DA5
:1009C0001A3071F76CE672E0CE0101960E940E1D9E
:1009D0006BE672E0CE0107960E940E1DAE014F5FDE
:1009E0005F4FBE01695F7F4F8CE792E00E949F1EC0
:1009F000CE0107960E94A01CCE0101960E94A01C69
:100A000081E000C02C960FB6F894DEBF0FBECDBFBC
:100A1000DF91CF911F910895CF93DF9300D000D045
:100A200000D0CDB7DEB762E370E080E090E00E94D6
:100A300073180E94C504882349F167E472E0CE016F
:100A400001960E940E1D6CE772E0CE0101960E9495
:100A50009B1DBC018EEA93E00E94351CCE010196DD
:100A60000E94A01C6CE772E0CE0101960E943B1D23
:100A7000CE0101960E940101CE0101960E94A01CA8
:100A80006CE672E08CE792E00E94441D26960FB659
:100A9000F894DEBF0FBECDBFDF91CF9108951F92B6
:100AA0000F920FB60F9211242F933F934F935F93A2
:100AB0006F937F938F939F93AF93BF93EF93FF9326
:100AC0008091830287FF05C01092850010928400F8
:100AD0001AC020918302332727FD3095809182022E
:100AE00090E0281739077CF480918302992787FDCD
:100AF0009095FC01EE0FFF1FE80FF91FEC57FD4F1B
:100B0000808186FD15C0809183028F5F8093830270
:100B100020918302332727FD30958091820290E057
:100B200028173907BCF4809183028C305CF112C025
:100B300080918302992787FD9095FC01EE0FFF1F9E
:100B4000E80FF91FEC57FD4F808160E08F730E9422
:100B50005519D9CF809184009091850004968034F6
:100B60009C4918F480E49CE905C080918400909130
:100B70008500049690938900809388008FEF80937E
:100B8000830238C0209184003091850080918302D7
:100B9000992787FD9095FC01EE0FFF1FE80FF91FC5
:100BA000EC57FD4F81819281820F931F90938900B2
:100BB0008093880080918302992787FD9095FC019E
:100BC000EE0FFF1FE80FF91FEC57FD4F808186FFE6
:100BD00011C080918302992787FD9095FC01EE0F4B
:100BE000FF1FE80FF91FEC57FD4F808161E08F7305
:100BF0000E945519FF91EF91BF91AF919F918F91F5
:100C00007F916F915F914F913F912F910F900FBE08
:100C10000F901F901895209182022C30A0F431E0A3
:100C2000320F30938202FC012083822F90E0FC017E
:100C3000EE0FFF1FE80FF91FEC57FD4F88EB9BE00D
:100C40009283818308952FEFFC0120830895DF9222
:100C5000EF92FF920F931F93CF93DF93EC01D62E69
:100C60007A01890188818C3008F066C061E08D2DA1
:100C70000E941C198881A82FB0E0FD01EE0FFF1F14
:100C8000EA0FFB1FEC57FD4F2D2D2F739081907CA9
:100C9000922B908360E272E06E197F0977FF02C0A9
:100CA0006D5F7F4F7595679575956795698340E68C
:100CB00059E0401B510B57FF02C04D5F5F4F5595E8
:100CC0004795559547954A836CE00E9400239CE028
:100CD000899FB001112420E030E0A901460F571F81
:100CE000FA01EE0FFF1FE40FF51FEC57FD4F908147
:100CF00096FD16C02F5F3F4F2C30310571F78111E3
:100D00000FC01092800082E08093810010928500D5
:100D100010928400B19A80916F00826080936F007E
:100D2000888190E0FC01EE0FFF1FE80FF91FEC57E0
:100D3000FD4F8081806480838881DF91CF911F91F6
:100D40000F91FF90EF90DF90089520E639E040E2A8
:100D500052E00C942706FC01808190E0FC01EE0F2C
:100D6000FF1FE80FF91FEC57FD4F80818F7B8083B9
:100D70000895FC0180818C3070F5918128E830E085
:100D8000291B310997FD3395220F331F220F331F83
:100D9000621773077CF0928128E532E0291B310944
:100DA00097FD3395220F331F220F331F62177307EE
:100DB0000CF49B0122503109220F331F4FB7F894D6
:100DC00090E0FC01EE0FFF1FE80FF91FEC57FD4FFD
:100DD000328321834FBF08954F925F926F927F922B
:100DE000AF92BF92CF92DF92EF92FF920F931F9339
:100DF000CF93DF93EC01603282E078070CF040C0C3
:100E000077FD06C0653B71052CF064EB70E002C015
:100E100060E070E0898128E830E0281B310987FD17
:100E20003395220F331F220F331F5901CC24B7FCF7
:100E3000C094DC2C882777FD8095982F2A8148E57F
:100E400052E0421B510927FD5395440F551F440F93
:100E5000551F2A01662457FC6094762C7F926F926E
:100E60005F924F9214EBE12EF12C00E010E020E0B5
:100E700030E0A9010E94591C0F900F900F900F9025
:100E8000CE01DF91CF911F910F91FF90EF90DF90F6
:100E9000CF90BF90AF907F906F905F904F900C94E9
:100EA000B906FC01808190E0FC01EE0FFF1FE80F06
:100EB000F91FEC57FD4F808186FB882780F9089544
:100EC0000C94AE25CF93DF93EC018B960E940B061A
:100ED000CE018E960E940B06CE01C1960E940B0693
:100EE000CE01C4960E940B06CE01C7960E940B0647
:100EF0001AAE1BAE1CAE1DAEDF91CF9108958F923E
:100F00009F92AF92BF92CF92DF92EF92FF920F9398
:100F10001F93CF93DF9300E010E0C62FD0E0C22EE6
:100F2000D12CE12CF12C842E912CA12CB12C0C175E
:100F30001D079CF4C701B6010E94731861E083E0AD
:100F40000E945519C501B4010E94731860E083E046
:100F50000E9455190F5F1F4FEACFDF91CF911F916C
:100F60000F91FF90EF90DF90CF90BF90AF909F9048
:100F70008F900895CF93DF93EC018B960E94AB0680
:100F8000CE018E960E94AB06CE01C1960E94AB06A2
:100F9000CE01C496DF91CF910C94AB06CF92DF9235
:100FA000EF92FF920F931F93CF93DF93EC018FEF9C
:100FB000860F833070F5062F10E0045D1F4F000F81
:100FC000111FC80101960E946007682F70E080E041
:100FD00090E00E94E42020E030E040E251E40E94F2
:100FE00049206B017C016AAF7BAF8CAF9DAFC8011C
:100FF0000E946007811108C0F7FAF094F7F8F094A6
:10100000CAAEDBAEECAEFDAE5AAD4BAD3CAD2DADD8
:101010000CC0643031F060EF70E08EEA93E00E9423
:10102000231C50E040E030E020E0652F742F832F38
:10103000922FDF91CF911F910F91FF90EF90DF9052
:10104000CF900895CF92DF92EF92FF921F93CF93AC
:10105000DF93EC01162F69017A010E94CE079B01F4
:10106000AC01C701B6010E949F1F20E030E0A9013A
:101070000E94422087FF12C0612FCE010E94CE073E
:101080009B01AC01C701B6010E949F1F20E030E028
:10109000A9010E94422087FF37C034C0612FCE01D2
:1010A0000E94CE079B01AC01C701B6010E949F1FA1
:1010B00020E030E044E353E40E941E221816E4F2DC
:1010C000612FCE010E94CE079B01AC01C701B60182
:1010D0000E949F1F20E030E0A9010E941E2287FF8E
:1010E000CBCF612FCE010E94CE079B01AC01C7017F
:1010F000B6010E949F1F20E030E0A9010E9442201B
:1011000087FF25C060E04BC0612FCE010E94CE0753
:101110009B01AC01C701B6010E949F1F20E030E097
:1011200044E353E40E941E221816B4F1612FCE014D
:101130000E94CE079B01AC01C701B6010E949F1F10
:1011400020E030E040E05FE30E949F1F22C0612F5B
:10115000CE010E94CE079B01AC01C701B6010E94DF
:101160009F1F20E030E044E353E40E941E22181643
:10117000ACF0612FCE010E94CE079B01AC01C701EC
:10118000B6010E949F1F20E030E040E05FE30E9434
:101190009E1F0E94B12003C064EB01C063EB862F49
:1011A000DF91CF911F91FF90EF90DF90CF90089546
:1011B0002F923F924F925F926F927F928F929F9267
:1011C000AF92BF92CF92DF92EF92FF920F931F9355
:1011D000CF93DF931C012A013B01122F822F90E055
:1011E000019726E0289FE001299FD00D1124CE0110
:1011F000CD960E946007F82ECE01CE960E94600721
:10120000682F70E0762F66276F0D711D882777FD98
:101210008095982F0E94E42020E030E040E251E4E5
:101220000E9449206B017C01CE01CC960E94600790
:10123000811104C0F7FAF094F7F8F094CE01805CC5
:101240009F4F0E946007982ECE018F5B9F4F0E9498
:101250006007682F70E0762F6627690D711D88275B
:1012600077FD8095982F0E94E42020E030E048EC44
:1012700052E40E9449204B015C01CE01CF960E94AE
:101280006007811104C0B7FAB094B7F8B0940111A7
:1012900019C0A3019201C501B4010E9429229B013A
:1012A000AC01C701B6010E949F1F6B017C01612F39
:1012B000C1010E94CE079B01AC01C701B6010E948B
:1012C0009E1F0EC0013081F4A3019201C501B4013B
:1012D0000E9429229B01AC01C701B6010E949F1FF9
:1012E000562F472F382F292F652F742F832F922F9A
:1012F000DF91CF911F910F91FF90EF90DF90CF90F2
:10130000BF90AF909F908F907F906F905F904F9025
:101310003F902F9008950F93CF93DF93EC01042F0C
:10132000623021F188F4613009F042C082E00E940D
:10133000D618BC01882777FD8095982F0E94E4205D
:10134000AB01BC0121E02DC06330F1F0643081F5C8
:1013500083E00E94D618BC01882777FD8095982FDE
:101360000E94E420AB01BC0124E01BC080E00E948D
:10137000D618BC01882777FD8095982F0E94E4201D
:10138000AB01BC0122E00DC081E00E94D618BC0177
:10139000882777FD8095982F0E94E420AB01BC013F
:1013A00023E0CE010E94D808562F472F382F292F2F
:1013B000652F742F832F922FDF91CF910F91089576
:1013C00040E00C948B090F931F93CF93DF93EC01B4
:1013D0008C01055D1F4FC8010E94510781110DC08E
:1013E0006BE070E0C8010E94A50661E0CE010E949A
:1013F000E009688379838A839B838E01025D1F4F96
:10140000C8010E94510781110DC06DE070E0C80154
:101410000E94A50662E0CE010E94E0096C837D83F4
:101420008E839F838E010F5C1F4FC8010E9451075E
:1014300081110DC06CE070E0C8010E94A50663E058
:10144000CE010E94E009688779878A879B878E0191
:101450000C5C1F4FC8010E94510781110DC06AE04A
:1014600070E0C8010E94A50664E0CE010E94E00978
:101470006C877D878E879F87DF91CF911F910F911A
:1014800008952F923F924F925F926F927F928F9228
:101490009F92AF92BF92CF92DF92EF92FF920F9303
:1014A0001F93CF93DF9300D000D01F92CDB7DEB74C
:1014B0001C0149835A836B837C83280139010E9474
:1014C000E30920E030E040E251E4C301B2010E94B0
:1014D000422087FD11C020E030E040EF52E4C3011C
:1014E000B2010E941E2218166CF4412C512C50EFB0
:1014F000652E52E4752E06C0412C512C60E2662EFA
:1015000061E4762E20E030E040E251E4C701B6010C
:101510000E94422087FD11C020E030E04CED52E4F3
:10152000C701B6010E941E2218166CF4C12CD12CE2
:101530003CEDE32E32E4F32E06C0C12CD12C40E268
:10154000E42E41E4F42EA7019601C301B2010E94EA
:101550009F1F20E030E040E253E40E941E22181654
:101560000CF44FC029813A814B815C8161E0C1015B
:101570000E942208782FA301920162E0C1017D83BD
:101580000E942208182FA701960163E0C1010E9462
:101590002208082FA501940164E0C1010E942208DD
:1015A000282F7D81672F70E0C1018B962D830E94CB
:1015B000EC06612F70E0C1018E960E94EC06602F50
:1015C00070E0C101C1960E94EC062D81622F70E08F
:1015D000C101C4960E94EC0689819A81AB81BC81CD
:1015E000F10180839183A283B38344825582668212
:1015F0007782C086D186E286F38684869586A68623
:10160000B7860F900F900F900F900F90DF91CF91B2
:101610001F910F91FF90EF90DF90CF90BF90AF9010
:101620009F908F907F906F905F904F903F902F9002
:1016300008952F923F924F925F926F927F928F9276
:101640009F92AF92BF92CF92DF92EF92FF920F9351
:101650001F93CF93DF93CDB7DEB728970FB6F894DB
:10166000DEBF0FBECDBF1C014D835E836F837887C5
:10167000C901B80126EE3EE245E652E40E94492047
:101680004B015C010E9446202B013C0126EE3EE20C
:1016900045E652E4C701B6010E9449206B017C0176
:1016A0000E94462069837A838B839C8323E333E300
:1016B0004DE651E4C301B2010E9429222EEE3CE71F
:1016C00047E050E40E949F1F2B013C0126EF38E2C7
:1016D00040E851E469817A818B819C810E942922B2
:1016E0009B01AC01C301B2010E949F1F69837A83F1
:1016F0008B839C8326EE3EE245E652E46D817E813B
:101700008F8198850E9449202B013C010E94462030
:10171000905829813A814B815C810E942922F101F4
:10172000648F758F868F978F20E030E0A901C30109
:10173000B2010E941E22181624F0C301B201905873
:1017400002C0C301B2010E948C22905829813A81C3
:101750004B815C810E942922F10160A371A382A3C5
:1017600093A320E030E0A901C501B4010E941E222C
:10177000181624F0C501B401905802C0C501B40187
:101780000E948C2223E333E34DE651E40E94292298
:1017900026E83BEE43E351E40E949F1F4B015C01AE
:1017A00020E030E0A901C701B6010E941E221816F0
:1017B00024F0C701B601905802C0C701B6010E94CB
:1017C0008C2226EF38E240E851E40E9429229B0156
:1017D000AC01C501B4010E949E1FF10164A375A371
:1017E00086A397A328960FB6F894DEBF0FBECDBF91
:1017F000DF91CF911F910F91FF90EF90DF90CF90ED
:10180000BF90AF909F908F907F906F905F904F9020
:101810003F902F9008952F923F924F925F926F9238
:101820007F928F929F92AF92BF92CF92DF92EF9270
:10183000FF920F931F93CF93DF93CDB7DEB76297DD
:101840000FB6F894DEBF0FBECDBF4A015B01C901E0
:10185000B8011C2DA50194010E949E1F69837A8303
:101860008B839C83E98AFA8A212C312CDC01CB0101
:10187000B0588D839E83AF83B887622D123009F4F0
:1018800041C0E0F4112309F4BAC0113009F00CC1D1
:10189000B101882777FD8095982F0E94E4209B0155
:1018A000AC0169817A818B819C810E94292220E090
:1018B00030E048E452E40E94492095C0133009F416
:1018C0006EC0143009F0F0C070E080E090E00E943B
:1018D000E22020E030E048E452E40E9449202B015D
:1018E0003C019B01AC016D817E818F8198850E94B6
:1018F00029226B017C0120E030E040E050E4C3018C
:10190000B20169C0B101882777FD8095982F0E94A8
:10191000E42020E030E048EC51E40E9449202B0113
:101920003C0120E030E040E85FE30E94422087FF76
:101930000DC020E030E040E05FE369817A818B8177
:101940009C810E942922A30192013CC020E030E04A
:1019500040E85FE3C301B2010E949E1F2B013C01DE
:1019600020E030E040E05FE36D817E818F819885EB
:101970000E9429226B017C0120E030E040E050E42D
:10198000C301B2010E949E1F9B01AC01C301B201C1
:101990000E94292220E030E040E85FE31CC070E0B4
:1019A00080E090E00E94E22020E030E048E452E451
:1019B0000E9449202B013C019B01AC0169817A8185
:1019C0008B819C810E942922A30192010E942922DD
:1019D000A501940161C00E949E1F9B01AC01C7013B
:1019E000B6010E942922A50194010E949F1FA98986
:1019F000BA896D937D938D939C93139755C070E036
:101A000080E090E00E94E22020E030E048E452E4F0
:101A10000E9449202B013C019B01AC010E9429221C
:101A20006B017C0120E030E040E450E469817A8180
:101A30008B819C810E942922A70196010E94292264
:101A40009B01AC01C501B4010E949F1F69877A8781
:101A50008B879C8720E030E040E050EC69817A8100
:101A60008B819C810E9429226D877E878F87988B2E
:101A7000A3019201C701B6010E9429229B01AC017A
:101A80006D857E858F8598890E9429229B01AC01F6
:101A900069857A858B859C850E949F1FE989FA89D3
:101AA0006083718382839383FFEF2F1A3F0A8989B2
:101AB0009A8904969A8B898B92E32916310409F04E
:101AC000DCCE62960FB6F894DEBF0FBECDBFDF91BD
:101AD000CF911F910F91FF90EF90DF90CF90BF902B
:101AE000AF909F908F907F906F905F904F903F90BE
:101AF0002F9008954F925F926F927F928F929F9254
:101B0000AF92BF92CF92DF92EF92FF920F931F930B
:101B1000CF93DF9300D000D0CDB7DEB72A013B01D1
:101B2000C901B80126EE3EE245E652E40E94492092
:101B30000E94462069837A838B839C8326EE3EE253
:101B400045E652E4C701B6010E9449200E944620A2
:101B50004B015C0123E333E34DE651E469817A8173
:101B60008B819C810E9429222EEE3CE747E050E4C5
:101B70000E949F1F6B017C0126EF38E240E851E490
:101B8000C501B4010E9429229B01AC01C701B60125
:101B90000E949F1F4B015C0126EE3EE245E652E4A7
:101BA000C301B2010E9449206B017C0120E030E0BA
:101BB000A9010E941E22181624F0C701B6019058F0
:101BC00002C0C701B6010E948C229058A501940161
:101BD0000E9429220F900F900F900F90DF91CF91CC
:101BE0001F910F91FF90EF90DF90CF90BF90AF903B
:101BF0009F908F907F906F905F904F9008952F925D
:101C00003F924F925F926F927F928F929F92AF928C
:101C1000BF92CF92DF92EF92FF920F931F93CF93D9
:101C2000DF93CDB7DEB764970FB6F894DEBF0FBE73
:101C3000CDBF1C0149835A836B837C830D831E8334
:101C40002F8338872CE53FE844EC51E4C701B60107
:101C50000E941E2218169CF028E939E941E550EC53
:101C6000C701B6010E94422087FF11C0F8E9CF2EBC
:101C7000F9E9DF2EF1E5EF2EF0ECFF2E08C0ACE520
:101C8000CA2EAFE8DA2EA4ECEA2EA1E4FA2E2EEE4C
:101C90003CE747E050E46D817E818F8198859058C4
:101CA0000E949E1F23E333E34DE651E40E94492046
:101CB0004B015C0126E83BEE43E351E4C701B6016A
:101CC0000E949E1F23E333E34DE651E40E94492026
:101CD0002B013C01A5019401C501B4010E942922F8
:101CE0006D877E878F87988BA3019201C301B20114
:101CF0000E94292269877A878B879C872D853E855C
:101D00004F8558890E949F1F0E949622698B7A8B6B
:101D10008B8B9C8B20E030E0A90169817A818B81DB
:101D20009C810E9442208111A2C080E090E0A4EB3F
:101D3000B2E4F101808B918BA28BB38B20E030E079
:101D4000A901C301B2010E9442208823C9F0C50144
:101D5000B4019058A30192010E9449200E941A20C8
:101D600026EE3EE245E652E40E9429224B015C0148
:101D700020E030E0A9010E941E2218168CF406C053
:101D8000812C912CE4EBAE2EE2E4BE2E20E030E07C
:101D900044E353E4C501B4010E949E1F4B015C0162
:101DA0002D853E854F85588960E070E080E89FE38F
:101DB0000E949E1F29853A854B855C850E949E1F47
:101DC00024E937E745E95FE30E949E1F26E531E5F8
:101DD0004AE050E40E94492029893A894B895C896C
:101DE0000E9449200E94032026EE3EE245E652E48E
:101DF0000E942922A50194010E949E1F4B015C01B3
:101E000020E030E0A9010E944220F10187FD05C0D9
:101E1000808E918EA28EB38E04C0108E118E128E83
:101E2000138E26EE3EE245E652E4F101608D718D9F
:101E3000828D938D0E9449200E948C2226EF38E2E9
:101E400040E851E40E9429229B01AC01C701B60180
:101E50000E949F1F26E83BEE43E351E40E949E1F31
:101E600023E333E34DE651E40E94492025C1298153
:101E70003A814B815C816D817E818F8198850E9442
:101E800049204B015C010E941A2026EE3EE245E605
:101E900052E40E9429226B017C0120E030E0A9017C
:101EA000C501B4010E94422087FD06C0F101C08A2D
:101EB000D18AE28AF38A0DC020E030E044E353E4A3
:101EC000C701B6010E949F1FF101608B718B828B4D
:101ED000938B20E030E0A9016D817E818F81988510
:101EE0000E94422081111AC020E030E0A9016981DE
:101EF0007A818B819C810E941E22181654F480E006
:101F000090E0A4E3B3E4F101808B918BA28BB38BBF
:101F100005C0F101108A118A128A138A26EE3EE268
:101F200045E652E4F10160897189828993890E94B2
:101F300049200E9446209B01AC0169817A818B81F6
:101F40009C8190580E9449202EEE3CE747E050E4E7
:101F50000E949E1F23E333E34DE651E40E94492093
:101F60004B015C0120E030E0A901C301B2010E94F5
:101F700042208823C9F0A3019201C501B401905801
:101F80000E9449200E941A2026EE3EE245E652E4D5
:101F90000E9429226B017C0120E030E0A9010E940F
:101FA0001E2218168CF406C0C12CD12C74EBE72E1F
:101FB00072E4F72E20E030E044E353E4C701B601B9
:101FC0000E949E1F6B017C01A5019401C501B40113
:101FD0000E9429229B01AC0169857A858B859C85AD
:101FE0000E949F1F4B015C010E94962269837A83A5
:101FF0008B839C8324E937E745E95FE3C501B4019E
:102000000E949F1F20E030E040E85FE30E949E1F97
:10201000905826E531E54AE050E40E9449202981A4
:102020003A814B815C810E9449200E94032026EE68
:102030003EE245E652E40E942922A70196010E9451
:102040009E1F6B017C0120E030E0A9010E9442202C
:10205000F10187FD05C0C08ED18EE28EF38E04C0E3
:10206000108E118E128E138E26EE3EE245E652E45D
:10207000F101608D718D828D938D0E9449206B01DD
:102080007C0120E030E0A9010E941E22181624F0F5
:10209000C701B601905802C0C701B6010E948C2248
:1020A00026E531E54AE85FE30E9429229B01AC0165
:1020B000C301B2010E949F1F0E94032026EE3EE250
:1020C00045E652E40E942922F101648B758B868BD0
:1020D000978BF101408851886288738820E030E056
:1020E000A901C301B2010E941E22181624F077FA3A
:1020F000709477F87094F101408A518A628A738AE9
:1021000084889588A688B78820E030E0A901C501B9
:10211000B4010E941E22181624F0B7FAB094B7F842
:10212000B094F101848A958AA68AB78AC08CD18C32
:10213000E28CF38C20E030E0A901C701B6010E94D7
:10214000422087FD2EC095018401B301A201C10187
:102150000E947A0D6B017C012DEC3CEC4CEC5DE3B4
:102160006D817E818F8198850E949F1F9B01AC01AC
:10217000C701B6010E941E2218160CF484C02DEC73
:102180003CEC4CEC5DE36D817E818F8198850E94F3
:102190009E1F9B01AC01C701B6010E94422087FD32
:1021A00072C0A3019201C301B2010E94D722811122
:1021B00078C0E89477F82FEF3FEF4FE75FE7C30170
:1021C000B2010E94D72281110BC02FEF3FEF4FE7E2
:1021D0005FE7C301B2010E94422018160CF461C0EF
:1021E000F101C488D588E688F788A7019601C70160
:1021F000B6010E94D72281115FC0E894F7F82FEF53
:102200003FEF4FE75FE7C701B6010E94D722811178
:102210000BC02FEF3FEF4FE75FE7C701B6010E940A
:10222000422018160CF448C0F101C08CD18CE28C0D
:10223000F38CA7019601C701B6010E94D722811134
:1022400046C046015701E894B7F82FEF3FEF4FE73C
:102250005FE7C501B4010E94D72281110AC02FEFA8
:102260003FEF4FE75FE7C501B4010E944220181617
:1022700074F120E030E0A901C701B6010E944220BC
:1022800087FF2FC024C0A501940160E070E084E3C3
:1022900093E40E949E1FF101648B758B868B978B54
:1022A00080CF61E088EA92E00E94E009F101608B52
:1022B000718B828B938B94CF62E088EA92E00E94CC
:1022C000E009F101648B758B868B978BADCF63E052
:1022D00088EA92E00E94E009F101608F718F828F9D
:1022E000938F64960FB6F894DEBF0FBECDBFDF911B
:1022F000CF911F910F91FF90EF90DF90CF90BF9003
:10230000AF909F908F907F906F905F904F903F9095
:102310002F9008952F923F924F925F926F927F92EB
:102320008F929F92AF92BF92CF92DF92EF92FF92E5
:102330000F931F93CF93DF93CDB7DEB7C654D3402F
:102340000FB6F894DEBF0FBECDBF1C012A013B01C2
:10235000CD5CDC4F088319832A833B83C353D3406E
:10236000C95CDC4FC882D982EA82FB82C753D34062
:10237000C95DDC4F88829982AA82BB82C752D34052
:1023800020E030E0A901C301B2010E944220811186
:1023900008C0BAE04B2EB7ED5B2EB3E26B2EBCE368
:1023A0007B2EC1010E94E309D1011896CD90DD90EA
:1023B000ED90FC901B9714960D911D912D913C91E1
:1023C00017974D915D916D917C91C1010E94190B00
:1023D000D1015C968D919D910D90BC91A02DC55C15
:1023E000DC4F88839983AA83BB83CB53D340D1012D
:1023F00090968D919D910D90BC91A02DC15CDC4F6C
:1024000088839983AA83BB83CF53D340D101949609
:102410008D919D910D90BC91A02DCD5BDC4F88835B
:102420009983AA83BB83C354D340C55ADC4FB88178
:10243000CB55D340B170C55DDC4FB883CB52D34090
:10244000C45DDC4F1882CC52D340C55DDC4FE881BF
:10245000F981CB52D340BF01882777FD8095982F13
:102460000E94E4204B015C019B01AC01C55CDC4F88
:10247000688179818A819B81CB53D3400E94292234
:10248000A30192010E949F1FC15DDC4F6883798385
:102490008A839B83CF52D340A5019401C15CDC4F5A
:1024A000688179818A819B81CF53D3400E94292200
:1024B000CD5CDC4F288139814A815B81C353D34095
:1024C0000E949F1F2B013C01A5019401CD5BDC4FB5
:1024D000688179818A819B81C354D3400E942922DB
:1024E000C95CDC4F288139814A815B81C753D34065
:1024F0000E949F1F4B015C016B017C0193018201D3
:10250000C15DDC4F488159816A817B81CF52D340C4
:1025100088EA92E00E94FF0D8091B8029091B90282
:10252000A091BA02B091BB02C55DDC4F888399834C
:10253000AA83BB83CB52D3408091BC029091BD0251
:10254000A091BE02B091BF02CD5CDC4F888399831D
:10255000AA83BB83C353D3408091C0029091C10230
:10256000A091C202B091C302C95CDC4F88839983F9
:10257000AA83BB83C753D340C55ADC4F9881CB5540
:10258000D34091FF10C0D1011C962D913D914D91EA
:102590005C911F97C95DDC4F688179818A819B813D
:1025A000C752D3402BC0C55ADC4FB881CB55D3405E
:1025B000B2FF2EC0F1012485358546855785C95D5A
:1025C000DC4F688179818A819B81C752D3400E9408
:1025D0009F1F6B017C01D1012D913D914D915C912B
:1025E000C55DDC4F688179818A819B81CB52D34064
:1025F0000E949E1F9B01AC01C701B6010E949F1F54
:10260000C95DDC4F688379838A839B83C752D3403B
:1026100020E030E0A901C45ADC4F688179818A81C9
:102620009B81CC55D3400E941E2218160CF0CDC1C0
:10263000C05ADC4FB881C056D340B13009F0D8C081
:10264000F1014081518162817381CF59DC4FC88093
:10265000C156D3409E01275A3D4F7901C55DDC4FDD
:10266000088119812A813B81CB52D340C1010E944C
:102670000B0CD10114964D915D916D917C91179742
:10268000CF59DC4FC880C156D340FE01EF56FE4FF4
:102690007F01CD5CDC4F088119812A813B81C353C6
:1026A000D340C1010E940B0C3E01F9EC6F0E711C6E
:1026B000D10118964D915D916D917C911B97CF59E9
:1026C000DC4FC880C156D3407301C95CDC4F088120
:1026D00019812A813B81C753D340C1010E940B0C51
:1026E000F1014485558566857785CF59DC4FC880D3
:1026F000C156D3409E012F5F3F4F7901C95DDC4F2A
:10270000088119812A813B81C752D340C1010E94AF
:102710000B0C2701CD5DDC4F79826882C352D34018
:10272000DE01AF56BE4FCB5DDC4FB983A883C552E7
:10273000D340FE01E75AFD4FC15DDC4FF983E883CA
:10274000CF52D340D2018D909D90AD90BD902D0180
:10275000CD5DDC4FE881F981C352D340C190D19067
:10276000E190F190CD5DDC4FF983E883C352D34013
:10277000CB5DDC4FA881B981C552D3400D911D912D
:102780002D913D91CB5DDC4FB983A883C552D340D9
:10279000C15DDC4FE881F981CF52D3404191519125
:1027A00061917191C15DDC4FF983E883CF52D340D1
:1027B000C1010E94410A20E030E04AE754E4C45AD3
:1027C000DC4F688179818A819B81CC55D3400E94FE
:1027D000292220E030E048E452E40E9449200E948F
:1027E000B6200E9473184614570409F0ABCFEDC011
:1027F000C05ADC4FF881C056D340F111E6C0CF5922
:10280000DC4FC880C156D3409E01275A3D4F790105
:10281000C15DDC4F088119812A813B81CF52D340B1
:10282000C55CDC4F488159816A817B81CB53D340A1
:10283000C1010E940B0CCE018F569E4FCF5DDC4F25
:1028400099838883C152D340CF59DC4FC880C15689
:10285000D3407C0193018201C15CDC4F48815981E6
:102860006A817B81CF53D340C1010E940B0CCF59A9
:10287000DC4FC880C156D340FE01E753FF4F7F01B4
:1028800095018401CD5BDC4F488159816A817B8150
:10289000C354D340C1010E940B0CD1011C964D9131
:1028A0005D916D917C911F97CF59DC4FC880C156C7
:1028B000D340FE0131967F01C95DDC4F088119814B
:1028C0002A813B81C752D340C1010E940B0C9E015B
:1028D00027533F4F3901CE018F569E4FCD5DDC4FC0
:1028E00099838883C352D340DE01A75ABD4FCB5D85
:1028F000DC4FB983A883C552D3402701D301CD90C3
:10290000DD90ED90FD903D01CD5DDC4FE881F981DA
:10291000C352D3400191119121913191CD5DDC4F92
:10292000F983E883C352D340CB5DDC4FA881B981E2
:10293000C552D3404D915D916D917D91CB5DDC4F42
:10294000B983A883C552D340C1010E94FF0DF20193
:1029500081909190A190B1902F01D1015896CD9086
:10296000DD90ED90FC905B9754960D911D912D910B
:102970003C91579750964D915D916D917C915397F5
:10298000C1010E94410A20E030E04AE754E4C45A01
:10299000DC4F688179818A819B81CC55D3400E942C
:1029A000292220E030E048E452E40E9449200E94BD
:1029B000B6200E947318CF5DDC4FE881F981C152C7
:1029C000D3406E167F0609F099CFC95DDC4F888031
:1029D0009980AA80BB80C752D340C95CDC4FC880B5
:1029E000D980EA80FB80C753D340CD5CDC4F08819F
:1029F00019812A813B81C353D340C55DDC4F488197
:102A000059816A817B81CB52D340C1010E94410A26
:102A1000CA5BDC4F0FB6F894DEBF0FBECDBFDF91AF
:102A2000CF911F910F91FF90EF90DF90CF90BF90CB
:102A3000AF909F908F907F906F905F904F903F905E
:102A40002F9008958F929F92AF92BF92CF92DF9274
:102A5000EF92FF920F931F93CF93DF93CDB7DEB723
:102A6000FF85A889B9899A88AB2811F0E3E001C0F5
:102A7000E2E01F921F929F92BF93AF93FF93EF9359
:102A8000812C912C54010E948A110FB6F894DEBF5C
:102A90000FBECDBFDF91CF911F910F91FF90EF90AF
:102AA000DF90CF90BF90AF909F908F90089561E09E
:102AB00086E00E941C1961E085E00E941C1960E01C
:102AC00085E00E94551961E086E00C94551961E09B
:102AD00086E00E941C1961E085E00E941C1961E0FB
:102AE00085E00E94551960E086E00E94551962E376
:102AF00070E080E090E00E94731860E085E00C9444
:102B000055194F925F926F927F928F929F92AF92E0
:102B1000BF92CF92DF92EF92FF920F931F93CF93CA
:102B2000DF932A013B0177FA709477F870948AE377
:102B3000882E93E8992ED2E1CFE682E00E948B198D
:102B4000892BF9F020E030E040E05FE3C301B201FF
:102B50000E9429226B017C018F929F92DF93CF9379
:102B6000AA24A394B12C00E010E09801B901A801B7
:102B700088EA92E00E9422150F900F900F900F901C
:102B8000DCCFDF91CF911F910F91FF90EF90DF90FD
:102B9000CF90BF90AF909F908F907F906F905F90FD
:102BA0004F90089540E050E060E87FE30C94811579
:102BB00086EE92E00E94841626E040E855E260E04E
:102BC00070E08EEA93E00E94971A62E082E00C9433
:102BD0001C1988EA92E00C9462078091150390E03A
:102BE00020911603821B910908952091160380916C
:102BF0001503281750F4E22FF0E0E95EFC4F8081C6
:102C000090E02F5F2093160308958FEF9FEF0895B4
:102C1000E091160380911503E81730F4F0E0E95EC7
:102C2000FC4F808190E008958FEF9FEF0895089505
:102C3000CF92DF92EF92FF920F931F93CF93DF9388
:102C40007C01CB018A012091F202222389F0EB0161
:102C50006B01C40ED51ECC15DD0569F06991D70155
:102C6000ED91FC910190F081E02DC7010995F3CF22
:102C7000642F0E94B016C801DF91CF911F910F9170
:102C8000FF90EF90DF90CF900895CF93DF931F9246
:102C9000CDB7DEB769832091F2022223D1F02091D3
:102CA000F302203240F021E030E0FC013383228344
:102CB00080E090E015C08091F402E82FF0E0EB5046
:102CC000FD4F998190838F5F8093F4028093F3028C
:102CD00005C061E0CE0101960E94B01681E090E04F
:102CE0000F90DF91CF910895FC011382128248EE7C
:102CF00053E060E070E044835583668377838EE41D
:102D000092E0918380830895109216031092150328
:102D10001092F4021092F3020C94921686EE92E056
:102D20000C9474161092A40381E08093A203109275
:102D3000A10361E082E10E94551961E083E10E94F4
:102D40005519E9EBF0E080818E7F808380818D7F53
:102D5000808388E48093B80085E48093BC00089564
:102D6000613298F42091A403243089F460935903CC
:102D7000FC018BE593E0DC012A2F281B261718F4B1
:102D800021912D93F9CF80E0089581E0089582E0AC
:102D9000089585ED8093BC008091BC0084FDFCCF3C
:102DA0001092A403089585EC8093BC001092A403B4
:102DB00008951F920F920FB60F9211242F933F93F5
:102DC0004F935F936F937F938F939F93AF93BF9333
:102DD000EF93FF938091B900887F803609F49CC0FF
:102DE00068F5883209F45BC090F4803109F454C06E
:102DF00038F4882309F4F5C0883009F44DC0F5C0D3
:102E0000883109F44CC0803209F45DC0EEC08034D2
:102E100009F468C048F4803309F455C0883309F0D8
:102E2000E4C080933703A8C0803509F44FC08835CB
:102E300009F45DC0883409F0D8C0D5C0883909F4D8
:102E4000C6C0A8F4883709F467C038F4883609F496
:102E500063C0803709F460C0C8C0883809F4B7C0BF
:102E6000803909F45FC0803809F0BFC05BC0803B87
:102E700009F485C038F4803A09F466C0883A09F448
:102E80007EC0B3C0803C09F4A6C0883C09F4A3C04E
:102E9000883B09F489C0A9C08091A30310C0909118
:102EA0007C0380917B03981770F5E0917C0381E0AF
:102EB0008E0F80937C03F0E0E358FC4F8081809379
:102EC000BB0085EC85C0809337038DC0E0917C0307
:102ED00081E08E0F80937C038091BB00F0E0E3588B
:102EE000FC4F808390917C0380917B036DC0E091C7
:102EF0007C0381E08E0F80937C038091BB00F0E027
:102F0000E358FC4F80838091A20381116CC081E063
:102F10008093A10384EA60C083E08093A4031092AD
:102F20003803CFCF80913803803208F050C0E09151
:102F3000380381E08E0F809338038091BB00F0E06E
:102F4000E75CFC4F8083BDCF80913803803230F442
:102F5000E0913803F0E0E75CFC4F10820E94C91654
:102F60006091380370E0E0919D03F0919E0389E346
:102F700093E00995109238030E94D31636C084E07E
:102F80008093A40310925A0310925903E0919F0377
:102F9000F091A003099580915903811105C081E04A
:102FA0008093590310925B03E0915A0381E08E0FE6
:102FB00080935A03F0E0E55AFC4F80818093BB0078
:102FC00090915A0380915903981708F47ACF85E8B5
:102FD0008093BC000AC085EC8093BC001092A403CF
:102FE00004C0109237030E94C916FF91EF91BF9160
:102FF000AF919F918F917F916F915F914F913F9191
:103000002F910F900FBE0F901F9018951F920F9247
:103010000FB60F9211242F933F938F939F93AF93EB
:10302000BF938091A6039091A703A091A803B091AC
:10303000A9033091A50323E0230F2D3720F4019637
:10304000A11DB11D05C026E8230F0296A11DB11DCB
:103050002093A5038093A6039093A703A093A803AE
:10306000B093A9038091AA039091AB03A091AC0304
:10307000B091AD030196A11DB11D8093AA03909359
:10308000AB03A093AC03B093AD03BF91AF919F91FD
:103090008F913F912F910F900FBE0F901F90189519
:1030A0003FB7F8948091AA039091AB03A091AC0331
:1030B000B091AD0326B5A89B05C02F3F19F001962E
:1030C000A11DB11D3FBF6627782F892F9A2F620F50
:1030D000711D811D911D42E0660F771F881F991F8A
:1030E0004A95D1F70895CF92DF92EF92FF92CF9356
:1030F000DF936B017C010E945018EB01C114D104D5
:10310000E104F10489F00E949D1F0E9450186C1B7D
:103110007D0B683E734090F381E0C81AD108E10846
:10312000F108C851DC4FEACFDF91CF91FF90EF90CB
:10313000DF90CF900895789484B5826084BD84B583
:10314000816084BD85B5826085BD85B5816085BDA2
:10315000EEE6F0E0808181608083E1E8F0E01082BB
:10316000808182608083808181608083E0E8F0E0FC
:10317000808181608083E1EBF0E0808184608083E6
:10318000E0EBF0E0808181608083EAE7F0E080811D
:10319000846080838081826080838081816080837D
:1031A0008081806880831092C10008958E3008F07D
:1031B0008E50877020910A0190E4299F900111247C
:1031C000822B80937C0080917A00806480937A00C7
:1031D00080917A0086FDFCCF809178002091790063
:1031E00090E0922B0895833081F028F4813099F09B
:1031F0008230A1F008958730A9F08830B9F084308A
:10320000D1F4809180008F7D03C0809180008F7702
:1032100080938000089584B58F7702C084B58F7D38
:1032200084BD08958091B0008F7703C08091B00075
:103230008F7D8093B0000895CF93DF9390E0FC01E1
:10324000E25FFE4F2491FC01EE5DFE4F84918823E6
:1032500049F190E0880F991FFC01E65BFE4FA591B4
:10326000B491805C9E4FFC01C591D4919FB76111D0
:1032700008C0F8948C91209582238C9388818223B6
:103280000AC0623051F4F8948C91322F3095832328
:103290008C938881822B888304C0F8948C91822B34
:1032A0008C939FBFDF91CF9108950F931F93CF937E
:1032B000DF931F92CDB7DEB7282F30E0F901E6503B
:1032C000FF4F8491F901E25FFE4F1491F901EE5D29
:1032D000FE4F04910023C9F0882321F069830E94E6
:1032E000F3186981E02FF0E0EE0FFF1FE05CFE4F66
:1032F000A591B4919FB7F8948C91611103C010957A
:10330000812301C0812B8C939FBF0F90DF91CF91C0
:103310001F910F910895CF93DF93282F30E0F9018B
:10332000E650FF4F8491F901E25FFE4FD491F9011D
:10333000EE5DFE4FC491CC2391F081110E94F318F1
:10334000EC2FF0E0EE0FFF1FEA5CFE4FA591B49169
:103350002C912D2381E090E021F480E002C080E0F8
:1033600090E0DF91CF910895FC01818D228D90E056
:10337000805C9F4F821B91098F7399270895FC01F0
:10338000918D828D981731F0828DE80FF11D858D1A
:1033900090E008958FEF9FEF0895FC01918D828D4D
:1033A000981761F0828DDF01A80FB11D5D968C9199
:1033B000928D9F5F9F73928F90E008958FEF9FEFA4
:1033C000089581E59BE1892B49F085EC94E0892BF8
:1033D00029F00E94511B81110C94C5040895FC0131
:1033E000848DDF01A80FB11DA35ABF4F2C91848D8E
:1033F00090E001968F739927848FA689B7892C93C3
:10340000A089B1898C9180648C93938D848D98135D
:1034100006C00288F389E02D80818F7D8083089526
:10342000CF93DF93EC01888D8823C9F0EA89FB896B
:10343000808185FD05C0A889B9898C9186FD0FC062
:103440000FB607FCF5CF808185FFF2CFA889B98937
:103450008C9185FFEDCFCE010E94EF19E7CFDF9170
:10346000CF910895CF92DF92FF920F931F93CF9346
:10347000DF931F92CDB7DEB76C0181E0D60158967D
:103480008C9358975B969C915B975C968C915C971C
:10349000981307C05096ED91FC915197808185FD5E
:1034A0002EC0F601038D10E00F5F1F4F0F73112721
:1034B000F02EF601848DF81211C00FB607FCF9CF7B
:1034C000D6015096ED91FC915197808185FFF1CF07
:1034D000C60169830E94EF196981EBCF838DE80FE4
:1034E000F11DE35AFF4F6083D6015B960C935B9707
:1034F0005296ED91FC915397808180620CC0D60169
:103500005696ED91FC91579760835096ED91FC9102
:10351000519780818064808381E090E00F90DF91FB
:10352000CF911F910F91FF90DF90CF900895BF92A0
:10353000CF92DF92EF92FF92CF93DF93EC016A017B
:103540007B01B22EE889F98982E08083411581EE02
:10355000580761057105A1F060E079E08DE390E026
:10356000A70196010E940C232150310941095109FC
:103570005695479537952795211580E1380798F09E
:10358000E889F989108260E874E88EE190E0A7018B
:1035900096010E940C232150310941095109569589
:1035A000479537952795EC85FD853083EE85FF851A
:1035B0002083188EEC89FD89B082EA89FB8980819D
:1035C00080618083EA89FB89808188608083EA89C1
:1035D000FB89808180688083EA89FB8980818F7D77
:1035E0008083DF91CF91FF90EF90DF90CF90BF90DD
:1035F00008951F920F920FB60F9211242F938F935D
:103600009F93EF93FF93E091BE03F091BF038081FE
:10361000E091C403F091C50382FD12C090818091B6
:10362000C7038F5F8F732091C803821751F0E09119
:10363000C703F0E0E255FC4F958F8093C70301C0AC
:103640008081FF91EF919F918F912F910F900FBEED
:103650000F901F9018951F920F920FB60F92112482
:103660002F933F934F935F936F937F938F939F938A
:10367000AF93BF93EF93FF938EEA93E00E94EF190D
:10368000FF91EF91BF91AF919F918F917F916F913A
:103690005F914F913F912F910F900FBE0F901F9010
:1036A00018958EEA93E00E94B41921E0892B09F461
:1036B00020E0822F08951092B1031092B00388EE9B
:1036C00093E0A0E0B0E08093B2039093B303A093A3
:1036D000B403B093B5038EE592E09093AF0380936B
:1036E000AE0385EC90E09093BB038093BA0384EC27
:1036F00090E09093BD038093BC0380EC90E09093A6
:10370000BF038093BE0381EC90E09093C10380934C
:10371000C00382EC90E09093C3038093C20386ECD5
:1037200090E09093C5038093C4031092C703109256
:10373000C8031092C9031092CA03089508950E9405
:103740009B180E949E1B0E94F700C1EED9E10E94C7
:103750000C052097E1F30E94E119F9CFCF92DF9297
:10376000EF92FF920F931F93CF93DF936C017A0137
:10377000EB01E60EF71E00E010E0CE15DF0561F06C
:103780006991D601ED91FC910190F081E02DC60187
:103790000995080F191FF1CFC801DF91CF911F9133
:1037A0000F91FF90EF90DF90CF9008956115710514
:1037B00081F0DB010D900020E9F7AD014150510986
:1037C000461B570BDC01ED91FC910280F381E02D4B
:1037D000099480E090E00895EF92FF920F931F9379
:1037E000CF93DF938C01FB01C0E0D0E064917F01B7
:1037F0008FEFE81AF80A662361F0D801ED91FC9189
:103800000190F081E02DC8010995C80FD91FF7017B
:10381000EDCFCE01DF91CF911F910F91FF90EF90EF
:103820000895DC01ED91FC91DB0114964D915C91C2
:1038300015976D917C910280F381E02D09946AE6E1
:1038400072E00C94D61B0F931F93CF93DF93EC0180
:103850000E94EC1B8C01CE010E941F1C800F911F47
:10386000DF91CF911F910F9108950F931F93CF93E5
:10387000DF93EC010E94111C8C01CE010E941F1CE1
:10388000800F911FDF91CF911F910F9108950F939A
:103890001F93CF93DF93EC010E94D61B8C01CE01C6
:1038A0000E941F1C800F911FDF91CF911F910F91DC
:1038B00008954F925F926F927F92AF92BF92CF9294
:1038C000DF92EF92FF920F931F93CF93DF93CDB7C9
:1038D000DEB729013A01621B730B840B950B298912
:1038E0003A894B895C892A193B094C095D09298B66
:1038F0003A8B4B8B5C8B9B01AC0169897A898B89F4
:103900009C890E94F022E418F50806091709A8010D
:1039100097010E942E232A0D3B1D4C1D5D1DCA01DF
:10392000B901DF91CF911F910F91FF90EF90DF9040
:10393000CF90BF90AF907F906F905F904F90089521
:10394000FC01808191810C940524CF93DF93EC01DD
:1039500088819981009711F00E94052419821882AC
:103960001D821C821B821A82DF91CF9108950F93D2
:103970001F93CF93DF93EC018B016F5F7F4F8881A3
:1039800099810E949424009731F0998388831B8346
:103990000A8381E001C080E0DF91CF911F910F91F8
:1039A0000895CF93DF93EC0188819981892B29F0C9
:1039B0008A819B818617970760F4CE010E94B71C0D
:1039C000882341F08C819D81892B19F4E881F9814C
:1039D000108281E0DF91CF910895EF92FF920F93D3
:1039E0001F93CF93DF93EC017B018A01BA010E9400
:1039F000D11C811104C0CE010E94A51C07C01D83EB
:103A00000C83B701888199810E948D25CE01DF91B9
:103A1000CF911F910F91FF90EF900895FC011182BB
:103A2000108213821282158214826115710559F079
:103A3000FB0101900020E9F7AF0141505109461BFD
:103A4000570B0C94ED1C0895CF93DF93EC01FB0111
:103A50008617970761F0608171816115710529F002
:103A6000448155810E94ED1C02C00E94A51CCE011C
:103A7000DF91CF910895FC0111821082138212828E
:103A8000158214820C94241DCF93DF93EC016115F1
:103A9000710561F0FB0101900020E9F7AF01415091
:103AA0005109461B570B0E94ED1C02C00E94A51C29
:103AB000CE01DF91CF910895EF92FF920F931F9364
:103AC000CF93DF93EC017B010C811D8161157105A2
:103AD00011F480E016C04115510591F0040F151F37
:103AE000B8010E94D11C8823A1F3288139818C81DF
:103AF0009D81B701820F931F0E948D251D830C832A
:103B000081E0DF91CF911F910F91FF90EF90089589
:103B1000CF93DF9300D0CDB7DEB769831A8241E03F
:103B200050E0BE016F5F7F4F0E945C1D0F900F90B1
:103B3000DF91CF910895CF93DF93EC01FB01448196
:103B40005581608171810E945C1D811103C0CE018D
:103B50000E94A51CCE01DF91CF910895EF92FF92B4
:103B60000F931F93CF93DF938617970731F1FC01D3
:103B700024813581FB014481558124173507F9F4EF
:103B8000232BD9F0FC0100811181FB01C081D1817F
:103B9000F80181918F01882381F0992787FD909505
:103BA0000E946A257C018991992787FD90950E9442
:103BB0006A25E816F90661F302C081E001C080E0E1
:103BC000DF91CF911F910F91FF90EF900895FC012D
:103BD000848195816817790720F48081918100970D
:103BE00029F410924B048BE494E00895860F971FFC
:103BF0000895FC01248135816217730748F48081A0
:103C00009181009729F0FC01E60FF71F808108954C
:103C100080E008950C94F91DAF92BF92CF92DF928D
:103C2000EF92FF920F931F93CF93DF937B01EA01F3
:103C3000FB01448155814115510569F1FC01248145
:103C400035812115310539F12417350720F1C217C7
:103C5000D30710F0E9012197FC0100811181C8010F
:103C6000AA24AA94BB24BA946801CC0EDD1EC816FF
:103C7000D906A0F0F701608171810E949425009718
:103C800069F09C01201B310BC217D30708F4950182
:103C900001965901ECCF8FEF9FEF01C0C501DF9175
:103CA000CF911F910F91FF90EF90DF90CF90BF9039
:103CB000AF900895BF92CF92DF92EF92FF920F9351
:103CC0001F93CF93DF936C017B01EA0189012417D5
:103CD000350720F48D2FE901042F182F6CE672E0D0
:103CE000C6010E940E1DD70114968D919C911597C7
:103CF000C817D907C8F48017910708F48C01D701B9
:103D0000ED91FC911197E00FF11FB08010826D9141
:103D10007C916C0F7D1FC6010E94441DD701ED915F
:103D2000FC91E00FF11FB082C601DF91CF911F918E
:103D30000F91FF90EF90DF90CF90BF9008952F925A
:103D40003F924F925F926F927F928F929F92AF922B
:103D5000BF92CF92DF92EF92FF920F931F93CF9378
:103D6000DF93EC015B017A014C805D8041145104CA
:103D700009F4C5C0FB01648075806114710409F405
:103D8000BEC0FA01C480D580C618D7080881198141
:103D9000C114D104C1F4F50160817181C8010E9490
:103DA0009425EC01009709F4AAC0F70160817181A4
:103DB00044815581CE010E947225F701048115814D
:103DC0000C0F1D1FE8CFD7FC05C0FB012080318000
:103DD000420143C04801F50160817181C8010E9420
:103DE00094252C01009719F13201601A710AA30180
:103DF000B801C4010E947225680C791CF70160812A
:103E0000718144815581C3010E947225F70184802C
:103E10009580860C971CF50104811581040D151DF4
:103E20008C819D818C0D9D1D9D838C83D4CFB80189
:103E3000C401DF91CF911F910F91FF90EF90DF9020
:103E4000CF90BF90AF909F908F907F906F905F903A
:103E50004F903F902F900C948D25B101C8010E9486
:103E60009425009731F08C01060D171D8C0C9D1CBC
:103E7000F4CF8414950409F442C08A819B8188158B
:103E8000990530F4B401CE010E94B71C8823B9F122
:103E90004C815D814150510957FD31C0B501CE01C2
:103EA0000E940C1E8C0197FD2AC088819981F50122
:103EB00024813581200F311F820F931F4C815D813A
:103EC000421B530BBC018C0D9D1D0E947B258C81D8
:103ED0009D818C0D9D1D9D838C83E881F981E80F68
:103EE000F91F108288819981F70160817181448175
:103EF0005581800F911F0E947225A801CBCFDF91C1
:103F0000CF911F910F91FF90EF90DF90CF90BF90D6
:103F1000AF909F908F907F906F905F904F903F9069
:103F20002F900895FC0180819181009711F00C94ED
:103F30005E2560E070E0CB01089508955058BB27DE
:103F4000AA270ED030C2F9D130F0FED120F031F4E2
:103F50009F3F11F41EF4B8C10EF4E095E7FBAEC12B
:103F6000E92F43D280F3BA176207730784079507D6
:103F700018F071F49EF55BC20EF4E0950B2EBA2F8B
:103F8000A02D0B01B90190010C01CA01A00111245F
:103F9000FF27591B99F0593F50F4503E68F11A160B
:103FA000F040A22F232F342F4427585FF3CF46959C
:103FB00037952795A795F0405395C9F77EF41F16BE
:103FC000BA0B620B730B840BBAF09150A1F0FF0F88
:103FD000BB1F661F771F881FC2F70EC0BA0F621F74
:103FE000731F841F48F4879577956795B795F79564
:103FF0009E3F08F0B3CF9395880F08F09927EE0FF6
:104000009795879508959F939F77EEE389379E074D
:1040100020F4E8E6F0E080D109C011D19058A2EA7E
:104020002AED3FE049EC5FE39BDFBDD10F9007FC39
:1040300090580895DF93DD27B92FBF7740E85FE3FD
:104040001616170648075B0710F4D92FFBD19F936C
:104050008F937F936F93A8D2ECE7F0E038D1A3D190
:104060002F913F914F915F9100D2DD2349F09058FD
:10407000A2EA2AED3FE049EC5FE3D0785D2770DFEC
:10408000DF9191C1F7D008F481E0089565D1E395FF
:104090009BC10CD088C158D140F04FD130F021F4F1
:1040A0005F3F19F00BC15111C3C10EC19ED198F3EE
:1040B0009923C9F35523B1F3951B550BBB27AA27A9
:1040C00062177307840738F09F5F5F4F220F331F1B
:1040D000441FAA1FA9F333D00E2E3AF0E0E830D0E7
:1040E00091505040E695001CCAF729D0FE2F27D0EA
:1040F000660F771F881FBB1F261737074807AB07B8
:10410000B0E809F0BB0B802DBF01FF2793585F4F2C
:104110002AF09E3F510568F0D1C08AC15F3FECF3A1
:10412000983EDCF3869577956795B795F7959F5FF1
:10413000C9F7880F911D9695879597F90895E1E045
:10414000660F771F881FBB1F621773078407BA07A4
:1041500020F0621B730B840BBA0BEE1F88F7E095FF
:10416000089504D06894B11163C1089546D188F0D0
:104170009F5790F0B92F9927B751A0F0D1F0660F53
:10418000771F881F991F1AF0BA95C9F712C0B1306E
:1041900081F04DD1B1E008954AC1672F782F88276B
:1041A000B85F39F0B93FCCF3869577956795B395AD
:1041B000D9F73EF490958095709561957F4F8F4F1C
:1041C0009F4F0895E89409C097FB3EF49095809521
:1041D000709561957F4F8F4F9F4F9923A9F0F92FCD
:1041E00096E9BB279395F695879577956795B7954B
:1041F000F111F8CFFAF4BB0F11F460FF1BC06F5F31
:104200007F4F8F4F9F4F16C0882311F096E911C042
:10421000772321F09EE8872F762F05C0662371F063
:1042200096E8862F70E060E02AF09A95660F771F77
:10423000881FDAF7880F9695879597F90895DF9389
:10424000CF931F930F938B01EC01E9EAF0E03FD08D
:10425000AAD09801AE018B01EC0160E070E080E82B
:104260009FE36CDE63D19801AE010F911F91CF9156
:10427000DF91FBC0990F0008550FAA0BE0E8FEEF95
:1042800016161706E807F907C0F012161306E4071A
:10429000F50798F0621B730B840B950B39F40A2613
:1042A00061F0232B242B252B21F408950A2609F4F1
:1042B000A140A6958FEF811D811D089597F99F67F5
:1042C00080E870E060E008959FEF80EC0895DF9350
:1042D000CF931F930F93FF92EF92DF927B018C019C
:1042E000689405C0DA2EEF01C0D0FE01E894A591D4
:1042F0002591359145915591AEF3EF0131DEFE01E7
:104300009701A801DA9479F7DF90EF90FF900F9171
:104310001F91CF91DF9108959F938F937F936F9318
:10432000FF93EF939B01AC0194D0EF91FF91CFDF0E
:104330002F913F914F915F918CC000240A941616E3
:10434000170618060906089500240A941216130683
:10435000140605060895B8CF50D0E8F3E894E0E0DD
:10436000BB279F57F0F02AED3FE049EC06C0EE0F67
:10437000BB0F661F771F881F28F0B23A62077307CA
:10438000840728F0B25A620B730B840BE3959A955D
:1043900072F7803830F49A95BB0F661F771F881F1D
:1043A000D2F790480AC1092E0394000C11F4882317
:1043B00052F0BB0F40F4BF2B11F460FF04C06F5FDD
:1043C0007F4F8F4F9F4F0895EF93E0FF06C0A2EA03
:1043D0002AED3FE049EC5FEBC3DDE5DF0F9003948E
:1043E00001FC9058E1EDF0E097CF57FD9058440F55
:1043F000551F59F05F3F71F04795880F97FB991F44
:1044000061F09F3F79F08795089512161306140600
:10441000551FF2CF4695F1DF08C01616170618068D
:10442000991FF1CF86957105610508940895E89468
:10443000BB2766277727CB0197F908951BDF08F480
:104440008FEF08959B01AC0160E070E080E89FE38E
:1044500020CE0BD0A8CF71DF28F076DF18F095239F
:1044600009F02CCF31CF1124E3CFBFDFA0F3959F0C
:10447000D1F3950F50E0551F629FF001729FBB274B
:10448000F00DB11D639FAA27F00DB11DAA1F649FF7
:104490006627B00DA11D661F829F2227B00DA11DAA
:1044A000621F739FB00DA11D621F839FA00D611D30
:1044B000221F749F3327A00D611D231F849F600D51
:1044C000211D822F762F6A2F11249F5750408AF08A
:1044D000E1F088234AF0EE0FFF1FBB1F661F771F16
:1044E000881F91505040A9F79E3F510570F0E6CECD
:1044F0009FCF5F3FECF3983EDCF386957795679509
:10450000B795F795E7959F5FC1F7FE2B880F911D33
:104510009695879597F908959F931EDF0F9007FC56
:10452000EE5F52CF11F40EF4CFCE45C066DFD0F36C
:104530009923D9F3CEF39F57550B87FF4AD0002418
:10454000A0E640EA900180585695979528F4805C43
:10455000660F771F881F20F026173707480730F4AB
:10456000621B730B840B202931294A2BA6951794C3
:104570000794202531254A2758F7660F771F881F93
:1045800020F026173707480730F4620B730B840BB3
:10459000200D311D411DA09581F7B901842F91583F
:1045A000880F9695879508959B01AC0152CF62DEE6
:1045B000880B990B08959F3F31F0915020F4879517
:1045C00077956795B795880F911D9695879597F97B
:1045D000089591505040660F771F881FD2F70895B5
:1045E000DB018F939F930E944D23BF91AF91A29FB8
:1045F000800D911DA39F900DB29F900D11240895E1
:10460000991B79E004C0991F961708F0961B881F24
:104610007A95C9F780950895A1E21A2EAA1BBB1BB3
:10462000FD010DC0AA1FBB1FEE1FFF1FA217B3077E
:10463000E407F50720F0A21BB30BE40BF50B661F94
:10464000771F881F991F1A9469F760957095809558
:1046500090959B01AC01BD01CF010895052E97FBFC
:104660001EF400940E94452357FD07D00E940C239E
:1046700007FC03D04EF40C9445235095409530959B
:1046800021953F4F4F4F5F4F0895909580957095BE
:1046900061957F4F8F4F9F4F08950E945E23A59F86
:1046A000900DB49F900DA49F800D911D112408952D
:1046B000EE0FFF1F0590F491E02D0994A29FB00129
:1046C000B39FC001A39F700D811D1124911DB29F46
:1046D000700D811D1124911D0895CF93DF938230B9
:1046E000910510F482E090E0E0914E04F0914F04C7
:1046F00020E030E0A0E0B0E0309739F14081518116
:1047000048175907B8F04817590771F48281938107
:10471000109729F013969C938E9312972CC0909328
:104720004F0480934E0427C02115310531F0421704
:10473000530718F0A901DB0101C0EF019A01BD0187
:10474000DF010280F381E02DD7CF21153105F9F08B
:10475000281B390B2430310580F48A819B81611537
:10476000710521F0FB019383828304C090934F0471
:1047700080934E04FE01329644C0FE01E20FF31F07
:104780008193919322503109398328833AC0209133
:104790004C0430914D04232B41F4209102013091BF
:1047A000030130934D0420934C042091000130917B
:1047B00001012115310541F42DB73EB740910401A7
:1047C00050910501241B350BE0914C04F0914D04F0
:1047D000E217F307A0F42E1B3F0B2817390778F0D8
:1047E000AC014E5F5F4F2417350748F04E0F5F1F37
:1047F00050934D0440934C048193919302C0E0E0A8
:10480000F0E0CF01DF91CF910895CF93DF93009730
:1048100009F487C0FC01329713821282C0914E04C2
:10482000D0914F04209781F420813181280F391FC6
:1048300080914C0490914D048217930779F5F09381
:104840004D04E0934C046DC0DE0120E030E0AE1773
:10485000BF0750F412964D915C9113979D0141153D
:10486000510509F1DA01F3CFB383A283408151816D
:10487000840F951F8A179B0771F48D919C91119756
:10488000840F951F02969183808312968D919C913F
:104890001397938382832115310529F4F0934F04F4
:1048A000E0934E043EC0D9011396FC93EE93129709
:1048B0004D915D91A40FB51FEA17FB0779F4808134
:1048C0009181840F951F0296D90111969C938E9326
:1048D0008281938113969C938E931297E0E0F0E08F
:1048E0008A819B81009719F0FE01EC01F9CFCE017E
:1048F000029628813981820F931F20914C043091B8
:104900004D042817390769F4309729F410924F04A1
:1049100010924E0402C013821282D0934D04C093B1
:104920004C04DF91CF910895A0E0B0E0EAE9F4E211
:104930000C943827EC01CB01209719F40E946D23C9
:10494000B8C0FE01E60FF71F9E0122503109E217A1
:10495000F30708F4ACC0D9010D911C91119706170B
:104960001707B8F00530110508F49FC0A80144509E
:1049700051094617570708F498C002501109061B41
:10498000170B019311936D937C93CF010E94052423
:104990008CC05B01A01AB10A4E01800E911EA0913D
:1049A0004E04B0914F04612C712C60E070E01097C0
:1049B00009F449C0A815B905C9F5ED90FC90119707
:1049C000670142E0C40ED11CCA14DB0478F1470130
:1049D0008A189B08640142E0C40ED11C1296BC9058
:1049E00012971396AC91B5E0CB16D10440F0B28289
:1049F000A38391828082D9018D939C9309C00E5F1D
:104A00001F4F0E0D1F1DF90111830083EB2DFA2F8F
:104A10006115710531F0DB011396FC93EE9312974B
:104A200044C0F0934F04E0934E043FC06D917C91DD
:104A300011976616770608F43B01BD0112960D909A
:104A4000BC91A02DB4CF60914C0470914D046815B9
:104A50007905E9F468167906D0F440910001509187
:104A600001014115510541F44DB75EB76091040154
:104A700070910501461B570BE417F507C0F4F0933E
:104A80004D04E0934C04F901918380830EC00E9491
:104A90006D237C01009759F0A801BE010E94722588
:104AA000CE010E940524C70104C0CE0102C080E0EF
:104AB00090E0CDB7DEB7EEE00C9454276627772759
:104AC0000C94B6259111B5C1803219F089508550EA
:104AD000D0F708959111089581548A5108F4805EA9
:104AE000855A0895FB01DC0102C001900D924150EE
:104AF0005040D8F708956817790768F4FB01DC0186
:104B0000E40FF51FA40FB51F02C002900E92415092
:104B10005040D8F708950C947225FB01DC010190F8
:104B20000D920020E1F70895FB0151915523A9F062
:104B3000BF01DC014D9145174111E1F759F4CD0159
:104B40000190002049F04D9140154111C9F3FB013E
:104B50004111EFCF81E090E001970895F999FECFE0
:104B600092BD81BDF89A992780B50895A0E0B0E084
:104B7000ECEBF5E20C943A278B016115710521F0FD
:104B8000DB018C9311969C93EC015E01BFEFAB1A95
:104B9000BB0A7501C8808C2D90E00E946225892B8C
:104BA00011F0E501F2CFEDE2CE1208C07E01F2E095
:104BB000EF0EF11CC980DD24D39409C02BE2C21290
:104BC00005C07E0142E0E40EF11CC980D12CE70152
:104BD000219743E050E06CE571E0CE010E941C2774
:104BE000892BC1F4239645E050E067E571E0CE01E2
:104BF0000E941C27892B09F425960115110519F02F
:104C0000D801CD93DC93D11006C160E070E080E85C
:104C10009FE70AC143E050E064E571E0CE010E94E5
:104C20001C27892B59F40115110509F4F9C0B2E0CC
:104C3000EB0EF11CF801F182E082F2C0F70160E0B6
:104C400070E0CB01C0E0D0E07F01A0EDAA2EAC0C5B
:104C500029E02A1530F14D2D4260B42E2D2D2870FB
:104C6000D2FE04C0211125C0219623C02111219715
:104C7000A5E0B0E09B01AC010E944D23660F771FB9
:104C8000881F991F6A0D711D811D911D6839A9E941
:104C90007A078A07A9E19A0760F0BD2DB660BB2E9E
:104CA00008C02EEFA2120AC0D3FC50C04D2D4860A0
:104CB000B42E3196D701CC90DB2CC6CF2C2D2F7D76
:104CC000253409F043C0A081AD3241F4BD2DB0615F
:104CD000DB2E7F0122E0E20EF11C0CC07F01AB3223
:104CE00031F04FEFE41AF40A21E030E006C0A2E010
:104CF000EA0EF11CA18122E030E0A053AA3018F0A6
:104D0000E21AF30A23C0F70120E030E02038BCE0CB
:104D10003B075CF4A901440F551F440F551F240F96
:104D2000351F220F331F2A0F311DAF014F5F5F4F19
:104D30007A01A081A053AA3010F4FA01E7CFD4FE83
:104D400003C0319521953109C20FD31FD1FE09C08F
:104D50000115110531F0E1E0EE1AF108D801ED92EC
:104D6000FC920E94E2202D2D2370233019F04B017C
:104D70005C0106C04B015C01B7FAB094B7F8B0947F
:104D800020E030E0A901C501B4010E94422088233F
:104D900009F43EC0D7FF06C0D195C195D10903E7FC
:104DA00011E002C00BE811E06801B8E1CB1AD108AC
:104DB00090E2E92EF12CCE15DF0574F0F801259173
:104DC000359145915491C501B4010E9429224B01AE
:104DD0005C01CE19DF09EFCF04501109F594E79477
:104DE0000C151D0541F78A2D880F8B2D881F8F3FCD
:104DF00049F020E030E0A901C501B4010E94422041
:104E0000811106C082E290E0909351048093500497
:104E1000C501B40109C060E070E080E89FEF04C004
:104E200060E070E080EC9FE7CDB7DEB7ECE00C947B
:104E30005627992788270895FB01DC0141505040EF
:104E400088F08D9181341CF08B350CF4805E659177
:104E500061341CF06B350CF4605E861B611171F3DC
:104E6000990B0895881BFCCF2F923F924F925F922F
:104E70006F927F928F929F92AF92BF92CF92DF926A
:104E8000EF92FF920F931F93CF93DF93CDB7DEB7CF
:104E9000CA1BDB0B0FB6F894DEBF0FBECDBF099463
:104EA0002A88398848885F846E847D848C849B84BA
:104EB000AA84B984C884DF80EE80FD800C811B81C8
:104EC000AA81B981CE0FD11D0FB6F894DEBF0FBEF7
:104ED000CDBFED01089511E0C8E9D1E004C0FE01A5
:104EE0000E945A232296CA39D107C9F7F894FFCFF6
:104EF00000005204800001000000012800670061EA
:104F00000068656C700050756D70204F6E005075B4
:104F10006D70204F666600416C61726D0028782CC0
:104F2000792C7A29206D6F76657320746F20636FFA
:104F30006F7264696E6174652028782C792C7A29E7
:104F40000028302C782C792C7A29206D6F766573A7
:104F500020746F20636F6F7264696E6174652028BE
:104F6000782C792C7A290028312C782C792C7A29E4
:104F7000206D6F7665732062792028782C792C7AE1
:104F80002920696E20746865697220726573706586
:104F9000637469766520646972656374696F6E73A2
:104FA00000286729206D6F76657320746F20677203
:104FB0006F756E6400286E29207475726E73206F91
:104FC0006E2070756D7000286629207475726E737E
:104FD000206F66662070756D700028612920736FE0
:104FE000756E647320616C61726D002864292064A1
:104FF0006574616368657320616C6C20736572769B
:105000006F7300286C2920676574732074686520AD
:1050100063757272656E74206C6F636174696F6E14
:10502000206F66207468652061726D00446574614C
:10503000636820616C6C003E3E0000000000451675
:105040001816ED15F5150816171600000000321A8F
:10505000AE1BB419CD19BF19101A0D0A006E616E7E
:0C50600000696E66006F7666002E00008E
:00000001FF
