:100000000C944A010C9472010C9472010C947201CC
:100010000C9472010C9472010C9472010C94720194
:100020000C9472010C9472010C9472010C9457069A
:100030000C9472010C9472010C9472010C94720174
:100040000C94EC180C9472010C94DF1B0C94111C92
:100050000C9472010C9472010C9472010C94720154
:100060000C94BF170C947201036EDB363D9A99997C
:10007000993DABAAAA2A3E000000803F084AD73B20
:100080003BCE016E84BCBFFDC12F3D6C74319ABD67
:1000900056833DDA3D00C77F11BED9E4BB4C3E918B
:1000A0006BAAAABE000000803F072C7AA5BA6CC5D7
:1000B00090DA3B9365FC8BBC53F810FD3C56928361
:1000C0004DBD879D3AB63DCBC9BF5BBE73DA0FC944
:1000D0003F05A84CCDB2D44EB93836A9020C50B960
:1000E000918688083CA6AAAA2ABE000000803F008C
:1000F000496E636F7272656374000000000800024D
:1001000001000003040700000000000000000102DD
:100110000408102040800102040810200102040895
:100120001020040404040404040402020202020273
:10013000030303030303000000002300260029003B
:1001400000000000250028002B0000000000240013
:1001500027002A004E414E494E495459494E46CD3A
:10016000CCCC3D0AD7233C17B7D13877CC2B32956E
:1001700095E6241FB14F0A000020410000C842004C
:10018000401C4620BCBE4CCA1B0E5AAEC59D740016
:10019000407A10F35A00A0724E18090010A5D4E856
:1001A0000000E87648170000E40B54020000CA9AE9
:1001B0003B000000E1F5050000809698000000403B
:1001C000420F000000A08601000000102700000080
:1001D00000E803000000006400000000000A0000C6
:1001E0000000000100000000002C76D888DC674F7A
:1001F0000823DFC1DFAE59E1B1B796E5E3E453C6AA
:100200003AE651997696E8E6C28426EB898C9B62A1
:10021000ED407C6FFCEFBC9C9F40F2BAA56FA5F44B
:1002200090055A2AF75C936B6CF9676DC11BFCE073
:10023000E40D47FEF520E6B500D0ED902E030094C6
:100240003577050080841E080000204E0A0000005B
:10025000C80C333333330F986E12831141EF8D2165
:1002600014893BE65516CFFEE6DB18D1844B381BCC
:10027000F77C1D901DA4BBE424203284725E228191
:1002800000C9F124ECA1E53D2700C305CF16741782
:10029000411CC90511241FBECFEFD8E0DEBFCDBF82
:1002A00012E0A0E0B1E0EEE3F6E502C005900D92A9
:1002B000AA33B107D9F724E0AAE3B2E001C01D9246
:1002C000A031B207E1F712E0C2E9D2E004C0229700
:1002D000FE010E948A24CA38D107C9F70E94851CF2
:1002E0000C94122B0C94000086E692E00C94BE163F
:1002F0002F923F924F925F926F927F928F929F9236
:10030000AF92BF92CF92DF92EF92FF920F931F9323
:10031000CF93DF93CDB7DEB7A0970FB6F894DEBFCB
:100320000FBECDBF8C012DB73EB738A32F8FE12C68
:10033000F12C212C312CD80114968D919C9115977C
:10034000E816F90678F4B701C8010E94171FDC010E
:100350008C91883219F4BFEF2B1A3B0AEFEFEE1A9B
:10036000FE0AE9CFC101880F991F880F991FEDB7C9
:10037000FEB7E81BF90B0FB6F894FEBF0FBEEDBF3A
:100380002DB73EB72F5F3F4F7901C12CD12CA12C47
:10039000B12CD80114968D919C911597C816D90649
:1003A00048F5B601C8010E94171FDC018C91883204
:1003B00049F4F501EE0FFF1FEE0FFF1FEE0DFF1DBD
:1003C000D182C082B601C8010E94171FFC01808142
:1003D000893261F4F501EE0FFF1FEE0FFF1FEE0DE6
:1003E000FF1DD382C282FFEFAF1ABF0A2FEFC21ADE
:1003F000D20ACFCF86E0829DF001839DF00D1124BB
:10040000FC8FEB8F2DB73EB72E1B3F0B0FB6F8942A
:100410003EBF0FBE2DBF8DB79EB701969A8F898FB5
:100420005C01C12CD12CC214D30461F06AE272E0E9
:10043000C5010E94F41D96E0A90EB11CAFEFCA1AC7
:10044000DA0AF1CFC98CDA8C612C712C6214730436
:10045000DCF5F7012281338140815181B801CE0161
:1004600001960E948A1FBE016F5F7F4FC6010E94E6
:100470000A1ECE0101960E94861D6AE272E0CE013C
:1004800001960E94F41D6DE171E0CE0107960E9475
:10049000F41DAE014F5F5F4FBE01695F7F4FC60124
:1004A0000E94CF1FCE0107960E94861DCE010196A5
:1004B0000E94861DFFEF6F1A7F0A24E0E20EF11CF6
:1004C00036E0C30ED11CC2CFC10124E0880F991FB2
:1004D0002A95E1F7ADB7BEB7A81BB90B0FB6F894D4
:1004E000BEBF0FBEADBFEDB7FEB73196FE8FED8F2D
:1004F000698C7A8C7F01812C912C821493042CF0CE
:100500006D8C7E8C412C512C07C2C12CD12CAA247D
:10051000AA94BA2C0FEF1FEF44244A94542CD30111
:1005200014968D919C911597C816D906B8F4B6010A
:10053000C3010E943A1F8C3269F4FFEF4F165F0629
:1005400031F00F3F2FEF120721F4860103C026017F
:1005500001C056013FEFC31AD30AE1CFBFEF4B16DC
:100560005B0609F4B2C00F3FEFEF1E0709F431C17B
:10057000FFEFAF16BF0609F04AC0D7011D921D92CA
:100580001D921C921397920140E050E0B301CE01FE
:1005900001960E948A1FCE0101960E94C220F70197
:1005A0006483758386839783CE0101960E94861D9E
:1005B000A2014F5F5F4F9801B301CE0101960E94E7
:1005C0008A1FCE0101960E94C220D70118966D9312
:1005D0007D938D939C931B97CE0101960E94861D5F
:1005E000F30124813581A8014F5F5F4FB301CE0134
:1005F00001960E948A1FCE0101960E94C220D70157
:100600001C966D937D938D939C931F9759C0920177
:1006100040E050E0B301CE0101960E948A1FCE0156
:1006200001960E94C220F7016083718382839383C5
:10063000CE0101960E94861DA2014F5F5F4F980177
:10064000B301CE0101960E948A1FCE0101960E943D
:10065000C220D70114966D937D938D939C93179729
:10066000CE0101960E94861DA8014F5F5F4F950144
:10067000B301CE0101960E948A1FCE0101960E940D
:10068000C220F7016087718782879387CE01019628
:100690000E94861DD30114962D913C911597A501BA
:1006A0004F5F5F4FB301CE0101960E948A1FCE01BA
:1006B00001960E94C220F701648775878687978715
:1006C000CE0101960E94861D84C00F3F1F4F09F086
:1006D00080C0AB20A09409F07CC06BE071E0CE013B
:1006E00001960E94F41DBE016F5F7F4FC3010E94FF
:1006F000DE1E182FCE0101960E94861D112329F0BF
:1007000080E090E0A0E0B0E45FC067E271E0CE017D
:1007100001960E94F41DBE016F5F7F4FC3010E94CE
:10072000DE1E182FCE0101960E94861D112329F08E
:1007300080E090E0A0E4B0E447C060E371E0CE0167
:1007400001960E94F41DBE016F5F7F4FC3010E949E
:10075000DE1E182FCE0101960E94861D112329F05E
:1007600080E090E0A0E8B0E42FC06DE071E0CE0141
:1007700001960E94F41DBE016F5F7F4FC3010E946E
:10078000DE1E182FCE0101960E94861D112329F02E
:1007900080E090E0A0EAB0E417C06FE071E0CE0125
:1007A00001960E94F41DBE016F5F7F4FC3010E943E
:1007B000DE1E182FCE0101960E94861D112349F0DE
:1007C00080E090E0A0ECB0E4F70180839183A28305
:1007D000B383FFEF8F1A9F0A20E1E20EF11C36E08F
:1007E000630E711C8ACED301CD90DD90ED90FC900C
:1007F00020E030E0A901C701B6010E9472218111F9
:1008000090C0F301C484D584E684F7840085118503
:100810002285338544815581668177811F921F929D
:10082000F0E4FF931F921F921F9282E08F93812C1E
:10083000912C540186E692E00E94701240918A0247
:1008400050918B0260918C0270918D0222E0CE015A
:1008500001960E94421E409186025091870260914B
:1008600088027091890222E0CE0107960E94421E02
:1008700040918202509183026091840270918502BE
:1008800022E0CE0143960E94421E64E171E0CE0157
:100890000D960E94F41DBE016D5E7F4FCE010D9638
:1008A0000E94B11E6FE171E00E94C41EBE01695F2B
:1008B0007F4F0E94B11E6FE171E00E94C41EBE0115
:1008C0006F5F7F4F0E94B11E6AE571E00E94C41EF7
:1008D000BC018CE693E00E941B1DCE010D960E9488
:1008E000861DCE0143960E94861DCE0107960E946A
:1008F000861DCE0101960E94861D2DB73EB7295F49
:100900003F4F0FB6F8943EBF0FBE2DBF3FEF431AC7
:10091000530A80E1680E711C421453040CF463CF37
:1009200001C120E030E040E85FE3C701B6010E946A
:10093000722181111EC0D3011C96CD90DD90ED90E7
:10094000FC901F9718960D911D912D913C911B972E
:1009500014964D915D916D917C9117971F921F9206
:10096000BFE3BF93E0E8EF931F921F92F3E0FF9382
:100970005ECF20E030E040E050E4C701B6010E94C5
:100980007221811164C086E692E00E94B8164091FF
:100990008A0250918B0260918C0270918D0222E04C
:1009A000CE0101960E94421E40918602509187021C
:1009B000609188027091890222E0CE0107960E9420
:1009C000421E409182025091830260918402709194
:1009D000850222E0CE0143960E94421E64E171E04E
:1009E000CE010D960E94F41DBE016D5E7F4FCE01BB
:1009F0000D960E94B11E6FE171E00E94C41EBE01FF
:100A0000695F7F4F0E94B11E6FE171E00E94C41EBA
:100A1000BE016F5F7F4F0E94B11E6AE571E00E94C8
:100A2000C41EBC018CE693E00E941B1DCE010D96F6
:100A30000E94861DCE0143960E94861DCE01079618
:100A40000E94861DCE0101960E94861D5FCF20E088
:100A500030E040E450E4C701B6010E9472218111E8
:100A600007C086E692E00E943D1661E271E055C043
:100A700020E030E040E850E4C701B6010E94722156
:100A8000811107C086E692E00E944D1669E271E08E
:100A900044C020E030E040EA50E4C701B6010E94C3
:100AA000722181110AC02AE044E16AE086E692E000
:100AB0000E94790862E371E030C020E030E040EC51
:100AC00050E4C701B6010E94722181111FCF68E373
:100AD00071E08CE693E00E942D1D6CE571E08CE6E0
:100AE00093E00E942D1D62E871E08CE693E00E9485
:100AF0002D1D6CEB71E08CE693E00E942D1D6FECD8
:100B000071E08CE693E00E942D1D61EE71E08CE6B1
:100B100093E00E942D1D64EF71E08CE693E00E944B
:100B20002D1DF4CE0B8D1C8DA98DBA8D0A0F1B1FA8
:100B3000E98DFA8D0E171F0731F006501109C80113
:100B40000E94861DF5CF2F8D38A10FB6F8943EBFB9
:100B50000FBE2DBFA0960FB6F894DEBF0FBECDBF5F
:100B6000DF91CF911F910F91FF90EF90DF90CF9089
:100B7000BF90AF909F908F907F906F905F904F90BD
:100B80003F902F9008956AE272E08AE392E00C941D
:100B9000F41D8AE392E00C94861D1F93CF93DF939C
:100BA000CDB7DEB72C970FB6F894DEBF0FBECDBF22
:100BB0008CE693E00E949A1A892B61F18CE693E00F
:100BC0000E94B31A182F682F8AE392E00E949E1E9B
:100BD0001A3071F76AE272E0CE0101960E94F41DAC
:100BE00069E272E0CE0107960E94F41DAE014F5FEC
:100BF0005F4FBE01695F7F4F8AE392E00E94CF1F83
:100C0000CE0107960E94861DCE0101960E94861D88
:100C100081E000C02C960FB6F894DEBF0FBECDBFAA
:100C2000DF91CF911F910895CF93DF9300D000D033
:100C300000D0CDB7DEB762E370E080E090E00E94C4
:100C400059190E94CD05882349F165E072E0CE0173
:100C500001960E94F41D6AE372E0CE0101960E94A3
:100C6000B11EBC018CE693E00E941B1DCE010196D3
:100C70000E94861D6AE372E0CE0101960E94211E49
:100C8000CE0101960E947801CE0101960E94861D38
:100C90006AE272E08AE392E00E942A1E26960FB66C
:100CA000F894DEBF0FBECDBFDF91CF9108951F92A4
:100CB0000F920FB60F9211242F933F934F935F9390
:100CC0006F937F938F939F93AF93BF93EF93FF9314
:100CD0008091410287FF05C0109285001092840028
:100CE0001AC020914102332727FD309580914002A0
:100CF00090E0281739077CF480914102992787FDFD
:100D00009095FC01EE0FFF1FE80FF91FEE5BFD4F02
:100D1000808186FD15C0809141028F5F80934102E2
:100D200020914102332727FD30958091400290E0C9
:100D300028173907BCF4809141028C305CF112C055
:100D400080914102992787FD9095FC01EE0FFF1FCE
:100D5000E80FF91FEE5BFD4F808160E08F730E940A
:100D60003B1AD9CF809184009091850004968034FD
:100D70009C4918F480E49CE905C08091840090911E
:100D80008500049690938900809388008FEF80936C
:100D9000410238C020918400309185008091410249
:100DA000992787FD9095FC01EE0FFF1FE80FF91FB3
:100DB000EE5BFD4F81819281820F931F909389009A
:100DC0008093880080914102992787FD9095FC01CE
:100DD000EE0FFF1FE80FF91FEE5BFD4F808186FFCE
:100DE00011C080914102992787FD9095FC01EE0F7B
:100DF000FF1FE80FF91FEE5BFD4F808161E08F73ED
:100E00000E943B1AFF91EF91BF91AF919F918F91FB
:100E10007F916F915F914F913F912F910F900FBEF6
:100E20000F901F901895209140022C30A0F431E0D3
:100E3000320F30934002FC012083822F90E0FC01AE
:100E4000EE0FFF1FE80FF91FEE5BFD4F88EB9BE0F5
:100E50009283818308952FEFFC0120830895DF9210
:100E6000EF92FF920F931F93CF93DF93EC01D62E57
:100E70007A01890188818C3008F066C061E08D2D8F
:100E80000E94021A8881A82FB0E0FD01EE0FFF1F1B
:100E9000EA0FFB1FEE5BFD4F2D2D2F739081907C91
:100EA000922B908360E272E06E197F0977FF02C097
:100EB0006D5F7F4F7595679575956795698340E67A
:100EC00059E0401B510B57FF02C04D5F5F4F5595D6
:100ED0004795559547954A836CE00E9430249CE0E5
:100EE000899FB001112420E030E0A901460F571F6F
:100EF000FA01EE0FFF1FE40FF51FEE5BFD4F90812F
:100F000096FD16C02F5F3F4F2C30310571F78111D0
:100F10000FC01092800082E08093810010928500C3
:100F200010928400B19A80916F00826080936F006C
:100F3000888190E0FC01EE0FFF1FE80FF91FEE5BC8
:100F4000FD4F8081806480838881DF91CF911F91E4
:100F50000F91FF90EF90DF90089520E639E040E296
:100F600052E00C942F07FC0180818C3070F5918148
:100F700028E830E0291B310997FD3395220F331FF4
:100F8000220F331F621773077CF0928128E532E04D
:100F9000291B310997FD3395220F331F220F331F71
:100FA000621773070CF49B0122503109220F331F83
:100FB0004FB7F89490E0FC01EE0FFF1FE80FF91F08
:100FC000EE5BFD4F328321834FBF08954F925F92B6
:100FD0006F927F92AF92BF92CF92DF92EF92FF9289
:100FE0000F931F93CF93DF93EC01603282E0780779
:100FF0000CF040C077FD06C0653B71052CF064EB3A
:1010000070E002C060E070E0898128E830E0281BD1
:10101000310987FD3395220F331F220F331F5901EA
:10102000CC24B7FCC094DC2C882777FD8095982FC2
:101030002A8148E552E0421B510927FD5395440F90
:10104000551F440F551F2A01662457FC6094762CC7
:101050007F926F925F924F9214EBE12EF12C00E0A1
:1010600010E020E030E0A9010E943F1D0F900F909A
:101070000F900F90CE01DF91CF911F910F91FF90B4
:10108000EF90DF90CF90BF90AF907F906F905F9088
:101090004F900C94B307FC01808190E0FC01EE0FAF
:1010A000FF1FE80FF91FEE5BFD4F808186FB88274D
:1010B00080F908950C94FF26CF93DF93EC018B9673
:1010C0000E941307CE018E960E941307CE01C1968F
:1010D0000E941307CE01C4960E941307CE01C79643
:1010E0000E9413071AAE1BAE1CAE1DAEDF91CF914E
:1010F00008958F929F92AF92BF92CF92DF92EF921C
:10110000FF920F931F93CF93DF9300E010E0C62F61
:10111000D0E0C22ED12CE12CF12C842E912CA12CCC
:10112000B12C0C171D079CF4C701B6010E94591978
:1011300061E083E00E943B1AC501B4010E94591985
:1011400060E083E00E943B1A0F5F1F4FEACFDF9100
:10115000CF911F910F91FF90EF90DF90CF90BF90B4
:10116000AF909F908F900895CF92DF92EF92FF9271
:101170000F931F93CF93DF93EC018FEF860F833094
:1011800070F5062F10E0045D1F4F000F111FC801FE
:1011900001960E945A08682F70E080E090E00E945B
:1011A000142220E030E040E251E40E9479216B01FA
:1011B0007C016AAF7BAF8CAF9DAFC8010E945A081B
:1011C000811108C0F7FAF094F7F8F094CAAEDBAEDC
:1011D000ECAEFDAE5AAD4BAD3CAD2DAD0CC06430A8
:1011E00031F060EF70E08CE693E00E94091D50E062
:1011F00040E030E020E0652F742F832F922FDF91A5
:10120000CF911F910F91FF90EF90DF90CF900895B5
:10121000CF92DF92EF92FF921F93CF93DF93EC0177
:10122000162F69017A010E94B4089B01AC01C70125
:10123000B6010E94CF2020E030E0A9010E94722177
:1012400087FF12C0612FCE010E94B4089B01AC0140
:10125000C701B6010E94CF2020E030E0A9010E9422
:10126000722187FF37C034C0612FCE010E94B408BD
:101270009B01AC01C701B6010E94CF2020E030E005
:1012800044E353E40E944E231816E4F2612FCE018A
:101290000E94B4089B01AC01C701B6010E94CF2097
:1012A00020E030E0A9010E944E2387FFCBCF612FC1
:1012B000CE010E94B4089B01AC01C701B6010E9497
:1012C000CF2020E030E0A9010E94722187FF25C0D5
:1012D00060E04BC0612FCE010E94B4089B01AC01BD
:1012E000C701B6010E94CF2020E030E044E353E480
:1012F0000E944E231816B4F1612FCE010E94B4084B
:101300009B01AC01C701B6010E94CF2020E030E074
:1013100040E05FE30E94CF2022C0612FCE010E94F7
:10132000B4089B01AC01C701B6010E94CF2020E0A8
:1013300030E044E353E40E944E231816ACF0612FD2
:10134000CE010E94B4089B01AC01C701B6010E9406
:10135000CF2020E030E040E05FE30E94CE200E94FA
:10136000E12103C064EB01C063EB862FDF91CF91D5
:101370001F91FF90EF90DF90CF9008952F923F92B2
:101380004F925F926F927F928F929F92AF92BF9295
:10139000CF92DF92EF92FF920F931F93CF93DF9341
:1013A0001C012A013B01122F822F90E0019726E0B9
:1013B000289FE001299FD00D1124CE01CD960E94D7
:1013C0005A08F82ECE01CE960E945A08682F70E077
:1013D000762F66276F0D711D882777FD8095982FD2
:1013E0000E94142220E030E040E251E40E94792182
:1013F0006B017C01CE01CC960E945A08811104C079
:10140000F7FAF094F7F8F094CE01805C9F4F0E94B9
:101410005A08982ECE018F5B9F4F0E945A08682F62
:1014200070E0762F6627690D711D882777FD8095FE
:10143000982F0E94142220E030E048EC52E40E94F1
:1014400079214B015C01CE01CF960E945A0881118F
:1014500004C0B7FAB094B7F8B094011119C0A30151
:101460009201C501B4010E9459239B01AC01C7013F
:10147000B6010E94CF206B017C01612FC1010E9447
:10148000B4089B01AC01C701B6010E94CE200EC07A
:10149000013081F4A3019201C501B4010E945923D6
:1014A0009B01AC01C701B6010E94CF20562F472FE8
:1014B000382F292F652F742F832F922FDF91CF91F3
:1014C0001F910F91FF90EF90DF90CF90BF90AF9062
:1014D0009F908F907F906F905F904F903F902F9054
:1014E00008950F93CF93DF93EC01042F623021F125
:1014F00088F4613009F042C082E00E94BC19BC014E
:10150000882777FD8095982F0E941422AB01BC019B
:1015100021E02DC06330F1F0643081F583E00E945A
:10152000BC19BC01882777FD8095982F0E94142252
:10153000AB01BC0124E01BC080E00E94BC19BC01CF
:10154000882777FD8095982F0E941422AB01BC015B
:1015500022E00DC081E00E94BC19BC01882777FD04
:101560008095982F0E941422AB01BC0123E0CE018C
:101570000E94BE09562F472F382F292F652F742F11
:10158000832F922FDF91CF910F91089540E00C941B
:10159000710A0F931F93CF93DF93EC018C01055DCC
:1015A0001F4FC8010E944B0881110DC06BE070E015
:1015B000C8010E94AD0761E0CE010E94C60A68839F
:1015C00079838A839B838E01025D1F4FC8010E942D
:1015D0004B0881110DC06DE070E0C8010E94AD079D
:1015E00062E0CE010E94C60A6C837D838E839F8356
:1015F0008E010F5C1F4FC8010E944B0881110DC066
:101600006CE070E0C8010E94AD0763E0CE010E946B
:10161000C60A688779878A879B878E010C5C1F4F73
:10162000C8010E944B0881110DC06AE070E0C8013A
:101630000E94AD0764E0CE010E94C60A6C877D87D8
:101640008E879F87DF91CF911F910F9108952F92E1
:101650003F924F925F926F927F928F929F92AF9242
:10166000BF92CF92DF92EF92FF920F931F93CF938F
:10167000DF9300D000D01F92CDB7DEB71C014983A5
:101680005A836B837C83280139010E94C90A20E0B8
:1016900030E040E251E4C301B2010E94722187FDB3
:1016A00011C020E030E040EF52E4C301B2010E94DB
:1016B0004E2318166CF4412C512C50EF652E52E439
:1016C000752E06C0412C512C60E2662E61E4762E08
:1016D00020E030E040E251E4C701B6010E947221EF
:1016E00087FD11C020E030E04CED52E4C701B601A7
:1016F0000E944E2318166CF4C12CD12C3CEDE32E25
:1017000032E4F32E06C0C12CD12C40E2E42E41E499
:10171000F42EA7019601C301B2010E94CF2020E060
:1017200030E040E253E40E944E2318160CF44FC000
:1017300029813A814B815C8161E0C1010E940809E5
:10174000782FA301920162E0C1017D830E94080904
:10175000182FA701960163E0C1010E940809082F14
:10176000A501940164E0C1010E940809282F7D8130
:10177000672F70E0C1018B962D830E94E607612FD1
:1017800070E0C1018E960E94E607602F70E0C101F3
:10179000C1960E94E6072D81622F70E0C101C496B8
:1017A0000E94E60789819A81AB81BC81F101808327
:1017B0009183A283B3834482558266827782C086F6
:1017C000D186E286F38684869586A686B7860F90B4
:1017D0000F900F900F900F90DF91CF911F910F916D
:1017E000FF90EF90DF90CF90BF90AF909F908F9041
:1017F0007F906F905F904F903F902F9008952F9221
:101800003F924F925F926F927F928F929F92AF9290
:10181000BF92CF92DF92EF92FF920F931F93CF93DD
:10182000DF93CDB7DEB728970FB6F894DEBF0FBEB3
:10183000CDBF1C014D835E836F837887C901B801DA
:1018400026EE3EE245E652E40E9479214B015C011E
:101850000E9476212B013C0126EE3EE245E652E451
:10186000C701B6010E9479216B017C010E9476219B
:1018700069837A838B839C8323E333E34DE651E4CE
:10188000C301B2010E9459232EEE3CE747E050E429
:101890000E94CF202B013C0126EF38E240E851E4C2
:1018A00069817A818B819C810E9459239B01AC01C3
:1018B000C301B2010E94CF2069837A838B839C830A
:1018C00026EE3EE245E652E46D817E818F81988569
:1018D0000E9479212B013C010E9476219058298198
:1018E0003A814B815C810E945923F101648F758F8D
:1018F000868F978F20E030E0A901C301B2010E94DA
:101900004E23181624F0C301B201905802C0C3013F
:10191000B2010E94BC23905829813A814B815C819D
:101920000E945923F10160A371A382A393A320E035
:1019300030E0A901C501B4010E944E23181624F01D
:10194000C501B401905802C0C501B4010E94BC2376
:1019500023E333E34DE651E40E94592326E83BEEAE
:1019600043E351E40E94CF204B015C0120E030E0D2
:10197000A901C701B6010E944E23181624F0C70121
:10198000B601905802C0C701B6010E94BC2326EFE1
:1019900038E240E851E40E9459239B01AC01C501A3
:1019A000B4010E94CE20F10164A375A386A397A37E
:1019B00028960FB6F894DEBF0FBECDBFDF91CF9152
:1019C0001F910F91FF90EF90DF90CF90BF90AF905D
:1019D0009F908F907F906F905F904F903F902F904F
:1019E00008952F923F924F925F926F927F928F92C3
:1019F0009F92AF92BF92CF92DF92EF92FF920F939E
:101A00001F93CF93DF93CDB7DEB762970FB6F894ED
:101A1000DEBF0FBECDBF4A015B01C901B8011C2D5D
:101A2000A50194010E94CE2069837A838B839C83D5
:101A3000E98AFA8A212C312CDC01CB01B0588D8344
:101A40009E83AF83B887622D123009F441C0E0F461
:101A5000112309F4BAC0113009F00CC1B101882773
:101A600077FD8095982F0E9414229B01AC0169811B
:101A70007A818B819C810E94592320E030E048E4E8
:101A800052E40E94792195C0133009F46EC01430DD
:101A900009F0F0C070E080E090E00E94122220E0A7
:101AA00030E048E452E40E9479212B013C019B0183
:101AB000AC016D817E818F8198850E9459236B01D5
:101AC0007C0120E030E040E050E4C301B20169C095
:101AD000B101882777FD8095982F0E94142220E07D
:101AE00030E048EC51E40E9479212B013C0120E0D8
:101AF00030E040E85FE30E94722187FF0DC020E0E4
:101B000030E040E05FE369817A818B819C810E94B3
:101B10005923A30192013CC020E030E040E85FE39C
:101B2000C301B2010E94CE202B013C0120E030E035
:101B300040E05FE36D817E818F8198850E9459230B
:101B40006B017C0120E030E040E050E4C301B201D1
:101B50000E94CE209B01AC01C301B2010E94592317
:101B600020E030E040E85FE31CC070E080E090E0FF
:101B70000E94122220E030E048E452E40E947921E1
:101B80002B013C019B01AC0169817A818B819C8195
:101B90000E945923A30192010E945923A501940197
:101BA00061C00E94CE209B01AC01C701B6010E941A
:101BB0005923A50194010E94CF20A989BA896D9368
:101BC0007D938D939C93139755C070E080E090E0D7
:101BD0000E94122220E030E048E452E40E94792181
:101BE0002B013C019B01AC010E9459236B017C013C
:101BF00020E030E040E450E469817A818B819C816F
:101C00000E945923A70196010E9459239B01AC0110
:101C1000C501B4010E94CF2069877A878B879C8792
:101C200020E030E040E050EC69817A818B819C813A
:101C30000E9459236D877E878F87988BA30192011D
:101C4000C701B6010E9459239B01AC016D857E85B9
:101C50008F8598890E9459239B01AC0169857A85FB
:101C60008B859C850E94CF20E989FA8960837183E6
:101C700082839383FFEF2F1A3F0A89899A890496FA
:101C80009A8B898B92E32916310409F0DCCE629697
:101C90000FB6F894DEBF0FBECDBFDF91CF911F917D
:101CA0000F91FF90EF90DF90CF90BF90AF909F90FB
:101CB0008F907F906F905F904F903F902F900895FE
:101CC0004F925F926F927F928F929F92AF92BF924C
:101CD000CF92DF92EF92FF920F931F93CF93DF93F8
:101CE00000D000D0CDB7DEB72A013B01C901B80151
:101CF00026EE3EE245E652E40E9479210E947621DA
:101D000069837A838B839C8326EE3EE245E652E428
:101D1000C701B6010E9479210E9476214B015C0126
:101D200023E333E34DE651E469817A818B819C8121
:101D30000E9459232EEE3CE747E050E40E94CF205A
:101D40006B017C0126EF38E240E851E4C501B401A3
:101D50000E9459239B01AC01C701B6010E94CF200C
:101D60004B015C0126EE3EE245E652E4C301B201BE
:101D70000E9479216B017C0120E030E0A9010E94E2
:101D80004E23181624F0C701B601905802C0C701AF
:101D9000B6010E94BC239058A50194010E945923CA
:101DA0000F900F900F900F90DF91CF911F910F9197
:101DB000FF90EF90DF90CF90BF90AF909F908F906B
:101DC0007F906F905F904F9008952F923F924F9227
:101DD0005F926F927F928F929F92AF92BF92CF92BB
:101DE000DF92EF92FF920F931F93CF93DF93CDB7C4
:101DF000DEB764970FB6F894DEBF0FBECDBF1C01EF
:101E000049835A836B837C830D831E832F8338879A
:101E10002CE53FE844EC51E4C701B6010E944E2393
:101E200018169CF028E939E941E550ECC701B601E4
:101E30000E94722187FF11C0F8E9CF2EF9E9DF2E49
:101E4000F1E5EF2EF0ECFF2E08C0ACE5CA2EAFE8AE
:101E5000DA2EA4ECEA2EA1E4FA2E2EEE3CE747E0BF
:101E600050E46D817E818F81988590580E94CE20AC
:101E700023E333E34DE651E40E9479214B015C01F9
:101E800026E83BEE43E351E4C701B6010E94CE20B1
:101E900023E333E34DE651E40E9479212B013C0119
:101EA000A5019401C501B4010E9459236D877E8765
:101EB0008F87988BA3019201C301B2010E9459231D
:101EC00069877A878B879C872D853E854F855889C2
:101ED0000E94CF200E94C623698B7A8B8B8B9C8BB0
:101EE00020E030E0A90169817A818B819C810E9488
:101EF00072218111A2C080E090E0A4EBB2E4F10174
:101F0000808B918BA28BB38B20E030E0A901C301C1
:101F1000B2010E9472218823C9F0C501B401905812
:101F2000A30192010E9479210E944A2126EE3EE2FD
:101F300045E652E40E9459234B015C0120E030E069
:101F4000A9010E944E2318168CF406C0812C912CF6
:101F5000E4EBAE2EE2E4BE2E20E030E044E353E4B6
:101F6000C501B4010E94CE204B015C012D853E8548
:101F70004F85588960E070E080E89FE30E94CE20A2
:101F800029853A854B855C850E94CE2024E937E778
:101F900045E95FE30E94CE2026E531E54AE050E4C2
:101FA0000E94792129893A894B895C890E9479218B
:101FB0000E94332126EE3EE245E652E40E94592378
:101FC000A50194010E94CE204B015C0120E030E08D
:101FD000A9010E947221F10187FD05C0808E918EBA
:101FE000A28EB38E04C0108E118E128E138E26EE2A
:101FF0003EE245E652E4F101608D718D828D938D54
:102000000E9479210E94BC2326EF38E240E851E487
:102010000E9459239B01AC01C701B6010E94CF2049
:1020200026E83BEE43E351E40E94CE2023E333E372
:102030004DE651E40E94792125C129813A814B81E5
:102040005C816D817E818F8198850E9479214B0111
:102050005C010E944A2126EE3EE245E652E40E94DF
:1020600059236B017C0120E030E0A901C501B401D6
:102070000E94722187FD06C0F101C08AD18AE28ADE
:10208000F38A0DC020E030E044E353E4C701B60119
:102090000E94CF20F101608B718B828B938B20E0AB
:1020A00030E0A9016D817E818F8198850E94722127
:1020B00081111AC020E030E0A90169817A818B8109
:1020C0009C810E944E23181654F480E090E0A4E313
:1020D000B3E4F101808B918BA28BB38B05C0F1012E
:1020E000108A118A128A138A26EE3EE245E652E4ED
:1020F000F10160897189828993890E9479210E9406
:1021000076219B01AC0169817A818B819C819058F9
:102110000E9479212EEE3CE747E050E40E94CE2059
:1021200023E333E34DE651E40E9479214B015C0146
:1021300020E030E0A901C301B2010E94722188238E
:10214000C9F0A3019201C501B40190580E94792100
:102150000E944A2126EE3EE245E652E40E945923BF
:102160006B017C0120E030E0A9010E944E2318168B
:102170008CF406C0C12CD12C74EBE72E72E4F72E40
:1021800020E030E044E353E4C701B6010E94CE20D2
:102190006B017C01A5019401C501B4010E94592382
:1021A0009B01AC0169857A858B859C850E94CF2037
:1021B0004B015C010E94C62369837A838B839C83D5
:1021C00024E937E745E95FE3C501B4010E94CF2068
:1021D00020E030E040E85FE30E94CE20905826E502
:1021E00031E54AE050E40E94792129813A814B810E
:1021F0005C810E9479210E94332126EE3EE245E671
:1022000052E40E945923A70196010E94CE206B013F
:102210007C0120E030E0A9010E947221F10187FDDC
:1022200005C0C08ED18EE28EF38E04C0108E118E4A
:10223000128E138E26EE3EE245E652E4F101608DE9
:10224000718D828D938D0E9479216B017C0120E03C
:1022500030E0A9010E944E23181624F0C701B601F0
:10226000905802C0C701B6010E94BC2326E531E5A3
:102270004AE85FE30E9459239B01AC01C301B2010C
:102280000E94CF200E94332126EE3EE245E652E432
:102290000E945923F101648B758B868B978BF1011A
:1022A000408851886288738820E030E0A901C3012A
:1022B000B2010E944E23181624F077FA709477F832
:1022C0007094F101408A518A628A738A8488958861
:1022D000A688B78820E030E0A901C501B4010E94BA
:1022E0004E23181624F0B7FAB094B7F8B094F10161
:1022F000848A958AA68AB78AC08CD18CE28CF38CAA
:1023000020E030E0A901C701B6010E94722187FDDB
:102310002EC095018401B301A201C1010E94600E8B
:102320006B017C012DEC3CEC4CEC5DE36D817E811E
:102330008F8198850E94CF209B01AC01C701B60117
:102340000E944E2318160CF484C02DEC3CEC4CEC8F
:102350005DE36D817E818F8198850E94CE209B01F7
:10236000AC01C701B6010E94722187FD72C0A301B2
:102370009201C301B2010E940724811178C0E89440
:1023800077F82FEF3FEF4FE75FE7C301B2010E94FD
:10239000072481110BC02FEF3FEF4FE75FE7C30129
:1023A000B2010E94722118160CF461C0F101C488B8
:1023B000D588E688F788A7019601C701B6010E9473
:1023C000072481115FC0E894F7F82FEF3FEF4FE744
:1023D0005FE7C701B6010E94072481110BC02FEFF0
:1023E0003FEF4FE75FE7C701B6010E947221181661
:1023F0000CF448C0F101C08CD18CE28CF38CA701A5
:102400009601C701B6010E940724811146C046010A
:102410005701E894B7F82FEF3FEF4FE75FE7C501AB
:10242000B4010E94072481110AC02FEF3FEF4FE74C
:102430005FE7C501B4010E947221181674F120E013
:1024400030E0A901C701B6010E94722187FF2FC0A9
:1024500024C0A501940160E070E084E393E40E944D
:10246000CE20F101648B758B868B978B80CF61E0DA
:1024700086E692E00E94C60AF101608B718B828B26
:10248000938B94CF62E086E692E00E94C60AF10147
:10249000648B758B868B978BADCF63E086E692E07D
:1024A0000E94C60AF101608F718F828F938F6496AC
:1024B0000FB6F894DEBF0FBECDBFDF91CF911F9155
:1024C0000F91FF90EF90DF90CF90BF90AF909F90D3
:1024D0008F907F906F905F904F903F902F900895D6
:1024E0002F923F924F925F926F927F928F929F9224
:1024F000AF92BF92CF92DF92EF92FF920F931F9312
:10250000CF93DF93CDB7DEB7C654D3400FB6F89460
:10251000DEBF0FBECDBF1C012A013B01CD5CDC4FED
:10252000088319832A833B83C353D340C95CDC4FA0
:10253000C882D982EA82FB82C753D340C95DDC4F8F
:1025400088829982AA82BB82C752D34020E030E0C1
:10255000A901C301B2010E947221811108C0BAE031
:102560004B2EB7ED5B2EB3E26B2EBCE37B2EC1018D
:102570000E94C90AD1011896CD90DD90ED90FC9093
:102580001B9714960D911D912D913C9117974D918C
:102590005D916D917C91C1010E94FF0BD1015C9610
:1025A0008D919D910D90BC91A02DC55CDC4F8883D1
:1025B0009983AA83BB83CB53D340D10190968D914D
:1025C0009D910D90BC91A02DC15CDC4F88839983B7
:1025D000AA83BB83CF53D340D10194968D919D9113
:1025E0000D90BC91A02DCD5BDC4F88839983AA838D
:1025F000BB83C354D340C55ADC4FB881CB55D340BD
:10260000B170C55DDC4FB883CB52D340C45DDC4FA5
:102610001882CC52D340C55DDC4FE881F981CB52A2
:10262000D340BF01882777FD8095982F0E94142200
:102630004B015C019B01AC01C55CDC4F6881798179
:102640008A819B81CB53D3400E945923A3019201DD
:102650000E94CF20C15DDC4F688379838A839B838E
:10266000CF52D340A5019401C15CDC4F68817981D0
:102670008A819B81CF53D3400E945923CD5CDC4F8C
:10268000288139814A815B81C353D3400E94CF2086
:102690002B013C01A5019401CD5BDC4F6881798160
:1026A0008A819B81C354D3400E945923C95CDC4F6B
:1026B000288139814A815B81C753D3400E94CF2052
:1026C0004B015C016B017C0193018201C15DDC4F18
:1026D000488159816A817B81CF52D34086E692E05E
:1026E0000E94E50E8091760290917702A091780287
:1026F000B0917902C55DDC4F88839983AA83BB833F
:10270000CB52D34080917A0290917B02A0917C02BF
:10271000B0917D02CD5CDC4F88839983AA83BB8313
:10272000C353D34080917E0290917F02A09180029A
:10273000B0918102C95CDC4F88839983AA83BB83F3
:10274000C753D340C55ADC4F9881CB55D34091FF36
:1027500010C0D1011C962D913D914D915C911F9718
:10276000C95DDC4F688179818A819B81C752D340E2
:102770002BC0C55ADC4FB881CB55D340B2FF2EC019
:10278000F1012485358546855785C95DDC4F688113
:1027900079818A819B81C752D3400E94CF206B01EF
:1027A0007C01D1012D913D914D915C91C55DDC4F36
:1027B000688179818A819B81CB52D3400E94CE204F
:1027C0009B01AC01C701B6010E94CF20C95DDC4F5F
:1027D000688379838A839B83C752D34020E030E0AB
:1027E000A901C45ADC4F688179818A819B81CC55CB
:1027F000D3400E944E2318160CF0CDC1C05ADC4FB6
:10280000B881C056D340B13009F0D8C0F101408141
:10281000518162817381CF59DC4FC880C156D3404A
:102820009E01275A3D4F7901C55DDC4F0881198112
:102830002A813B81CB52D340C1010E94F10CD101CE
:1028400014964D915D916D917C911797CF59DC4F06
:10285000C880C156D340FE01EF56FE4F7F01CD5CCC
:10286000DC4F088119812A813B81C353D340C101C8
:102870000E94F10C3E01F9EC6F0E711CD10118960B
:102880004D915D916D917C911B97CF59DC4FC88024
:10289000C156D3407301C95CDC4F088119812A817C
:1028A0003B81C753D340C1010E94F10CF101448523
:1028B000558566857785CF59DC4FC880C156D34092
:1028C0009E012F5F3F4F7901C95DDC4F088119815F
:1028D0002A813B81C752D340C1010E94F10C2701DC
:1028E000CD5DDC4F79826882C352D340DE01AF56A2
:1028F000BE4FCB5DDC4FB983A883C552D340FE01E8
:10290000E75AFD4FC15DDC4FF983E883CF52D340D6
:10291000D2018D909D90AD90BD902D01CD5DDC4F8D
:10292000E881F981C352D340C190D190E190F190F8
:10293000CD5DDC4FF983E883C352D340CB5DDC4FE0
:10294000A881B981C552D3400D911D912D913D9122
:10295000CB5DDC4FB983A883C552D340C15DDC4F4A
:10296000E881F981CF52D3404191519161917191A8
:10297000C15DDC4FF983E883CF52D340C1010E948F
:10298000270B20E030E04AE754E4C45ADC4F68816A
:1029900079818A819B81CC55D3400E94592320E0C4
:1029A00030E048E452E40E9479210E94E6210E942E
:1029B00059194614570409F0ABCFEDC0C05ADC4F8B
:1029C000F881C056D340F111E6C0CF59DC4FC88022
:1029D000C156D3409E01275A3D4F7901C15DDC4F5E
:1029E000088119812A813B81CF52D340C55CDC4FDD
:1029F000488159816A817B81CB53D340C1010E94B8
:102A0000F10CCE018F569E4FCF5DDC4F99838883AA
:102A1000C152D340CF59DC4FC880C156D3407C014E
:102A200093018201C15CDC4F488159816A817B81BD
:102A3000CF53D340C1010E94F10CCF59DC4FC88065
:102A4000C156D340FE01E753FF4F7F01950184013A
:102A5000CD5BDC4F488159816A817B81C354D3406F
:102A6000C1010E94F10CD1011C964D915D916D91B7
:102A70007C911F97CF59DC4FC880C156D340FE01CF
:102A800031967F01C95DDC4F088119812A813B8124
:102A9000C752D340C1010E94F10C9E0127533F4F02
:102AA0003901CE018F569E4FCD5DDC4F99838883CF
:102AB000C352D340DE01A75ABD4FCB5DDC4FB98373
:102AC000A883C552D3402701D301CD90DD90ED906E
:102AD000FD903D01CD5DDC4FE881F981C352D340CB
:102AE0000191119121913191CD5DDC4FF983E88302
:102AF000C352D340CB5DDC4FA881B981C552D340CE
:102B00004D915D916D917D91CB5DDC4FB983A88333
:102B1000C552D340C1010E94E50EF201819091900F
:102B2000A190B1902F01D1015896CD90DD90ED90FC
:102B3000FC905B9754960D911D912D913C91579768
:102B400050964D915D916D917C915397C1010E947A
:102B5000270B20E030E04AE754E4C45ADC4F688198
:102B600079818A819B81CC55D3400E94592320E0F2
:102B700030E048E452E40E9479210E94E6210E945C
:102B80005919CF5DDC4FE881F981C152D3406E16EF
:102B90007F0609F099CFC95DDC4F88809980AA80B3
:102BA000BB80C752D340C95CDC4FC880D980EA8063
:102BB000FB80C753D340CD5CDC4F088119812A814B
:102BC0003B81C353D340C55DDC4F488159816A8145
:102BD0007B81CB52D340C1010E94270BCA5BDC4FE3
:102BE0000FB6F894DEBF0FBECDBFDF91CF911F911E
:102BF0000F91FF90EF90DF90CF90BF90AF909F909C
:102C00008F907F906F905F904F903F902F9008959E
:102C10008F929F92AF92BF92CF92DF92EF92FF92EC
:102C20000F931F93CF93DF93CDB7DEB7FF85A889AE
:102C3000B9899A88AB2811F0E3E001C0E2E01F9265
:102C40001F929F92BF93AF93FF93EF93812C912C90
:102C500054010E9470120FB6F894DEBF0FBECDBFB4
:102C6000DF91CF911F910F91FF90EF90DF90CF9068
:102C7000BF90AF909F908F90089561E086E00E9492
:102C8000021A61E085E00E94021A60E085E00E947D
:102C90003B1A61E086E00C943B1A61E086E00E94FA
:102CA000021A61E085E00E94021A61E085E00E945C
:102CB0003B1A60E086E00E943B1A62E370E080E02D
:102CC00090E00E94591960E085E00C943B1A4F9205
:102CD0005F926F927F928F929F92AF92BF92CF92AC
:102CE000DF92EF92FF920F931F93CF93DF932A010E
:102CF0003B0177FA709477F870948AE3882E93E812
:102D0000992ED2E1CFE682E00E94711A892BF9F068
:102D100020E030E040E05FE3C301B2010E945923AC
:102D20006B017C018F929F92DF93CF93AA24A3948F
:102D3000B12C00E010E09801B901A80186E692E00C
:102D40000E9408160F900F900F900F90DCCFDF912C
:102D5000CF911F910F91FF90EF90DF90CF90BF9098
:102D6000AF909F908F907F906F905F904F9008955D
:102D700040E050E060E87FE30C94671684EA92E05C
:102D80000E946A1726E040E855E260E070E08CE6B9
:102D900093E00E947D1B62E082E00C94021A86E6BA
:102DA00092E00C945C088091D30290E02091D402D0
:102DB000821B910908952091D4028091D302281793
:102DC00050F4E22FF0E0EB52FD4F808190E02F5F56
:102DD0002093D40208958FEF9FEF0895E091D402DD
:102DE0008091D302E81730F4F0E0EB52FD4F808180
:102DF00090E008958FEF9FEF08950895CF92DF92AE
:102E0000EF92FF920F931F93CF93DF937C01CB013F
:102E10008A012091B002222389F0EB016B01C40EDC
:102E2000D51ECC15DD0569F06991D701ED91FC91B6
:102E30000190F081E02DC7010995F3CF642F0E9426
:102E40009617C801DF91CF911F910F91FF90EF90DE
:102E5000DF90CF900895CF93DF931F92CDB7DEB769
:102E600069832091B0022223D1F02091B102203257
:102E700040F021E030E0FC013383228380E090E0E9
:102E800015C08091B202E82FF0E0ED54FD4F99811A
:102E900090838F5F8093B2028093B10205C061E09E
:102EA000CE0101960E94961781E090E00F90DF918D
:102EB000CF910895FC011382128248EE53E060E046
:102EC00070E044835583668377838CE092E091833E
:102ED000808308951092D4021092D3021092B2020D
:102EE0001092B1020C94781784EA92E00C945A176D
:102EF0001092620381E08093600310925F0361E0AF
:102F000082E10E943B1A61E083E10E943B1AE9EBF7
:102F1000F0E080818E7F808380818D7F808388E454
:102F20008093B80085E48093BC000895613298F4E2
:102F300020916203243089F460931703FC0189E136
:102F400093E0DC012A2F281B261718F421912D93DA
:102F5000F9CF80E0089581E0089582E0089585ED3D
:102F60008093BC008091BC0084FDFCCF1092620372
:102F7000089585EC8093BC001092620308951F921F
:102F80000F920FB60F9211242F933F934F935F939D
:102F90006F937F938F939F93AF93BF93EF93FF9321
:102FA0008091B900887F803609F49CC068F588322A
:102FB00009F45BC090F4803109F454C038F48823DC
:102FC00009F4F5C0883009F44DC0F5C0883109F422
:102FD0004CC0803209F45DC0EEC0803409F468C092
:102FE00048F4803309F455C0883309F0E4C0809375
:102FF000F502A8C0803509F44FC0883509F45DC0DA
:10300000883409F0D8C0D5C0883909F4C6C0A8F4FE
:10301000883709F467C038F4883609F463C080370C
:1030200009F460C0C8C0883809F4B7C0803909F411
:103030005FC0803809F0BFC05BC0803B09F485C029
:1030400038F4803A09F466C0883A09F47EC0B3C007
:10305000803C09F4A6C0883C09F4A3C0883B09F46D
:1030600089C0A9C08091610310C090913A038091FA
:103070003903981770F5E0913A0381E08E0F809341
:103080003A03F0E0E55CFC4F80818093BB0085EC67
:1030900085C08093F5028DC0E0913A0381E08E0FE8
:1030A00080933A038091BB00F0E0E55CFC4F8083A5
:1030B00090913A03809139036DC0E0913A0381E029
:1030C0008E0F80933A038091BB00F0E0E55CFC4FEB
:1030D00080838091600381116CC081E080935F03E5
:1030E00084EA60C083E0809362031092F602CFCF3F
:1030F0008091F602803208F050C0E091F60281E043
:103100008E0F8093F6028091BB00F0E0E950FD4FF6
:103110008083BDCF8091F602803230F4E091F602D8
:10312000F0E0E950FD4F10820E94AF176091F60267
:1031300070E0E0915B03F0915C0387EF92E009950A
:103140001092F6020E94B91736C084E080936203A1
:103150001092180310921703E0915D03F0915E0343
:10316000099580911703811105C081E080931703B1
:1031700010921903E091180381E08E0F80931803D9
:10318000F0E0E75EFC4F80818093BB0090911803D4
:1031900080911703981708F47ACF85E88093BC00D4
:1031A0000AC085EC8093BC001092620304C01092A8
:1031B000F5020E94AF17FF91EF91BF91AF919F91E0
:1031C0008F917F916F915F914F913F912F910F90D0
:1031D0000FBE0F901F9018951F920F920FB60F926F
:1031E00011242F933F938F939F93AF93BF9380911D
:1031F000640390916503A0916603B09167033091D9
:10320000630323E0230F2D3720F40196A11DB11D88
:1032100005C026E8230F0296A11DB11D209363036C
:103220008093640390936503A0936603B093670350
:103230008091680390916903A0916A03B0916B0338
:103240000196A11DB11D8093680390936903A0931B
:103250006A03B0936B03BF91AF919F918F913F91A0
:103260002F910F900FBE0F901F9018953FB7F894B5
:103270008091680390916903A0916A03B0916B03F8
:1032800026B5A89B05C02F3F19F00196A11DB11DC1
:103290003FBF6627782F892F9A2F620F711D811DDE
:1032A000911D42E0660F771F881F991F4A95D1F73D
:1032B0000895CF92DF92EF92FF92CF93DF936B014D
:1032C0007C010E943619EB01C114D104E104F10420
:1032D00089F00E94CD200E9436196C1B7D0B683E40
:1032E000734090F381E0C81AD108E108F108C85191
:1032F000DC4FEACFDF91CF91FF90EF90DF90CF903E
:103300000895789484B5826084BD84B5816084BD5D
:1033100085B5826085BD85B5816085BDEEE6F0E04E
:10332000808181608083E1E8F0E0108280818260AA
:103330008083808181608083E0E8F0E0808181602B
:103340008083E1EBF0E0808184608083E0EBF0E05B
:10335000808181608083EAE7F0E0808184608083FF
:1033600080818260808380818160808380818068A9
:1033700080831092C10008958E3008F08E508770BF
:1033800020910A0190E4299F90011124822B8093BF
:103390007C0080917A00806480937A0080917A002A
:1033A00086FDFCCF809178002091790090E0922BEF
:1033B0000895833081F028F4813099F08230A1F0B3
:1033C00008958730A9F08830B9F08430D1F4809125
:1033D00080008F7D03C0809180008F778093800074
:1033E000089584B58F7702C084B58F7D84BD08951C
:1033F0008091B0008F7703C08091B0008F7D809363
:10340000B0000895CF93DF9390E0FC01E25FFE4FA0
:103410002491FC01EE5DFE4F8491882349F190E0F8
:10342000880F991FFC01E65BFE4FA591B491805C6B
:103430009E4FFC01C591D4919FB7611108C0F894CB
:103440008C91209582238C93888182230AC06230DC
:1034500051F4F8948C91322F309583238C9388818A
:10346000822B888304C0F8948C91822B8C939FBF0D
:10347000DF91CF9108950F931F93CF93DF931F9206
:10348000CDB7DEB7282F30E0F901E650FF4F849129
:10349000F901E25FFE4F1491F901EE5DFE4F0491D8
:1034A0000023C9F0882321F069830E94D91969811A
:1034B000E02FF0E0EE0FFF1FE05CFE4FA591B4910E
:1034C0009FB7F8948C91611103C01095812301C0BE
:1034D000812B8C939FBF0F90DF91CF911F910F9104
:1034E0000895CF93DF93282F30E0F901E650FF4F86
:1034F0008491F901E25FFE4FD491F901EE5DFE4F38
:10350000C491CC2391F081110E94D919EC2FF0E0E5
:10351000EE0FFF1FEA5CFE4FA591B4912C912D2375
:1035200081E090E021F480E002C080E090E0DF9153
:10353000CF910895FC01818D228D90E0805C9F4F9A
:10354000821B91098F7399270895FC01918D828DBB
:10355000981731F0828DE80FF11D858D90E0089568
:103560008FEF9FEF0895FC01918D828D981761F088
:10357000828DDF01A80FB11D5D968C91928D9F5FAA
:103580009F73928F90E008958FEF9FEF089587E3E8
:103590009CE1892B49F08DEC95E0892B29F00E9464
:1035A000371C81110C94CD050895FC01848DDF0139
:1035B000A80FB11DA35ABF4F2C91848D90E00196A6
:1035C0008F739927848FA689B7892C93A089B18995
:1035D0008C9180648C93938D848D981306C002889F
:1035E000F389E02D80818F7D80830895CF93DF93D1
:1035F000EC01888D8823C9F0EA89FB89808185FDEB
:1036000005C0A889B9898C9186FD0FC00FB607FC4B
:10361000F5CF808185FFF2CFA889B9898C9185FF8C
:10362000EDCFCE010E94D51AE7CFDF91CF9108955B
:10363000CF92DF92FF920F931F93CF93DF931F924E
:10364000CDB7DEB76C0181E0D60158968C935897C0
:103650005B969C915B975C968C915C97981307C0E6
:103660005096ED91FC915197808185FD2EC0F60119
:10367000038D10E00F5F1F4F0F731127F02EF6011F
:10368000848DF81211C00FB607FCF9CFD601509601
:10369000ED91FC915197808185FFF1CFC60169833F
:1036A0000E94D51A6981EBCF838DE80FF11DE35A93
:1036B000FF4F6083D6015B960C935B975296ED911A
:1036C000FC915397808180620CC0D6015696ED9193
:1036D000FC91579760835096ED91FC9151978081B2
:1036E0008064808381E090E00F90DF91CF911F9103
:1036F0000F91FF90DF90CF900895BF92CF92DF920D
:10370000EF92FF92CF93DF93EC016A017B01B22E1F
:10371000E889F98982E08083411581EE58076105C7
:103720007105A1F060E079E08DE390E0A7019601DA
:103730000E943C2421503109410951095695479571
:1037400037952795211580E1380798F0E889F989A0
:10375000108260E874E88EE190E0A70196010E9473
:103760003C24215031094109510956954795379517
:103770002795EC85FD853083EE85FF852083188EA7
:10378000EC89FD89B082EA89FB8980818061808330
:10379000EA89FB89808188608083EA89FB8980814E
:1037A00080688083EA89FB8980818F7D8083DF91B7
:1037B000CF91FF90EF90DF90CF90BF9008951F9230
:1037C0000F920FB60F9211242F938F939F93EF9325
:1037D000FF93E0917C03F0917D038081E09182036F
:1037E000F091830382FD12C09081809185038F5FE9
:1037F0008F7320918603821751F0E0918503F0E0EA
:10380000E459FC4F958F8093850301C08081FF911F
:10381000EF919F918F912F910F900FBE0F901F905E
:1038200018951F920F920FB60F9211242F933F936A
:103830004F935F936F937F938F939F93AF93BF93B8
:10384000EF93FF938CE693E00E94D51AFF91EF91DE
:10385000BF91AF919F918F917F916F915F914F91A8
:103860003F912F910F900FBE0F901F9018958CE6EF
:1038700093E00E949A1A21E0892B09F420E0822F1C
:10388000089510926F0310926E0388EE93E0A0E00B
:10389000B0E08093700390937103A0937203B09390
:1038A00073038CE192E090936D0380936C0385EC3D
:1038B00090E0909379038093780384EC90E0909368
:1038C0007B0380937A0380EC90E090937D03809358
:1038D0007C0381EC90E090937F0380937E0382ECE5
:1038E00090E0909381038093800386EC90E0909326
:1038F00083038093820310928503109286031092B3
:10390000870310928803089508950E9481190E94E8
:10391000841C0E947401C7ECDAE10E94140620970F
:10392000E1F30E94C71AF9CFCF92DF92EF92FF9294
:103930000F931F93CF93DF936C017A01EB01E60E97
:10394000F71E00E010E0CE15DF0561F06991D601A9
:10395000ED91FC910190F081E02DC6010995080FD1
:10396000191FF1CFC801DF91CF911F910F91FF90E7
:10397000EF90DF90CF9008956115710581F0DB0124
:103980000D900020E9F7AD0141505109461B570B3E
:10399000DC01ED91FC910280F381E02D099480E03F
:1039A00090E00895EF92FF920F931F93CF93DF93D0
:1039B0008C01FB01C0E0D0E064917F018FEFE81A39
:1039C000F80A662361F0D801ED91FC910190F08135
:1039D000E02DC8010995C80FD91FF701EDCFCE0121
:1039E000DF91CF911F910F91FF90EF900895DC012F
:1039F000ED91FC91DB0114964D915C9115976D91C1
:103A00007C910280F381E02D099468E272E00C94CD
:103A1000BC1C0F931F93CF93DF93EC010E94D21C29
:103A20008C01CE010E94051D800F911FDF91CF9167
:103A30001F910F9108950F931F93CF93DF93EC0184
:103A40000E94F71C8C01CE010E94051D800F911F62
:103A5000DF91CF911F910F9108950F931F93CF93F3
:103A6000DF93EC010E94BC1C8C01CE010E94051D5D
:103A7000800F911FDF91CF911F910F9108954F9269
:103A80005F926F927F92AF92BF92CF92DF92EF924E
:103A9000FF920F931F93CF93DF93CDB7DEB729012A
:103AA0003A01621B730B840B950B29893A894B8968
:103AB0005C892A193B094C095D09298B3A8B4B8B90
:103AC0005C8B9B01AC0169897A898B899C890E94F6
:103AD0002024E418F50806091709A80197010E9497
:103AE0005E242A0D3B1D4C1D5D1DCA01B901DF91ED
:103AF000CF911F910F91FF90EF90DF90CF90BF90EB
:103B0000AF907F906F905F904F900895FC018081FF
:103B100091810C945625CF93DF93EC018881998194
:103B2000009711F00E945625198218821D821C826E
:103B30001B821A82DF91CF9108950F931F93CF9329
:103B4000DF93EC018B016F5F7F4F888199810E9429
:103B5000E525009731F0998388831B830A8381E0F0
:103B600001C080E0DF91CF911F910F910895CF9315
:103B7000DF93EC0188819981892B29F08A819B81CF
:103B80008617970760F4CE010E949D1D882341F09F
:103B90008C819D81892B19F4E881F981108281E063
:103BA000DF91CF910895EF92FF920F931F93CF93E0
:103BB000DF93EC017B018A01BA010E94B71D8111DC
:103BC00004C0CE010E948B1D07C01D830C83B7016A
:103BD000888199810E94DE26CE01DF91CF911F91CD
:103BE0000F91FF90EF900895FC01118210821382D3
:103BF0001282158214826115710559F0FB01019042
:103C00000020E9F7AF0141505109461B570B0C94B6
:103C1000D31D0895CF93DF93EC01FB01861797071F
:103C200061F0608171816115710529F044815581D0
:103C30000E94D31D02C00E948B1DCE01DF91CF9147
:103C40000895FC011182108213821282158214825F
:103C50000C940A1ECF93DF93EC016115710561F09E
:103C6000FB0101900020E9F7AF0141505109461BCB
:103C7000570B0E94D31D02C00E948B1DCE01DF9105
:103C8000CF910895EF92FF920F931F93CF93DF93FD
:103C9000CDB7DEB7A1970FB6F894DEBF0FBECDBF8C
:103CA0007C01CB01BA01F7011182108213821282CA
:103CB0001582148242E0420F8E010F5F1F4F0E9457
:103CC0009D24BC01C7010E942A1EA1960FB6F8943C
:103CD000DEBF0FBECDBFDF91CF911F910F91FF903F
:103CE000EF900895EF92FF920F931F93CF93DF937E
:103CF000EC017B010C811D816115710511F480E0DF
:103D000016C04115510591F0040F151FB8010E940E
:103D1000B71D8823A1F3288139818C819D81B7014A
:103D2000820F931F0E94DE261D830C8381E0DF91AA
:103D3000CF911F910F91FF90EF900895CF93DF9354
:103D400000D0CDB7DEB769831A8241E050E0BE01F2
:103D50006F5F7F4F0E94721E0F900F90DF91CF9187
:103D60000895CF93DF93EC01FB014481558160817D
:103D700071810E94721E811103C0CE010E948B1DB1
:103D8000CE01DF91CF910895CF93DF93EC016115C0
:103D9000710569F0FB0101900020E9F7AF01415086
:103DA0005109461B570B0E94721E811103C0CE01A0
:103DB0000E948B1DCE01DF91CF910895EF92FF926B
:103DC0000F931F93CF93DF938617970731F1FC0171
:103DD00024813581FB014481558124173507F9F48D
:103DE000232BD9F0FC0100811181FB01C081D1811D
:103DF000F80181918F01882381F0992787FD9095A3
:103E00000E94BB267C018991992787FD90950E948D
:103E1000BB26E816F90661F302C081E001C080E02C
:103E2000DF91CF911F910F91FF90EF900895FC01CA
:103E3000848195816817790720F4808191810097AA
:103E400029F41092090489E094E00895860F971FE1
:103E50000895FC01248135816217730748F480813D
:103E60009181009729F0FC01E60FF71F80810895EA
:103E700080E008950C94291FAF92BF92CF92DF92F9
:103E8000EF92FF920F931F93CF93DF937B01EA0191
:103E9000FB01448155814115510569F1FC012481E3
:103EA00035812115310539F12417350720F1C21765
:103EB000D30710F0E9012197FC0100811181C801AD
:103EC000AA24AA94BB24BA946801CC0EDD1EC8169D
:103ED000D906A0F0F701608171810E94E526009764
:103EE00069F09C01201B310BC217D30708F4950120
:103EF00001965901ECCF8FEF9FEF01C0C501DF9113
:103F0000CF911F910F91FF90EF90DF90CF90BF90D6
:103F1000AF900895BF92CF92DF92EF92FF920F93EE
:103F20001F93CF93DF936C017B01EA018901241772
:103F3000350720F48D2FE901042F182F6AE272E073
:103F4000C6010E94F41DD70114968D919C9115977E
:103F5000C817D907C8F48017910708F48C01D70156
:103F6000ED91FC911197E00FF11FB08010826D91DF
:103F70007C916C0F7D1FC6010E942A1ED701ED9116
:103F8000FC91E00FF11FB082C601DF91CF911F912C
:103F90000F91FF90EF90DF90CF90BF9008952F92F8
:103FA0003F924F925F926F927F928F929F92AF92C9
:103FB000BF92CF92DF92EF92FF920F931F93CF9316
:103FC000DF93EC015B017A014C805D804114510468
:103FD00009F4C5C0FB01648075806114710409F4A3
:103FE000BEC0FA01C480D580C618D70808811981DF
:103FF000C114D104C1F4F50160817181C8010E942E
:10400000E526EC01009709F4AAC0F70160817181EF
:1040100044815581CE010E94C326F7010481158198
:104020000C0F1D1FE8CFD7FC05C0FB01208031809D
:10403000420143C04801F50160817181C8010E94BD
:10404000E5262C01009719F13201601A710AA301CB
:10405000B801C4010E94C326680C791CF701608175
:10406000718144815581C3010E94C326F701848078
:104070009580860C971CF50104811581040D151D92
:104080008C819D818C0D9D1D9D838C83D4CFB80127
:10409000C401DF91CF911F910F91FF90EF90DF90BE
:1040A000CF90BF90AF909F908F907F906F905F90D8
:1040B0004F903F902F900C94DE26B101C8010E94D2
:1040C000E526009731F08C01060D171D8C0C9D1C08
:1040D000F4CF8414950409F442C08A819B81881529
:1040E000990530F4B401CE010E949D1D8823B9F1D9
:1040F0004C815D814150510957FD31C0B501CE0160
:104100000E943C1F8C0197FD2AC088819981F5018E
:1041100024813581200F311F820F931F4C815D81D7
:10412000421B530BBC018C0D9D1D0E94CC268C8123
:104130009D818C0D9D1D9D838C83E881F981E80F05
:10414000F91F108288819981F70160817181448112
:104150005581800F911F0E94C326A801CBCFDF910C
:10416000CF911F910F91FF90EF90DF90CF90BF9074
:10417000AF909F908F907F906F905F904F903F9007
:104180002F900895FC0180819181009711F00C948B
:10419000AF2660E070E0CB01089508955058BB272A
:1041A000AA270ED030C2F9D130F0FED120F031F480
:1041B0009F3F11F41EF4B8C10EF4E095E7FBAEC1C9
:1041C000E92F43D280F3BA17620773078407950774
:1041D00018F071F49EF55BC20EF4E0950B2EBA2F29
:1041E000A02D0B01B90190010C01CA01A0011124FD
:1041F000FF27591B99F0593F50F4503E68F11A16A9
:10420000F040A22F232F342F4427585FF3CF469539
:1042100037952795A795F0405395C9F77EF41F165B
:10422000BA0B620B730B840BBAF09150A1F0FF0F25
:10423000BB1F661F771F881FC2F70EC0BA0F621F11
:10424000731F841F48F4879577956795B795F79501
:104250009E3F08F0B3CF9395880F08F09927EE0F93
:104260009795879508959F939F77EEE389379E07EB
:1042700020F4E8E6F0E080D109C011D19058A2EA1C
:104280002AED3FE049EC5FE39BDFBDD10F9007FCD7
:1042900090580895DF93DD27B92FBF7740E85FE39B
:1042A0001616170648075B0710F4D92FFBD19F930A
:1042B0008F937F936F93A8D2ECE7F0E038D1A3D12E
:1042C0002F913F914F915F9100D2DD2349F090589B
:1042D000A2EA2AED3FE049EC5FE3D0785D2770DF8A
:1042E000DF9191C1F7D008F481E0089565D1E3959D
:1042F0009BC10CD088C158D140F04FD130F021F48F
:104300005F3F19F00BC15111C3C10EC19ED198F38B
:104310009923C9F35523B1F3951B550BBB27AA2746
:1043200062177307840738F09F5F5F4F220F331FB8
:10433000441FAA1FA9F333D00E2E3AF0E0E830D084
:1043400091505040E695001CCAF729D0FE2F27D087
:10435000660F771F881FBB1F261737074807AB0755
:10436000B0E809F0BB0B802DBF01FF2793585F4FCA
:104370002AF09E3F510568F0D1C08AC15F3FECF33F
:10438000983EDCF3869577956795B795F7959F5F8F
:10439000C9F7880F911D9695879597F90895E1E0E3
:1043A000660F771F881FBB1F621773078407BA0742
:1043B00020F0621B730B840BBA0BEE1F88F7E0959D
:1043C000089504D06894B11163C1089546D188F06E
:1043D0009F5790F0B92F9927B751A0F0D1F0660FF1
:1043E000771F881F991F1AF0BA95C9F712C0B1300C
:1043F00081F04DD1B1E008954AC1672F782F882709
:10440000B85F39F0B93FCCF3869577956795B3954A
:10441000D9F73EF490958095709561957F4F8F4FB9
:104420009F4F0895E89409C097FB3EF490958095BE
:10443000709561957F4F8F4F9F4F9923A9F0F92F6A
:1044400096E9BB279395F695879577956795B795E8
:10445000F111F8CFFAF4BB0F11F460FF1BC06F5FCE
:104460007F4F8F4F9F4F16C0882311F096E911C0E0
:10447000772321F09EE8872F762F05C0662371F001
:1044800096E8862F70E060E02AF09A95660F771F15
:10449000881FDAF7880F9695879597F90895DF9327
:1044A000CF931F930F938B01EC01E9EAF0E03FD02B
:1044B000AAD09801AE018B01EC0160E070E080E8C9
:1044C0009FE36CDE63D19801AE010F911F91CF91F4
:1044D000DF91FBC0990F0008550FAA0BE0E8FEEF33
:1044E00016161706E807F907C0F012161306E407B8
:1044F000F50798F0621B730B840B950B39F40A26B1
:1045000061F0232B242B252B21F408950A2609F48E
:10451000A140A6958FEF811D811D089597F99F6792
:1045200080E870E060E008959FEF80EC0895DF93ED
:10453000CF931F930F93FF92EF92DF927B018C0139
:10454000689405C0DA2EEF01C0D0FE01E894A59171
:104550002591359145915591AEF3EF0131DEFE0184
:104560009701A801DA9479F7DF90EF90FF900F910F
:104570001F91CF91DF9108959F938F937F936F93B6
:10458000FF93EF939B01AC0194D0EF91FF91CFDFAC
:104590002F913F914F915F918CC000240A94161681
:1045A000170618060906089500240A941216130621
:1045B000140605060895B8CF50D0E8F3E894E0E07B
:1045C000BB279F57F0F02AED3FE049EC06C0EE0F05
:1045D000BB0F661F771F881F28F0B23A6207730768
:1045E000840728F0B25A620B730B840BE3959A95FB
:1045F00072F7803830F49A95BB0F661F771F881FBB
:10460000D2F790480AC1092E0394000C11F48823B4
:1046100052F0BB0F40F4BF2B11F460FF04C06F5F7A
:104620007F4F8F4F9F4F0895EF93E0FF06C0A2EAA0
:104630002AED3FE049EC5FEBC3DDE5DF0F9003942B
:1046400001FC9058E1EDF0E097CF57FD9058440FF2
:10465000551F59F05F3F71F04795880F97FB991FE1
:1046600061F09F3F79F0879508951216130614069E
:10467000551FF2CF4695F1DF08C01616170618062B
:10468000991FF1CF86957105610508940895E89406
:10469000BB2766277727CB0197F908951BDF08F41E
:1046A0008FEF08959B01AC0160E070E080E89FE32C
:1046B00020CE0BD0A8CF71DF28F076DF18F095233D
:1046C00009F02CCF31CF1124E3CFBFDFA0F3959FAA
:1046D000D1F3950F50E0551F629FF001729FBB27E9
:1046E000F00DB11D639FAA27F00DB11DAA1F649F95
:1046F0006627B00DA11D661F829F2227B00DA11D48
:10470000621F739FB00DA11D621F839FA00D611DCD
:10471000221F749F3327A00D611D231F849F600DEE
:10472000211D822F762F6A2F11249F5750408AF027
:10473000E1F088234AF0EE0FFF1FBB1F661F771FB3
:10474000881F91505040A9F79E3F510570F0E6CE6A
:104750009FCF5F3FECF3983EDCF3869577956795A6
:10476000B795F795E7959F5FC1F7FE2B880F911DD1
:104770009695879597F908959F931EDF0F9007FCF4
:10478000EE5F52CF11F40EF4CFCE45C066DFD0F30A
:104790009923D9F3CEF39F57550B87FF4AD00024B6
:1047A000A0E640EA900180585695979528F4805CE1
:1047B000660F771F881F20F026173707480730F449
:1047C000621B730B840B202931294A2BA695179461
:1047D0000794202531254A2758F7660F771F881F31
:1047E00020F026173707480730F4620B730B840B51
:1047F000200D311D411DA09581F7B901842F9158DD
:10480000880F9695879508959B01AC0152CF62DE83
:10481000880B990B08959F3F31F0915020F48795B4
:1048200077956795B795880F911D9695879597F918
:10483000089591505040660F771F881FD2F7089552
:10484000DB018F939F930E947D24BF91AF91A29F24
:10485000800D911DA39F900DB29F900D112408957E
:10486000991B79E004C0991F961708F0961B881FC2
:104870007A95C9F780950895A1E21A2EAA1BBB1B51
:10488000FD010DC0AA1FBB1FEE1FFF1FA217B3071C
:10489000E407F50720F0A21BB30BE40BF50B661F32
:1048A000771F881F991F1A9469F7609570958095F6
:1048B00090959B01AC01BD01CF010895052E97FB9A
:1048C0001EF400940E94752457FD07D00E943C24DA
:1048D00007FC03D04EF40C94752450954095309508
:1048E00021953F4F4F4F5F4F08959095809570955C
:1048F00061957F4F8F4F9F4F08950E948E24A59FF3
:10490000900DB49F900DA49F800D911D11240895CA
:10491000EE0FFF1F0590F491E02D0994A29FB001C6
:10492000B39FC001A39F700D811D1124911DB29FE3
:10493000700D811D1124911D0895EF920F931F9307
:10494000CF93DF93E80147FF02C034E101C034E0B8
:10495000E42FFF27E7FDF095F7FF03C0F195E19500
:10496000F109E32E022F2E2FAE010E940727CE0160
:10497000DF91CF911F910F91EF900895CF93DF9327
:104980008230910510F482E090E0E0910C04F09107
:104990000D0420E030E0A0E0B0E0309739F1408134
:1049A000518148175907B8F04817590771F48281A7
:1049B0009381109729F013969C938E9312972CC095
:1049C00090930D0480930C0427C02115310531F01C
:1049D0004217530718F0A901DB0101C0EF019A014A
:1049E000BD01DF010280F381E02DD7CF2115310514
:1049F000F9F0281B390B2430310580F48A819B8122
:104A00006115710521F0FB019383828304C09093AB
:104A10000D0480930C04FE01329644C0FE01E20FA7
:104A2000F31F8193919322503109398328833AC02F
:104A300020910A0430910B04232B41F420910201B0
:104A40003091030130930B0420930A04209100015C
:104A5000309101012115310541F42DB73EB7409148
:104A6000040150910501241B350BE0910A04F091DB
:104A70000B04E217F307A0F42E1B3F0B281739078E
:104A800078F0AC014E5F5F4F2417350748F04E0FAA
:104A90005F1F50930B0440930A048193919302C0CB
:104AA000E0E0F0E0CF01DF91CF910895CF93DF9365
:104AB000009709F487C0FC01329713821282C091DB
:104AC0000C04D0910D04209781F420813181280FAE
:104AD000391F80910A0490910B048217930779F58E
:104AE000F0930B04E0930A046DC0DE0120E030E097
:104AF000AE17BF0750F412964D915C9113979D012C
:104B00004115510509F1DA01F3CFB383A283408146
:104B10005181840F951F8A179B0771F48D919C9189
:104B20001197840F951F02969183808312968D9121
:104B30009C911397938382832115310529F4F09377
:104B40000D04E0930C043EC0D9011396FC93EE9340
:104B500012974D915D91A40FB51FEA17FB0779F4E9
:104B600080819181840F951F0296D90111969C93A3
:104B70008E938281938113969C938E931297E0E09B
:104B8000F0E08A819B81009719F0FE01EC01F9CFDA
:104B9000CE01029628813981820F931F20910A0449
:104BA00030910B042817390769F4309729F41092D3
:104BB0000D0410920C0402C013821282D0930B04D5
:104BC000C0930A04DF91CF910895A0E0B0E0EBEE2E
:104BD000F5E20C94DF2AEC01CB01209719F40E9436
:104BE000BE24B8C0FE01E60FF71F9E012250310916
:104BF000E217F30708F4ACC0D9010D911C9111978D
:104C000006171707B8F00530110508F49FC0A80172
:104C1000445051094617570708F498C0025011092B
:104C2000061B170B019311936D937C93CF010E9488
:104C300056258CC05B01A01AB10A4E01800E911E50
:104C4000A0910C04B0910D04612C712C60E070E017
:104C5000109709F449C0A815B905C9F5ED90FC9065
:104C60001197670142E0C40ED11CCA14DB0478F12D
:104C700047018A189B08640142E0C40ED11C1296B9
:104C8000BC9012971396AC91B5E0CB16D10440F0CE
:104C9000B282A38391828082D9018D939C9309C0B3
:104CA0000E5F1F4F0E0D1F1DF90111830083EB2DA9
:104CB000FA2F6115710531F0DB011396FC93EE9329
:104CC000129744C0F0930D04E0930C043FC06D9123
:104CD0007C9111976616770608F43B01BD01129688
:104CE0000D90BC91A02DB4CF60910A0470910B047B
:104CF00068157905E9F468167906D0F44091000149
:104D0000509101014115510541F44DB75EB76091D5
:104D1000040170910501461B570BE417F507C0F419
:104D2000F0930B04E0930A04F901918380830EC091
:104D30000E94BE247C01009759F0A801BE010E9488
:104D4000C326CE010E945625C70104C0CE0102C071
:104D500080E090E0CDB7DEB7EEE00C94FB2A66274A
:104D600077270C94852891110BC4803219F0895053
:104D70008550D0F708959111089581548A5108F40F
:104D8000805E855A0895FB01DC0102C001900D92FE
:104D900041505040D8F708956817790768F4FB012F
:104DA000DC01E40FF51FA40FB51F02C002900E92A4
:104DB00041505040D8F708950C94C326FB01DC0104
:104DC00001900D920020E1F70895FB0151915523C8
:104DD000A9F0BF01DC014D9145174111E1F759F4EC
:104DE000CD010190002049F04D9140154111C9F3CA
:104DF000FB014111EFCF81E090E001970895F9990F
:104E0000FECF92BD81BDF89A992780B508956F9223
:104E10007F929F92AF92BF92CF92DF92EF92FF92DA
:104E20000F931F93CF93DF93CDB7DEB729970FB6BC
:104E3000F894DEBF0FBECDBF6A01B22E102F0C3327
:104E400020F4FF24F394F00E02C04CE3F42E0F2D57
:104E500027E0AE014F5F5F4F0E94E8297981272F3D
:104E60002970213031F0E1FC06C0E0FC06C060E0B2
:104E700005C06DE203C06BE201C060E2AE2DA0711F
:104E800073FF36C0662311F084E001C083E08B1508
:104E900010F4B81A01C0B12CA1110BC0F6018B2D72
:104EA00090E2882319F091938150FBCFCB0CD11C59
:104EB000B12C662331F0F601608396012F5F3F4FDE
:104EC0006901C6010396E2FE05C02EE4F6012083C7
:104ED00031E404C02EE6F601208331E631832283DB
:104EE000FC012B2D30E22223F1F131932150FBCF35
:104EF00072FF40C0662311F084E001C083E08B158F
:104F000010F4B81A01C0B12CA1110BC0F6018B2D01
:104F100090E2882319F091938150FBCFCB0CD11CE8
:104F2000B12C662331F0F601608396012F5F3F4F6D
:104F30006901C6010396E2FE07C029E4F601208359
:104F40002EE4218326E406C029E6F60120832EE61E
:104F5000218326E62283FC012B2D30E2222319F047
:104F600031932150FBCFFC01EB0DF11D10828EEF30
:104F70009FEFB7C0B1E0611101C0B0E04B2F50E02E
:104F80001816190624F49C012F5F3F4F02C021E040
:104F900030E0240F351F112329F0412F50E04F5FDF
:104FA0005F4F02C040E050E0420F531F2B2D30E016
:104FB0004217530714F4B41A01C0B12C2E2D2871D6
:104FC00059F4F6012B2D30E2222319F031932150B0
:104FD000FBCFCB0CD11CB12CBB2331F0F60160838D
:104FE00096012F5F3F4F6901A1110BC0F6012B2DD8
:104FF00030E3222319F031932150FBCFCB0CD11C8D
:10500000B12CF80E0A81372F3071A32E74FF03C024
:10501000013309F4FA941F142CF42F2D293018F0C1
:1050200028E001C021E0682F392F97FF02C060E01F
:1050300030E0462F532F612C712C3EE2932EBC01A1
:10504000621B71099B01DC01A41BB50BE1E0F0E0E0
:10505000EC0FFD1FAE0FBF1FE12EF12CF194E19478
:10506000F1084F3FFFEF5F0731F4F6019082B60180
:105070006F5F7F4F6B01841795074CF0241735073E
:1050800034F4BD01660D771DFB01118101C010E3F1
:1050900041505109FFEF6F1A7F0AB6016F5F7F4FD2
:1050A0004E155F0524F0F60110836B01DACF481727
:1050B000590739F4063320F4053319F4A11001C05F
:1050C00011E3F6011083FB018B2D90E2882319F088
:1050D00091938150FBCFFB01EB0DF11D108280E01D
:1050E00090E029960FB6F894DEBF0FBECDBFDF91DA
:1050F000CF911F910F91FF90EF90DF90CF90BF90D5
:10510000AF909F907F906F900895A0E0B0E0EBE8A3
:10511000F8E20C94E12A8B016115710521F0DB01A5
:105120008C9311969C93EC015E01BFEFAB1ABB0A06
:105130007501C8808C2D90E00E94B326892B11F058
:10514000E501F2CFEDE2CE1208C07E01F2E0EF0EF3
:10515000F11CC980DD24D39409C02BE2C21205C022
:105160007E0142E0E40EF11CC980D12CE7012197B9
:1051700043E050E06CE571E0CE010E94C32A892B28
:10518000C1F4239645E050E067E571E0CE010E944E
:10519000C32A892B09F425960115110519F0D801A8
:1051A000CD93DC93D11006C160E070E080E89FE70A
:1051B0000AC143E050E064E571E0CE010E94C32AD9
:1051C000892B59F40115110509F4F9C0B2E0EB0E71
:1051D000F11CF801F182E082F2C0F70160E070E0BA
:1051E000CB01C0E0D0E07F01A0EDAA2EAC0C29E0FD
:1051F0002A1530F14D2D4260B42E2D2D2870D2FE8F
:1052000004C0211125C0219623C021112197A5E0BA
:10521000B0E09B01AC010E947D24660F771F881FC0
:10522000991F6A0D711D811D911D6839A9E97A07C1
:105230008A07A9E19A0760F0BD2DB660BB2E08C0B1
:105240002EEFA2120AC0D3FC50C04D2D4860B42EE0
:105250003196D701CC90DB2CC6CF2C2D2F7D253459
:1052600009F043C0A081AD3241F4BD2DB061DB2E09
:105270007F0122E0E20EF11C0CC07F01AB3231F065
:105280004FEFE41AF40A21E030E006C0A2E0EA0E93
:10529000F11CA18122E030E0A053AA3018F0E21AFC
:1052A000F30A23C0F70120E030E02038BCE03B07E0
:1052B0005CF4A901440F551F440F551F240F351FDF
:1052C000220F331F2A0F311DAF014F5F5F4F7A014D
:1052D000A081A053AA3010F4FA01E7CFD4FE03C096
:1052E000319521953109C20FD31FD1FE09C0011597
:1052F000110531F0E1E0EE1AF108D801ED92FC92CF
:105300000E9412222D2D2370233019F04B015C01D5
:1053100006C04B015C01B7FAB094B7F8B09420E036
:1053200030E0A901C501B4010E947221882309F46B
:105330003EC0D7FF06C0D195C195D10903E711E062
:1053400002C00BE811E06801B8E1CB1AD10890E285
:10535000E92EF12CCE15DF0574F0F8012591359179
:1053600045915491C501B4010E9459234B015C0140
:10537000CE19DF09EFCF04501109F594E7940C150D
:105380001D0541F78A2D880F8B2D881F8F3F49F00F
:1053900020E030E0A901C501B4010E947221811111
:1053A00006C082E290E090930F0480930E04C50142
:1053B000B40109C060E070E080E89FEF04C060E0E5
:1053C00070E080EC9FE7CDB7DEB7ECE00C94FD2AEF
:1053D000283008F027E03327DA01990F311D87FDC7
:1053E000916000966105710539F432602E5F3D933E
:1053F00030E32A95E1F708959F3F30F0803871053A
:10540000610509F03C5F3C5F3D93913008F0806896
:10541000911DDF93CF931F930F93FF92EF92192F5C
:10542000987F9695E92F96959695E90FFF27E75176
:10543000FE4F99273327EE24FF24A701E7010590AB
:105440000894079428F4360FE71EF81E491F511DD3
:10545000660F771F881F991F0694A1F70590079480
:1054600028F4E70EF81E491F561FC11D770F881F2D
:10547000991F661F0694A1F70590079428F4F80E6B
:10548000491F561FC71FD11D880F991F661F771F01
:105490000694A1F70590079420F4490F561FC71FE3
:1054A000D81F990F661F771F881F0694A9F784914C
:1054B0001095177041F0D695C79557954795F79475
:1054C000E7941A95C1F7EFE8F1E06894159015910B
:1054D00035916591959105907FE27395E118F10AF8
:1054E000430B560BC90BD009C0F7E10CF11E431F4B
:1054F000561FC91FD01D7EF4703311F48A95E6CF74
:10550000E894015030F0080F0AF40027021708F45D
:10551000202F2395022F7A3328F079E37D932A9563
:10552000E9F710C07D932A9589F6069497956795BB
:10553000379517951794E118F10A430B560BC90BD1
:10554000D00998F023957E9173957A3308F070E333
:105550007C932013B8F77E9170617D9330F0839532
:1055600071E37D9370E32A95E1F71124EF90FF90AA
:105570000F911F91CF91DF91992787FD9095089505
:10558000992788270895FB01DC014150504088F09D
:105590008D9181341CF08B350CF4805E6591613403
:1055A0001CF06B350CF4605E861B611171F3990B76
:1055B0000895881BFCCF2F923F924F925F926F927B
:1055C0007F928F929F92AF92BF92CF92DF92EF9293
:1055D000FF920F931F93CF93DF93CDB7DEB7CA1B14
:1055E000DB0B0FB6F894DEBF0FBECDBF09942A883F
:1055F000398848885F846E847D848C849B84AA84E7
:10560000B984C884DF80EE80FD800C811B81AA8173
:10561000B981CE0FD11D0FB6F894DEBF0FBECDBF3E
:10562000ED01089512E0C2E9D2E004C0FE010E943B
:0E5630008A242296C439D107C9F7F894FFCF17
:10563E000000100480000100000001670061006896
:10564E00656C70004D6F76656420746F2028002C99
:10565E000050756D70204F6E0050756D70204F6646
:10566E006600416C61726D0028782C792C7A2920A5
:10567E006D6F76657320746F20636F6F7264696EE1
:10568E006174652028782C792C7A290028302C78A2
:10569E002C792C7A29206D6F76657320746F2063B8
:1056AE006F6F7264696E6174652028782C792C7A1C
:1056BE00290028312C782C792C7A29206D6F76656B
:1056CE00732062792028782C792C7A2920696E2013
:1056DE007468656972207265737065637469766546
:1056EE0020646972656374696F6E73002867296D33
:1056FE006F76657320746F2067726F756E64002805
:10570E006E29207475726E73206F6E2070756D70B9
:10571E0000286629207475726E73206F666620707D
:10572E00756D700028612920736F756E647320612A
:10573E006C61726D003E3E00000000002B17FE16DD
:10574E00D316DB16EE16FD1600000000181B941C77
:10575E009A1AB31AA51AF61A0D0A006E616E00692E
:0A576E006E66006F7666002E0000E4
:00000001FF
